:020000040800F2
:10000000B8170020DD000008030100080501000802
:1000100000000000000000000000000000000000E0
:1000200000000000000000000000000007010008C0
:1000300000000000000000000901000829800008FD
:100040000D0100080D0100080D0100080D01000858
:100050000D0100080D0100080D0100081D09000830
:10006000000000000D01000879060008AD06000838
:100070000D0100080D0100080D0100080D01000828
:100080000D01000800000000000000000D01000844
:10009000000000000D0100080D0100080D0100081E
:1000A000000000000D0100080D010008D9800008C3
:1000B0000D010008000000000D0100080D010008FE
:1000C0000348854600F0A2F800480047B18D0008BB
:1000D000B81700200138FDD1704700000C4880F3AC
:1000E00008880C480168090E0B4A914205D10B485B
:1000F0000B4901600B480C4901600C4880470C48D3
:100100000047FEE7FEE7FEE7FEE7FEE7FEE700004A
:10011000B8170020040000001F0000001810024063
:100120000100000000000140000000008580000880
:10013000C100000830B50B460146002020220124F2
:1001400009E00D46D5409D4205D31D469540491B0B
:100150002546954040191546521E002DF1DC30BD54
:1001600070B500242546002801DA01244042002908
:1001700001DA01254942FFF7DDFFAC4200D04042E1
:10018000002C00D0494270BDD2B201E00270401C88
:10019000491EFBD270470022F6E710B513460A4607
:1001A00004461946FFF7F0FF204610BDF0B51FB416
:1001B0000646002082B005464024019100901BE0D5
:1001C000019922460F46304600F042F8049A059BFA
:1001D000801A994110D310461946224600F028F89B
:1001E000361A8F410197224601200021009F00F01E
:1001F0001FF838184D4100902046641E0028DFDCAF
:10020000019B00982946324607B0F0BD064C0125F7
:10021000064E05E0E36807CC2B430C3C98471034AE
:10022000B442F7D3FFF750FF20A3000840A3000813
:1002300010B5202A04DB0146203A9140002010BD71
:10024000914020239C1A0346E3401943904010BD7F
:1002500010B5202A04DB0846203AD040002110BD0A
:100260000B46D340D0402024A21A9140084319469F
:1002700010BD70B58C180578401C6B075B0F01D161
:100280000378401C2A1106D10278401C03E006784E
:100290000E70401C491C5B1EF9D12B0705D40023AE
:1002A000521E0DD40B70491CFAE70378401CCB1A80
:1002B000921C03E01D780D70491C5B1C521EF9D581
:1002C000A142D8D3002070BD7047704710B51248C6
:1002D00008F078F811A008F075F80F4808F072F8E7
:1002E00019A008F06FF81FA008F06CF824A008F01F
:1002F00069F828A008F066F82BA008F063F82EA093
:1003000008F060F831A008F05DF834A008F05AF861
:10031000014808F057F810BDD8A200085072657364
:100320007320746865206E756D62657220746F202D
:1003300073746172742072656C6174656420746595
:100340007374696E672E0A00312E20545820403293
:100350003430324D487A284C444F29205465737408
:100360000A000000322E2054582040323430324DE2
:10037000487A28444344432920546573740A000092
:10038000332E205258284C444F2920546573740A48
:1003900000000000342E20525828444344432920B2
:1003A000546573740A000000352E20536C65657027
:1003B00020546573740A0000362E20446565702051
:1003C000536C65657020546573740A00372E205293
:1003D00053534920546573740A000000382E2031AD
:1003E000364D487A20434C4B20546573740A000004
:1003F00010B5134886B00EC86C460EC407C807C4B3
:10040000104C0021204607F00CFA204607F004FBB0
:100410000121204607F0EEF90021204607F0EAF915
:1004200000231A466946084807F0A8FB064800233F
:100430001A4603A9143007F0A1FB06B010BD000056
:10044000D4990008003800404400024010B5FFF77E
:100450003DFF10BD10B50B49087882070CD5FD2271
:1004600010400870487806F01FFE010005D006A075
:1004700007F0A8FFFFF72AFF10BD0BA007F0A2FFAF
:10048000F8E7000000000020526573756C743A466E
:1004900041494C204572726F7220436F64653A2067
:1004A0003078253032780A00526573756C743A5092
:1004B0004153530A00000000014A526810470000EF
:1004C000000300200148006870470000DC020020A3
:1004D00010B50C484468002C13D001688C4203D13D
:1004E00000214160016001E02168416020790649F6
:1004F00050380006800D095820468847204600F0F5
:100500008FFA10BDC0020020F89F0008F8B500F077
:1005100093F804460125030007F064FF0504070A69
:10052000160D150004F04AFB0EE001F0BBFA0BE0DB
:1005300001F0F2F908E000F08FF8002804D120461D
:1005400000F082FB00E0092519480168491C0160A0
:1005500008F09EF900F080F8012827D1154CE07EC4
:1005600003F0D4FF01281FD121460125FB22E039E9
:10057000114801F05AFA2646E03EB1780F4A890048
:100580005158E07E8847002810D1B07805280BD15B
:100590003079132808D1E07E317A00020843694699
:1005A00008800520FFF788FF06F084FF2846F8BD85
:1005B0005402002081110020A0110020ACA20008EC
:1005C00010B572B608F022FB08F00CFB08F038FBFF
:1005D00000211920800106F0B5FB01F0AFF908F009
:1005E00041FB08F039FB06F0DDF906F0E7FC62B6E6
:1005F0000024FF21204608F017FA641C2406240E6C
:10060000F7D010BD0A490A780A49012A097803D9A6
:100610005200921E511889B20F2907D329220F398F
:10062000514389B2814201D30020704701207047B5
:1006300023020020180200200649002072B6C200E2
:1006400052185268002A04D162B6401CC0B2052874
:10065000F4D370473C0D00200348C07EFF2801D032
:100660000120704700207047811100200148007868
:10067000704700001403002070B5202000F094F8AB
:100680000124094D002803D06C70202000F030F8C0
:1006900001267602304600F087F8002803D02C703F
:1006A000304600F025F870BD1000002070B501261E
:1006B0007603304600F078F80124094D002803D075
:1006C0006C70304600F014F801267604304600F0D5
:1006D0006BF8002803D02C70304600F009F870BD8C
:1006E00010000020014948607047000000000240EF
:1006F000014948607047000000000240026852084B
:1007000052000A4302607047F0B50C4606460121CC
:1007100089B01D461746084606F03CF8304600F002
:1007200023F8684600F078F80021684601970094A5
:1007300001720395017480224274418281822022D9
:100740008275018341836946304600F03FF80122FB
:100750000221044807F005FD01213046FFF7CEFFD6
:1007600009B0F0BD0038014010B5016849084900E2
:1007700001600021016041608160C160C0B205215B
:100780000838FFF7D7FC0F21814002484268114327
:10079000416010BD0000024010B50121FFF7AEFF1F
:1007A00010BD406880B2704703490968014201D01A
:1007B000012070470020704700000240002A0268B4
:1007C00001D00A4300E08A430260704710B50A7AFC
:1007D0008B7D4C7C1A430B7C23431A434B8A1A4370
:1007E0008B8A1A430B8B1A434B8B1A430368094CB1
:1007F00023401A43026002680123DB039A438B8B78
:100800001A430260CA6842600A6882604968C1602F
:1008100010BD00000F80FFFF0021016041600172E8
:10082000C160017441744182818281750183418379
:1008300081837047F8B5057A8821364A69430646B0
:100840008C18C17A14300C36009003292AD0042960
:1008500027D13148AF00C559042228461E300099DF
:1008600001F017F929461A31204608225830009124
:1008700001F00FF908223146009801F00AF92946E3
:1008800028461231223008F0AFFCB02028712248EF
:100890000021C151284607F099FB2046603008F03E
:1008A000DAFCF8BD3046163004F0B8FA314620467E
:1008B00008220A31603001F0ECF83146204604226B
:1008C0001231583001F0E5F800F05AF907466E2071
:1008D00038713846BD720A2231460B3001F0D9F822
:1008E0000421384607F072FB304608F0B4FC20467D
:1008F00008223146683001F0CCF8204604225C30F2
:10090000009901F0C6F82B460C220421304603F072
:100910009FFFF8BD340E00204802002070B5FF2470
:100920000134204600F018F800280CD0204600F0D2
:100930000DF8054D01E003F0E5FE2146284600F0E4
:10094000FAF80028F7D170BD000400480149486159
:10095000704700000004014005494A69024204D082
:100960000968014201D00120704700207047000053
:100970000004014000B50346006808F077F8987954
:1009800000281AD019791048002909D041681A683E
:10099000114341605979022907D000290ED008E09F
:1009A00001681A6811430160F4E781681A6811430D
:1009B0008160C1681A681143C16000BD81681A680E
:1009C0001143816000BD0000000401408B08084A0B
:1009D00010B59B009A1893688907090F0F248C4063
:1009E000A3439360936888400343936010BD000065
:1009F0000000014072B6002800D0FEE762B67047E2
:100A000072B6002808D0054A5168884204D00160B7
:100A100050601078401C107062B6704718020020B9
:100A2000002808D0044A5168884204D00160506010
:100A30001078401C107070471802002010B5014655
:100A4000002200290FD0521C0B68D2B2002B01D01B
:100A50001946F6E772B6044B5C680C60586018786B
:100A60008018187062B610BD18020020074B0146AE
:100A700000290AD01A78521C1A700A68002A01D07C
:100A80001146F5E75A680A6058607047180200205E
:100A9000F0B5CA7813071B0FD20601D58A78134325
:100AA00000229406240E0E88012595402E4207D080
:100AB00005680F26A640B5431E46A640354305608F
:100AC000521CD2B2082AECD30A88071D120A944697
:100AD00000229406240E012595406646354207D033
:100AE0003D680F26A640B5431E46A64035433D60EF
:100AF000521CD2B2082AECD3CA78282A06D0482A37
:100B000003D1026909880A430261F0BD426909887C
:100B10000A434261F0BD4B0710B5DB0E082901D234
:100B2000203000E024300F249C4001689A40A1430B
:100B30001143016010BD8068084000D0012070475B
:100B400041617047016170470021C9430180022162
:100B500081700421C170704772B6084A506800283D
:100B60000AD01178002906D0491E11700168516021
:100B70000021016000E0002062B6704718020020EA
:100B800006494868002807D00A78521E0A70026891
:100B90004A6000210160704772B6FEE7180200202B
:100BA00030B4134D6C68002C1ED000281BD00122DD
:100BB000214629280CD9521C0B68D2B2002B05D033
:100BC0002938C0B219462928F5D801E029280AD8C1
:100BD0002878D31D984206D3801A28700868686068
:100BE0000020086000E00024204630BC7047000070
:100BF0001802002030B572B6124D6B68002B1ED063
:100C000000281BD00122194607E0521C0C68D2B202
:100C1000002C05D029382146C0B22928F5D801E09A
:100C200029280BD8287814460F34A04206D3801AFE
:100C30002870086868600020086000E0002362B641
:100C4000184630BD1802002010B506F021FC0446FD
:100C5000007960380106880D034909582046884705
:100C60002046FFF7CDFE10BD44A1000810B5037A61
:100C7000002B14D10A49097801290FD0417A15298E
:100C80000CDA05290AD0132908D1012202210930E2
:100C900003F0C2FDB121002003F024FE00BF10BD0F
:100CA000340E002070477047704700BF7047000047
:100CB00070B572B61F49497A62B68906890F0BD0A2
:100CC0000C24FFF749FF61210171D3218172C472A5
:100CD000042107F05DF970BD00240646164D083664
:100CE000E000001B295CFC2906D040190722314690
:100CF00000F07BFE002803D0641CE4B2042CEFD388
:100D0000042C0BD10024E000001B285CFC2807D039
:100D1000641CE4B2042CF6D3042C09D00024D0E7E0
:100D2000E000001B40190722314600F07EFEF3E789
:100D30000724C6E720020020D80E002010B572B6A6
:100D40000E48407A62B68006800F0BD00C24FFF765
:100D500003FF61210171D2218172C472042107F065
:100D600017F910BD0020064AFC21C3001B1A401CC5
:100D7000C0B2D1540428F8D30024E8E720020020B0
:100D8000D80E0020FEB5044646898089864205D0EB
:100D900030184608012006436681A681FFF7DCFE75
:100DA000054621460C31103006220091029000F0D9
:100DB0003CFEA0890A214843A081208A2349C00023
:100DC0002082277A882078434418D521002003F018
:100DD00089FD2046263006220099019000F005FE8C
:100DE00000282BD01A49002042008A5AB24203D868
:100DF000401CC0B20728F7D3401C6873608B3B4689
:100E0000001DE88228460B2200210D3003F004FD6E
:100E10006C202871284606220C30029900F02CFE26
:100E20000C49EF72B8000D50608B0622001DA085A2
:100E300026840099019800F0F8FDFEBDB0202871CD
:100E40000021284607F0A4F8FEBD0000340E002063
:100E5000069D0008480200207047704770B505469F
:100E6000FFF77AFE0446A87A2946C01CC2B2204683
:100E70000831083000F0D9FDA87A6072A87A002104
:100E8000072801D821200155EF202071EA7A2B7A1A
:100E900088201D4D58434019022A03D14225057070
:100EA0008030C180184603F031FB002819D0174963
:100EB000D800401872B6016800290CD0921E1300A9
:100EC00007F090FA100B10101010202020101020A6
:100ED000102020201020446012E04168216007E0CB
:100EE00062B670BD4268E57AD37AAB4202D3226023
:100EF0004460F5E78A4200D10460116821604068CF
:100F00000460EDE70C60FBE7340E00208402002053
:100F100070B50546FFF720FE044651202071294692
:100F2000204620220831083000F07FFD204607F0DF
:100F30003FF870BDF8B5067A88201449704345180B
:100F400000275320475575204755FFF705FE6121BF
:100F50000171DD218172C7720673697804464A0700
:100F60000D300621002A06DA0322027041700222A7
:100F70003346112103E00170334601220D2103F0B5
:100F80004BFC0421204607F003F8F8BD340E002086
:100F900070B50546FFF7E0FD044654202071294650
:100FA000204611220831083000F03FFD204606F0AF
:100FB000FFFF70BD70B50546FFF7CEFD0446522019
:100FC00020712946204600220831083000F02DFD0E
:100FD000204606F0EDFF70BD00BF704710B5FFF76B
:100FE000BBFD61210171C12181720021C1722C22DE
:100FF0000273417301218173042106F0C9FF10BD02
:1010000010B5FFF7A9FD044661202071C620A0722B
:101010000020E0722046082209490C3000F0C4FC90
:10102000084800784006400F072803D1207B40087D
:10103000400020730421204606F0AAFF10BD0000E6
:10104000F69C00081403002010B50446FFF784FD49
:10105000217A61220271EB2282720022C272017334
:1010600088225143084A0323891860314A7F42731A
:10107000897F8173042A00D14373042900D18373CB
:10108000042106F085FF10BD340E002070B5044623
:1010900005460C3408220C49204600F085FC0B481C
:1010A00000784006400F072803D1607840084000D0
:1010B00060702B7A08220E21204603F0ADFBD82168
:1010C000002003F00FFC70BDF69C00081403002004
:1010D00010B5FFF741FD61210171D121817200211D
:1010E000C1720421017306F053FF10BD70B5057A7B
:1010F000FFF732FD044661202071D720A072002046
:10110000E0722573882045430648052229182046A9
:101110000D30143100F089FC0421204606F038FF20
:1011200070BD0000340E00207047704700BF70474C
:1011300000BF704770B572B61849497A62B6890621
:10114000890F0BD00C24FFF707FD61210171D42119
:101150008172C472042106F01BFF70BD0024104D83
:1011600006460836E000021BA85CFC2806D0501991
:101170000722314600F039FC002807D0641CE4B295
:10118000042CEFD3042C06D00024DCE7FC20E10083
:10119000091B6854F6E71224D5E70000200200205E
:1011A000D80E002010B5144C0146E07A000701D596
:1011B000124801E011485C301C3060610A7A093144
:1011C000931DC37700F031FCFFF7C6FC612101716C
:1011D000CA2181720021C172042106F0D9FE72B6C3
:1011E000E07A0007A07A02D5F721084001E0082143
:1011F0000843A07262B610BD20020020640D0020DA
:1012000070B5234DAA7AD20701D00C2434E00146F0
:10121000204C0F220831201D00F007FC207A012805
:1012200003D0A1888A00891800E0332161611A493E
:10123000085C012803D1A17A002900D08120617ABD
:10124000002901D0402108432072607C12498000AF
:101250009C3141180E480422443000F0A5FB72B6C0
:10126000E87A8006A87A02D5DF21084001E0202133
:101270000843A87262B60024FFF76EFC6121017179
:10128000C8218172C472042106F082FE70BD000084
:1012900020020020C00D0020E29C0008F8B5007A72
:1012A0004649C207C87A464B5DD0002572B6012870
:1012B00062B62CD0187A07073F0F72B603F08EFA89
:1012C000064662B6012803D1002F10D0012F0ED0A0
:1012D0003A48443001783A48017000218161374929
:1012E000B000283100900858002802D004E00D25F5
:1012F0000DE0FFF731FC0446002F21D0012F0AD06A
:10130000B02020710021204606F042FE002572B672
:10131000002D21D025E02A48807A002800D0012520
:1013200065733C20A0722649204606220B310E3000
:1013300000F07BFB204606222249143000F034FBEB
:101340006A202071E672012020731C490098283120
:101350000C501B484670D9E718480122817A114386
:10136000817262B61FE072B68A7A520852008A729F
:1013700062B6C00716D15878114A882141437432A9
:10138000515C02290ED000280CD1012010700B4AAC
:10139000002128321068002804D0B02303711160A6
:1013A00006F0F6FD0025FFF7D7FB61210171CC2186
:1013B0008172C572042106F0EBFDF8BD2002002009
:1013C000C00D0020509E000870B50446FFF7C4FB16
:1013D000257A61210171EE2181720021C1720573AC
:1013E000042106F0D5FDA089FB2801D9FB20A081AE
:1013F000E1891148814200D9E081218AFB2906D97F
:1014000088210E4A69438918803189782182618A4E
:10141000814200D960820A49E800401821460C3117
:1014200008220C4600F001FB2B460822142120461E
:1014300003F0F2F970BD000048080000340E0020EF
:10144000B802002070B50446FFF786FB61210171E8
:10145000EC2181720021C172617A11258A08002A6B
:101460000DD1A27A93080AD1237A0D4C002B04D017
:10147000012B0CD0022B0ED106E0914201D0C57297
:1014800009E06170A17006E00029FAD103E0002AAA
:1014900001D06270A270042106F07AFD70BD0000D8
:1014A0003802002010B50949027A0A70427A4A705F
:1014B000807A8870FFF750FB61210171C42181722D
:1014C0000021C172042106F063FD10BD010300205C
:1014D0007047000070B50246067A882022497043A2
:1014E0004418002E37D1907A0025810811D1D17A85
:1014F0008B080ED1527A002A09D0012A13D0022A71
:101500000ED020466030417F8175817F10E0884297
:1015100001D011250DE0214660318875C87508E0BD
:101520000028F8D105E0002903D0204660308175FD
:10153000C175ED21284603F0D5F9002D0BD12046C9
:101540006030817D427F914206D100218175D2B207
:10155000084603F0B7F970BD204633460222162133
:10156000763003F059F970BD340E002010B5134CDD
:10157000A27A520701D00C2414E072B6062201466A
:101580000E480831533000F050FA72B6E07A800607
:10159000A07A02D5DF21084001E020210843A07293
:1015A00062B60024FFF7D8FA61210171C721817268
:1015B000C472042106F0ECFC10BD000020020020E3
:1015C00010B5144C0146E07AC00601D5124801E07E
:1015D00011485C301C3060610A7A2030C2770931D2
:1015E00000F023FAFFF7B8FA61210171CB21817273
:1015F0000021C172042106F0CBFC72B6E07AC0066D
:10160000A07A02D5EF21084001E010210843A07222
:1016100062B610BD20020020640D002010B5007AD3
:101620000F49C207887A72B616D0820707D40D4ACE
:10163000012313709388138102221043887262B6CB
:10164000FFF78AFA61210171CE2181720021C172F6
:10165000042106F09DFC10BDFD221040EEE70000C5
:1016600020020020280E0020F8B5044672B61F4F55
:10167000B87A800762B601D50C262BE01C4D2146B6
:10168000002604220A31A81C00F0CFF9207A6870E5
:10169000A07BA871E07BE8716888164A904200D967
:1016A0006A8068888100401881B26980A888904269
:1016B00000D9AA80A88882008018A880081A6880AB
:1016C000F87A4006B87A02D5BF21084001E04021EF
:1016D0000843B872FFF740FA61210171CD21817290
:1016E000C672042106F054FCF8BD00002002002060
:1016F000280E00203333000070B50546FFF72CFAA2
:10170000044653202071294620461B220831083008
:1017100000F08BF9204606F04BFC70BD7047704717
:1017200010B5FFF719FA0446062207490C3000F0FD
:101730007CF961202071C220A0720020E072042197
:10174000204606F025FC10BD16030020704700005F
:1017500010B5FFF701FA0446252210490C3000F0BD
:1017600023F961202071BF20A0720020E0720421C3
:10177000204606F00DFCFFF7EFF9084904461B224E
:101780002531093000F010F9722020711B202072E1
:101790000421204606F0FCFB10BD0000A8A10008B3
:1017A00010B5FFF7D9F90446082207490C3000F0BC
:1017B000FBF861202071C020A0720020E07204219B
:1017C000204606F0E5FB10BDE8A1000810B5FFF7C4
:1017D000C3F90446082207490C3000F0E5F86120FF
:1017E0002071BE20A0720020E0720421204606F085
:1017F000CFFB10BDEE9C000870B5047A0546002CA6
:101800000FD1B221002003F06DF80C3505220549F7
:10181000284600F0C9F8234605220C21284602F08C
:10182000FBFF70BDDD9C00087047704770470000EB
:1018300010B5047AFFF790F961210171C32181721B
:101840000021C17204730121417388214C43044972
:101850006118497F8173042106F09AFB10BD0000D6
:10186000340E002010B5FFF777F961210171B42122
:1018700081720021C172042106F08AFB10BD7047FD
:1018800010B50D49027A0A70427A4A70C27A8A709B
:10189000427BCA70C07B08710820FFF7ABF90028B3
:1018A00008D061210171B32181720021C17204212C
:1018B00006F06EFB10BD00000803002010B50749BC
:1018C000807A0870FFF748F961210171B9218172AE
:1018D0000021C172042106F05BFB10BD0003002053
:1018E00070477047417A044A89005258037A01468A
:1018F0000B31184610470000309C000830B4427A83
:10190000044B92009B58047A0246817A204630BCF0
:101910000B321847949B000810B505F0B9FD04463A
:101920000079054990380006800D095820468847FF
:101930002046FFF765F810BDF0A100080F4A00200F
:10194000342141438B183433401CC0B253502C28EF
:10195000F6D3342100234843135009482D21426017
:1019600001704370074A1846C10053508918401C43
:10197000C0B24B600528F7D3704700001804002060
:10198000180200203C0D002030B40023002A07D9A3
:10199000CC5CC55CAC4203D15B1CDBB29342F7D399
:1019A000D01A30BCC0B27047002A05D0521E1206B1
:1019B000120E8B5C8354F9D17047002A0BD010B4FF
:1019C0000023CC5C521ED2B25B1C8454DBB2002AD2
:1019D000F7D110BC70477047002A05D0521E12067E
:1019E000120E8B5C8354F9D1704730B40023002A67
:1019F00007D9CC5CC55CAC4203D15B1CDBB2934223
:101A0000F7D3D01A30BCC0B2704730B40023002ADC
:101A100007D9CC5CC55CAC4203D15B1CDBB2934202
:101A2000F7D3D01A30BCC0B27047002A05D0521E7E
:101A30001206120E8B5C8354F9D17047002A0BD02A
:101A400010B40023CC5C521ED2B25B1C8454DBB2B7
:101A5000002AF7D110BC70477047002A0BD010B491
:101A60000023CC5C521ED2B25B1C8454DBB2002A31
:101A7000F7D110BC704770470023002A08D910B472
:101A8000CC5CC4545B1CDBB29342F9D310BC7047EE
:101A90007047002A05D0521E1206120E8B5C83542A
:101AA000F9D1704710B505F0F3FC044600790549FB
:101AB00080380006800D0958204688472046FEF7EA
:101AC0009FFF10BDFCA10008F0B50746C468007A6E
:101AD000882148436D498DB045182846603007F08D
:101AE000B3FB2046143029467031052206460C907F
:101AF000FFF7CFFF29462046583108221930FFF75B
:101B0000C8FFA57A49206946087000208873CD7304
:101B100031466E460D22701CFFF7BBFF00205C496A
:101B2000325C095C514008AA1154401CC0B2102814
:101B3000F5D3104607F07CFB07F050FB1022544908
:101B40006846FFF749FF012069464870787A887037
:101B500008A807F080FB002008AF395C325C5140D8
:101B60003954401CC0B21028F7D3384607F060FB48
:101B700007F034FB01206A46107400219177D0777A
:101B800004A80D2201300C99FFF783FF1022404971
:101B90006846FFF721FF21460B312A4668460C9123
:101BA000FFF777FF08A807F056FB0020395C325C8E
:101BB00051403954401CC0B21028F7D308A807F090
:101BC00037FB07F00BFB08A807F045FB04A807F05C
:101BD0002FFB07F003FB684607F03DFB00202118B0
:101BE000335CCA7A20315A40401CC0B28A70072840
:101BF000F5D360696E46FF220346F17913434B40EB
:101C0000214629310B70030A367A134373404B7017
:101C1000030C6E46767A13437340000E8B701043AC
:101C20006E46B27A5040C870217EF07A41400C98DE
:101C3000203081700020211833184A7E1B7B203110
:101C40005A40401CC0B28A730428F4D30020B077F5
:101C5000F07704A807F0ECFA07F0C0FA684607F03E
:101C6000FAFA0020395C325C51403954401CC0B251
:101C70000428F7D36019042208A92230FFF709FFCE
:101C8000281D2121085565720DB0F0BD340E0020CD
:101C9000509E0008014610B51831083007F0A4FA2C
:101CA000FEF76EFF044661202071D920A07200204B
:101CB000E07220460C3007F0DFFA0421204606F0DF
:101CC00085F910BDF8B5067A8821134A71438C183E
:101CD000214660310D46093007F086FAFEF750FFC5
:101CE00061210171DC2181720027C7720673042112
:101CF00006F06CF9002233460521104602F0A8FDDB
:101D0000284607F0A8FA05480221817169752767FE
:101D1000A7672F752F77F8BD340E00202002002012
:101D200010B510490830097804460A070E49120F09
:101D300051181022FFF750FE21460A4807F054FAC6
:101D4000FEF71EFF044661202071DA20A0720020F9
:101D5000E07220460C3007F07EFA0421204606F09F
:101D600035F910BD540200209E9D0008F8B50446C8
:101D700013300090FEF704FF06461022223000992F
:101D8000FFF787FE009803F049F8257A3046164E93
:101D9000AF00F051FEF7F4FE6221017100214172A3
:101DA000DB21C172042106F011F9009807F053FA03
:101DB000F0592146093116220C460830FFF769FE1A
:101DC00088200A49684340186030407D2B468007D0
:101DD00005D000220A21104602F03AFDF8BD162275
:101DE00003212046F8E7000048020020340E0020BE
:101DF00010B5FEF7B1FE61210171E52181721E214E
:101E0000C172042106F0C4F810BD10B5FEF7A4FE9F
:101E100061210171E42181720121C172042106F066
:101E2000B7F810BDF8B505460746067A8820CA49B6
:101E300070434418F97AC9480C35042240780B00E5
:101E400006F0D0FA190E33323D3D4D51648295A013
:101E500032A5C582F7F7C4F7F7F6F5E1FB32F700D4
:101E60002078562807D1802020707D20025D3146E1
:101E70002A2002F027FD21462046062226310E3078
:101E8000FFF7B3FD00280FD0FEF766FE04466C2076
:101E900020710622E672E91C20460C30FFF7C5FDD2
:101EA0000421204606F074F8F8BD20785628FBD1AE
:101EB000812020706034627F31462A2097E0FEF74F
:101EC0004BFE044655202071394620461A2208311F
:101ED0000830FFF7AAFD204606F06AF8F8BD002298
:101EE0003346062151E0002233460621104602F017
:101EF00093FC387B022803D00122314600207DE08C
:101F0000FEF72AFE67210171867219E020784E28BB
:101F10000ED0562816D028781628DFD16034627F7C
:101F200031461A2002F0CEFC0020A075E075F8BD05
:101F30002270FEF711FE6D2101711A218172C672A5
:101F40000421AFE72270E9E7082285492846FFF718
:101F50002BFD844800784006400F072803D168789D
:101F60004008400068700822334609212CE0FEF743
:101F7000F3FD04466D2020710020A072E672082255
:101F8000294689E7002233460B21002052E02078C1
:101F9000432810D08C280ED0734840780007C6D54F
:101FA000FEF7DAFD04466520207105222046A67260
:101FB00029460B3072E76A49052219392846FFF78E
:101FC000F3FC052233460C21284633E06D1C2078B3
:101FD00043280FD044280DD0562812D02846203848
:101FE000C07F1628A3D16034627F2878314602F082
:101FF00069FCF8BD227028780022314602F044FCCA
:10200000F8BD2270EFE729786A7811408907890FB7
:1020100004D07D22125D9143084001D16034607F7D
:1020200028700222687033461721CDE705E041E0B1
:1020300037E08BE002F0F0FBF8BD29786A781140B8
:102040008F07BF0F1ED022466032917D002900D03D
:102050000F40517F38408843070013D0B94210D059
:10206000B80701D5022702E0F8070AD001272F7030
:102070006F70608B21460830A08502222C31A81C8D
:1020800003E00027042239492846FFF7CEFC3346F7
:1020900004221821284602F0BFFB6034A775E775BB
:1020A000F8BD2E48F100803008183346082215216B
:1020B00002F0B2FB294A0021F00080328718284A3A
:1020C000480008322B5A125A934200D92A523A5ADF
:1020D0002B5A9A4200D22A52491CC9B20429EED383
:1020E0006888298880080E3880B2814202D9802110
:1020F000085501E0802211554008C01F298880B290
:10210000814202D97F21085501E07F200155E888EE
:10211000A98880080E3880B2814202D982210855F0
:1021200001E0822211554008C01FA98880B2814277
:1021300002D98121085501E0812001557F20025DEF
:1021400080346178304602F0AEFBF8BD01220721F1
:10215000384633460B306DE7340E0020380200203D
:10216000F69C00081403002008030020509E00087D
:10217000164AD07929280FD02A280DD0322802D02B
:10218000352821D108E0506AC189D1816030807F33
:10219000012801D1491ED18170B5012090700C4CED
:1021A0000026E670FF2020700A4D6670286800281F
:1021B00004D06868FEF75AFC6E602E600222A11CF3
:1021C000FF2005F0A1FB70BD704700002002002039
:1021D000180F00209402002001480068704700009A
:1021E000D40200204248817800297FD0F8B5C07918
:1021F00028380E2869D201007944097949188F449A
:102200000666660664646464646466060666394E3F
:10221000F1787078814258D002462032914201D93B
:10222000202403E0081A0406240E4ED0324F3178E1
:102230003A68507A431ADDB2937A181A4019C3B239
:10224000A34226D25118C0B20246301D0B31FFF70F
:1022500020FC601BC4B279683868884216D0827A44
:10226000407A0B31101A4019C0B280192246001D65
:10227000FFF70FFC3868817A407A081A201A30700C
:10228000786838600068002800D078606019C4B2AF
:1022900012E051182246301D0B31FFF7FAFB30785F
:1022A00000193070AC4207D1002030707868386077
:1022B0000068002800D07860002C06D02146301D30
:1022C00004F018FE707800197070F8BD0EE00B4C29
:1022D000E0786178401A1028F7DD6A2005F0D6F919
:1022E0001028F2D3102000F0D7FFF1E7704700006C
:1022F00020020020F40E00209C020020180F002075
:10230000F0B5FA4AFA4E507987B0042864D0D06903
:10231000F84947780197456809688D4200D0FDE388
:1023200011460A7AAA180A72007802287DD20D4650
:1023300000287BD0F04F387804F06EFDEC7AA97A53
:1023400020464C406040E872C0070BD0A00609D57B
:102350001C22EA49EA48FFF79CFB0422E949EA48C3
:10236000FFF797FBE87A80070BD5600609D50C22AA
:10237000E649E748FFF78DFBE2490422081FFFF713
:1023800088FBE87AE34A4007400E6872E9893878AA
:10239000091AE981296A4C68201A4860E969002015
:1023A0000870387848607D2141431469CB1755691E
:1023B00009196B41536111613179C906C90E317137
:1023C000D5490B6818180860C878EF2800D81DE2B6
:1023D0000007000FC87019E2D07A937A014658407E
:1023E00043074CD04140D17210791646507102F02B
:1023F00047FCF0690125C04C057021784160306AC6
:10240000FF2101708178317104218170F07A4107D8
:10241000490E7172C10719D01C22B849B848FFF79C
:1024200038FBB8490422081F01E0A0E146E0FFF7AD
:1024300030FBF069B2494570306A4570097A0A0785
:10244000B649120F895C2278891812E0800711D5ED
:10245000AE490C22881AFFF71CFBAA490422081F68
:10246000FFF717FBF06902214170306A4170A849FB
:1024700089884160207804F0CFFC07B0F0BDA54802
:10248000A74C026941691219002302615941416157
:102490003079A149C006C00E307119220868920136
:1024A00080180860C878EF2802D90007000FC870AC
:1024B000FEF70EF804F064FB07B0F0BD022004F054
:1024C000ABFC06F0A5FD9748017AC02001436B20C4
:1024D00005F03CF904F072FDE869934C4678002E53
:1024E00014D0924804F0DCF9042291497A2005F0D6
:1024F00045FA00219B2005F029F9252004F062FB14
:10250000012E53D0022E7DD000BF7FE18948686242
:10251000FF2004F057FBE87900282FD00120FEF7B8
:1025200069FA696A04227A20091D05F027FA686AA7
:102530007521095CA971027F2E30105C06F00EFE39
:10254000686A027F2E30105C205C04F011FB686A20
:10255000027F417E521878498A5C0277083004F085
:102560009FF9686A6030407F02281DD0002004F087
:10257000BFFB04F08BFC02F06BFB47E1696A0320B0
:10258000085604F025FB02F02BFB3220E871E889A5
:10259000801EE881286A4168891E4160E86903213C
:1025A000017002214160BCE70120E0E7544F88211F
:1025B0007878604A414389186962697AC90606D405
:1025C00000285CD102F018F90120787057E0E87912
:1025D000002801D00220ECE00220385604F0F8FA7E
:1025E00002F0F0FB3878554E305C06F0B7FD3878D5
:1025F000305C205C04F0BCFA39784348405C3870A9
:10260000387A00E038E04E4A0607360F9070012E07
:1026100006D0E87A000706D54B484A4CC07E05E054
:102620004A4C0C2002E04B48494CC07ED070901CB4
:1026300004F082FA787A002818D0474804F03EFC6B
:10264000002004F055FB022E12D004F01FFC0B20DA
:10265000E871204604F026FC286A4168891E416022
:10266000E8690321017002214160CFE03B48E5E7C2
:1026700004F000FC0A20EBE7687A800607D404F037
:1026800091FC02F03FFB02F02DFB07B0F0BDE879B2
:10269000002803D00320FEF7ADF9B7E01C4E0A2056
:1026A000305604F095FA02F09BFA3078234F385CEC
:1026B00006F054FD3078385C205C04F059FA0020B4
:1026C00004F016FB707800284AD01420E8711C48EA
:1026D0000C21C17004F0DAFB286A4168891E416050
:1026E000E86902214160032101708FE0200200208F
:1026F000B0020020D8020020CF020020C00D002030
:10270000640D00206402002060020020280E0020DA
:102710001C0E0020A0020020D4020020E79C00082C
:10272000400D03006C100020791000205C02002096
:1027300058020020340E0020349D0008D09C000870
:10274000F40E0020DC0D0020E00D00206F0D0020B5
:10275000800D0020840D00206D0200201603002053
:102760001520E87104F086FB02F0A0FA4EE0FD4966
:10277000FF287DD00D46032812D1012004F04CFB28
:10278000F9480078662817D0F848407A8106890E03
:10279000772004F0B7FFE869012141600221017050
:1027A000E8694078002812D001287DD002287CD02A
:1027B0000920FEF71FF929E0EC483179407A05221B
:1027C00001433171EA49732005F0D8F8E3E7E8796D
:1027D000323806286AD201007944097949188F44B1
:1027E0000A02020A1CFDE889401EE881286A416845
:1027F000491E416008E0296A4868032807D0EA8931
:10280000401E521EEA81486000F024FD25E204F0DB
:1028100031FB06F0FDFB3620E871D24D286A406896
:1028200004F0FAFAE8698078009002F03FFAED8946
:1028300002F000FA0646CF4800270290C948406AD5
:10284000014680318A88438A9A427AD2CB887D2198
:1028500009028B4275D20178802919D1418B828D72
:10286000C919914214D106210170018CC18300E085
:1028700040E2818C06224D19014626310E30FFF7C9
:1028800008F9B848406A2030C078A84200D9054607
:102890000098042856D2C100B7480818B149086208
:1028A00041688C46A94202E0ECE0E7E1E8E041D370
:1028B0000178022916D2B1490B78F218D11CA9422D
:1028C00010D2AC1AA74AE41ED1817100CE18516A09
:1028D00027360A78022A01D1C97A8E196146491B26
:1028E000B14275D89F49496ACA890B785519CA8B74
:1028F0005E0608D5029E9B5D002B04D00E468036F6
:10290000F3889B18F3800B4680339E88B2189A8018
:102910000A7F4B7ED3189A4AD25C0A779149CA6AD9
:10292000096B52188F49CA629649C978891C7F1C65
:10293000CEB2FFB2817800918A4A4168D0616D1AA7
:102940007CE745E08D48007831180831A94202D370
:10295000291A08398EB23118C91CA94225D3814ED3
:10296000716ACA890B785519CA8B5C0608D5029C16
:102970001B5D002B04D00B468033DC88A418DC8060
:102980000B4680339C88A2189A800A7F4B7ED3180E
:102990007B4AD25C0A77F26A316B52187949F2624B
:1029A000C978891C7F1CCEB2FFB231186C1A6D4BEE
:1029B000C91CD98171000818273086B2586AE41EF4
:1029C0000178022902D1C07A801986B27F1CFFB239
:1029D000644D686A01468031CB8800E047E07D2283
:1029E0001202934205D33721E971222120308170F0
:1029F000FCE38988428A914226D2418B5E4BC919F9
:102A00004183E96928798870C000C0180121E86114
:102A1000017044608078C000C018286281782971F4
:102A200000998170FF2146600170E9690198487042
:102A3000296A01984870019801F026FE686AE989C0
:102A4000C0894018E881CFE33721E9710178022974
:102A500005D0422907D0082120308170C4E33E21EF
:102A600020308170C0E3222120308170BCE3286ACD
:102A7000406804F0D1F902F019F902F001F9B5E368
:102A8000062096E6E8790C287ED00E2806D00F287E
:102A90007BD0296A4868012878D0FFE0286A2E4652
:102AA000406804F0B9F9F0698078009002F0FEF80F
:102AB000706A002183898181DB1D02F0BBF82F49F8
:102AC000002209780191273103912649096B02916F
:102AD0002449496A0E468036B4466546AD88069557
:102AE0004E8AB5427ED2009D042D56D2EE00224D74
:102AF00075191C4E35626E6805969E4230D32E784D
:102B0000022E15D2019E86190496F61C9E420FD203
:102B1000049C144F1C1BFE81CE7A00E079E3400038
:102B20003018039EE41E8019059EF61A864262D86C
:102B3000C889CE8BC31806980A4F80196646B080A4
:102B4000087F4E7E86190E48805D0877F86A029EDF
:102B500086190C48FE62C078801C521CC0B2D2B2EA
:102B6000AE7814E020020020140300206C10002036
:102B7000B00200208E9D00081C100020CF02002013
:102B8000349D00084C0200206DE067E073E0009681
:102B90006E689B1BFE4EF5619FE7019C0419E41CC7
:102BA0009C4218D3C889CD8BC31860468088F84CE6
:102BB00040196546A880087F4D7E4519F548405D5F
:102BC0000877E06A029D4019E062F348C078801CF3
:102BD000521CC0B2D2B2019C05195C1BEC4BED1C1F
:102BE000DD8100E007E0CB7A40001B180398521CFF
:102BF0001818D2B2E41E6546AD884E8AE44BB54241
:102C000025D24D8BAA184A83DA6919799170E34D60
:102C1000C90049190122D9610A704C608978C9003C
:102C2000491919628C781C71009C8C704860FF20D7
:102C30000870DB48DC69417861701C6A417861701A
:102C40004270586AD989C0894018D88101E00120B2
:102C5000087002F015F80F20D871C7E2286A4068A2
:102C600004F0DAF807E0296A4868012816D104F070
:102C700001F906F0CDF902F019F8B7E2E879143855
:102C8000052835D201007944097949188F4402FD9D
:102C900016161600296A4868062804D0401E4860A7
:102CA00000F0D8FAA2E204F0B7F804F0E3F806F076
:102CB000AFF901F0FBFF1820E87197E2286A446839
:102CC000062C12D0072141600846E41F04F0A4F846
:102CD00001F0ECFF286A002802D041680919416020
:102CE000B04801890919018180E200240620EDE73E
:102CF00007205EE5A648002FC0790ED0012F37D0FF
:102D0000022F7DD00C20FDF775FEA14C0020E07154
:102D100004F03EF9002874D08EE19D4933280CD090
:102D200006DC282809D02B2807D02D281BD108E045
:102D3000342802D0372816D103E00A20FDF75AFEC6
:102D400013E0486A20308478FDF71AFFC472877256
:102D500063210171042105F039F9384601F08AFE3A
:102D6000384601F049FD01F0A1FF01F0BBFFCCE7BF
:102D7000874C0D2802D00E2805D101E000BF02E0EB
:102D80000B20FDF737FE607AC0067DD58448007AB7
:102D900001078548090F415C84480078801C0818A9
:102DA000C1B27B48C06984782646042C25D27C4871
:102DB000007884467A4843697848E2001018744ADB
:102DC00010620278022A0ED242688A420BD3521A4B
:102DD0006746002F03D06E48006A42600DE0704FD6
:102DE000BF69BB42F7D36A4A84786D4FD061BA6934
:102DF00040681018B861042CDED3654F3A7901E0C1
:102E00007DE017E1F869891E82700122027038792D
:102E1000C9B2C20061481018386283783B7184706F
:102E2000012241604270FF220270042C16D1042E50
:102E300014D15B4A5069332809D01378002B08D08D
:102E4000FF22413290420AD35022551A07E0112244
:102E5000FBE79269904201D9851A00E001254C48B0
:102E60004F4FC06969184560B8694018B861387833
:102E7000002807D17869332801D00020B8614C4878
:102E800000783870052101E02AE085E1B869C902BF
:102E9000884217D37878474D80002858042105F0E0
:102EA00095F879780020890068503948EF22417AF6
:102EB00011404172C17A49084900C172817A4908BA
:102EC00049008172042E05D0A64203D030484671D5
:102ED00001F0D6FE2E48C069406803F09DFF14E75C
:102EE0002F4C6078002803D101F086FC012060702F
:102EF00004F058F801F0DAFE01F0F4FE05E7244C86
:102F0000152801D0172801D106F082F8607A8006D2
:102F10007ED524480089122803D32249801C498881
:102F200001E014200021E26995782A46042D25D27B
:102F300067791A4BD600F31823621E78022E12D23C
:102F4000184E76888E420ED85E68142E0BD35E68BB
:102F5000864204D0361A761C801E5E600EE0B01EDB
:102F600001265E600AE09A78142801D15B6859183E
:102F7000E669042AB270236A9F70DAD3042A02D168
:102F8000042D30D01220074F7B888B4215D913E0D7
:102F900020020020349D00084C0200201C1000205C
:102FA000640D00201C0E0020E79C0008CF020020CA
:102FB0006002002048020020591AE36926799E70B9
:102FC00001261E70491C59602179CB00954959187A
:102FD00021628B7823718A7048603E89864205D9C8
:102FE000301A38810CE090488088CCE7B888388166
:102FF0003B788E48185C3870002801D10120387069
:1030000002204870FF200870042D06D0954200E091
:1030100008E002D0657101F033FEE069406803F01A
:10302000FBFE72E680480021017001F03FFE01F0D6
:1030300059FE6AE605F0ECFFE0690178022924D226
:103040004078002821D17A4E35466035687DA071E0
:10305000800715D0314618225831832004F08EFCA9
:10306000287F8021084328773146052278317E2049
:1030700004F084FC04F0C0FC287F4006400E287752
:10308000A0798007800F03F0FDFBE069406802280B
:1030900001D2FFF7FAFAE07AA27A014650404207DD
:1030A0007AD04140E1724907490E6172C10748D0A8
:1030B0001C2260496048FEF7ECFC04225F4960482E
:1030C000FEF7E7FC607A1021084360725A48007AE4
:1030D00001075C48090F415C5B480078801C0A18B6
:1030E000206A8178042912D24E4DC800401920620E
:1030F0000378022B07D24368934204D343689B1A98
:103100005B1C436003E08178E0610429EDD3E3694F
:1031100020799870434DC00040190123E06103708D
:1031200043608078C00040192062857825718170E5
:10313000921EFF2142600170E0694370206A437073
:1031400052E0810752D5400609D540490C22881A21
:10315000FEF79FFC39490422081FFEF79AFC607AAB
:10316000202108436072304D206AAA888178921C21
:1031700004291AD22B4EC800801920620378022B32
:103180000FD24368142B0CD34368934205D09B1A8B
:103190005B1C921E436008E028E09A1E01234360F6
:1031A00003E0E06181780429E5D3042900D11222EB
:1031B000E369207998701B4EC00080190123E061FB
:1031C000037043608078C000801920628378237187
:1031D000817042602989891A2981FF210170E16982
:1031E00002204870216A487001F04AFD184C60794D
:1031F000042800D14DE7E0694068032801D3FDF7BA
:1032000067F9E06940685028F4D903F0B9FC07B0C9
:10321000F0BD8D4202D9691A416000BF00BF07B0FE
:10322000F0BD00001C1000201C0E00209A9D00081C
:10323000340E0020C00D0020640D00206402002028
:1032400060020020E79C0008CF020020280E00202A
:103250002002002010B40D487D2402694169121932
:10326000002359410261416109480179C906C90E2B
:10327000017108490868401C0860C878EF2802D925
:103280000007000FC87010BC70470000A0020020AB
:10329000B0020020D4020020002871D0F8B5044606
:1032A00090488F4F0578384603688E48061D42784F
:1032B000C0789119FF2D04D0904201D9002B08D17C
:1032C000F8BD002856D0002A08D09042F8D9002B2B
:1032D000F6D02246FF2004F017FB42E00090FDF7F5
:1032E0005FFC0546786028007E4828D0407822465A
:1032F0008119FF2004F008FB7822292100203D607D
:103300002A7168722872009B002B06D0292B1AD9CB
:10331000A972009B293BDBB200932D68002DEED1F2
:10332000704DA9788907890F012910D06E4B7A68F2
:103330001A607968096800290FD059600EE0C178D9
:10334000417000201AE0AB723D602860E8E76648F3
:10335000396801607968416001E05A602870002C8A
:10336000AED004F049FB2546292C0AD92824283D53
:10337000EDB208E0002AF4D1002078603860F8BD92
:10338000ACE02C46002557480078FF283FD0564B2C
:103390001A68917A507A814236D0091ACFB201194F
:1033A0002929504949787DD90B30101889193A4696
:1033B000FEF76FFB4C480168487AC01948724A48CA
:1033C0004068814210D0E11BCAB2009145493F1DBF
:1033D0004B780B305918C919434FFEF75AFB7868E0
:1033E0000099427A511841723F490868827A407ABE
:1033F000824205D14868002802D008600068486011
:103400003848417809194170002DADD1F8BD3748D1
:103410003749C0694078C00042185268002A4AD033
:103420000858827A2F4841785018C0B20219292AC8
:1034300008D22D4A0B301268891910182246FEF75F
:1034400028FBDDE729281CD22922274B171A1B68E5
:103450000B30FAB289191818FEF71BFBE01BC0B23B
:10346000009020483F1D4178009A0818C1191E4855
:1034700040680B30FEF70DFB1B4900984968487205
:103480000CE0201A2930C7B21748891940683A461B
:103490000B30FEF7FEFA144840684772124948683C
:1034A000002800E00FE002D00860006848600D4886
:1034B00000210170A4E70A4F7868FDF7D7FA0020D1
:1034C00078603860A0E70B3010188919064F224643
:1034D000FEF7DFFA3868417A091984E7704700007F
:1034E00094020020180F0020A402002020020020D7
:1034F0008C020020F8B50026164D84002859374666
:10350000002817D0017A00291FD0427A8A4205D9B3
:10351000D1B2027A891A417207720BE047720772C0
:1035200001682951002907D0FDF77AFA2859017A54
:103530000029E5D1002E0CD00179E62903D0EF292E
:1035400005D0F02905D1422102E00020F2E7032155
:103550004172F8BD30020020F0B5F94D83B0E86942
:1035600041782846C079002907D0B026012979D0B2
:10357000022978D000BF03B0F0BD0026F049AE703C
:103580000A6A0124EF4F496A322806D033286BD0EB
:1035900034286AD0352869D10EE0B8786B461870A7
:1035A000F87858708320EE62405CC98B8300E6484F
:1035B000C0584143002429631521104600F03EFC09
:1035C000002852D1002C04D0B87869460870F878E9
:1035D0004870686A0C21C47A0C400178022908D12D
:1035E00004210170014680318E80CE80418D0024FF
:1035F000418203F05CF9D249002808701CD00322F4
:10360000D249A62004F080F968460078D04F000720
:10361000850F20462843385C410643D568464078EC
:1036200000283CD06A2004F031F8FFF735FEC94885
:10363000406800282BD032E0C748FB218470C1705D
:103640000025801C03F078FABD4AC44FD069407849
:103650008300F85800280AD0017A002907D00672A2
:103660000068F7E7A8E1EEE25BE164E1A0E1506AFF
:10367000FF58C4723420D071B648016800297DD04B
:103680004068FDF7F3F9B348466006607BE06946A1
:103690000878EF21084069460870B148455D2C4321
:1036A0003C5D00E00446A6493422486AC472CA71EF
:1036B0006A461278D20601D53322CA7101780629EA
:1036C00003D104210170418D4182A348FB21847004
:1036D000C1700025801C03F02FFA20069848C069AD
:1036E00040782DD5FFF706FF07469548C06940781A
:1036F00081009A484158084638431AD0002907D11A
:103700007D7A20200543F87A01903846FDF788F944
:103710008B488179C9070CD0002F0AD0406A016F0D
:10372000491C016705D16030017D491C4906490EDD
:1037300001758348C069407801F0E2F807460BE064
:10374000864A81005058002805D0037A002B02D009
:1037500006720068F7E75758600614D56846407847
:10376000002810D07648817989070CD5406A816F8E
:10377000491C816707D16030017F00E003E0491CEC
:103780004906490E0177002F24D06D4F3878002864
:1037900010D0F86973494078C00041184968002981
:1037A00004D1714940184068002803D01020044318
:1037B0003320F871F8692146407800F035FD002883
:1037C00035D1F869407881006448405800282ED0EF
:1037D000342026E001202043C1065F48C90E8170D5
:1037E000C670801C03F0A8F9554F786A028A002A37
:1037F0001DD08189914219D2620614D56946497853
:10380000002913D1210603D48421095A00290DD09F
:1038100005F0FEFB786A8189491C818180308680B1
:103820003620F87103E00029F2D100E08681A80675
:103830003727002842DAE84380070DD068063DD5D7
:103840003F48C0694578FDF79BF964210171857295
:10385000042104F0BBFB31E0394D686A017804298A
:1038600005D1424A0199515C017086210E5201999D
:10387000022906D006290DD00B2910D00C291AD107
:1038800014E005F0C5FB696A162020318870EF71DD
:1038900003B0F0BD53210E54042101700BE002214E
:1038A0005322115406676030067504E001788C29B4
:1038B00001D104210170E8793728E9D0204D28781A
:1038C0000028E5D0600623D56846407800280BD054
:1038D000A879800708D59B2003F0A4FEC0060BD56D
:1038E00068460078800707D0E8690099407800F0C2
:1038F000CBFAB02809D00BE0686A3D2120308170F6
:10390000EF7105F085FB03B0F0BD05F081FBEF71B1
:10391000686A8030868003F015F8696A487703B0DA
:10392000F0BD4031C87C002805D12621104600F0AA
:1039300085FA00281CD005F06BFB36207AE20000E7
:1039400020020020180F0020149D0008D102002042
:10395000BE9D000894020020F40E002030020020DA
:10396000D49C00087C02002084020020029E0008F3
:103970003520E871A879800713D5696A8023084645
:103980006030027F78311A43027705227E2003F0EF
:10399000F5FF04F031F8686A6030017F4906490E8E
:1039A0000177A8798007800F02F06CFF03B0F0BDAB
:1039B00005F02EFB03B0F0BD0F240A2807D00B281A
:1039C00008D00C280AD00D28F4D105F021FBEC71A9
:1039D00003B0F0BD0C20E87103B0F0BDF848C4712D
:1039E00002F065FF0028E3D002226946FF2003F0C1
:1039F0008BFFF44F387A05072D0FFDF7C1F8044609
:103A000001900834067122222146FF2003F07CFF3A
:103A1000684600780007000F03287DD005287CD178
:103A200005F0F6FA002D02D0012D0DD0FEE0B87C95
:103A3000032801D0022818D168460078019903F0C4
:103A4000E3FA002869D110E0684600784006387A29
:103A500002D4000661D401E000065ED50622DA49F0
:103A60002046FDF7D2FF002857D16846007801991B
:103A700003F0B0FA002850D1D248D44945786846BE
:103A80000078400604D50120AA008A58507303E04C
:103A90000020AA008A585073CC48AF00C059214674
:103AA000062216311430FDF7F4FFC8490020C95929
:103AB000264688722036707806224109C348C059CC
:103AC000817670784109BE48406A8030C170BF4835
:103AD0002146C0590E30FDF7DCFFBC480421C05917
:103AE00004F074FAB9490020C851B548C0780028DC
:103AF00002D02839401EC870B14F2146786A15227D
:103B00000C31001DFDF7C5FF786A2522B0492E3023
:103B1000FDF762FF002001E04BE087E0F862786A81
:103B200003468033D9788A00AA498958C28B4A4310
:103B30003A63E17C0A225143CAB2C27271780A2404
:103B4000C906C90E41767178C906C90E01770221EE
:103B50000170818961438181418AC9004185C189A0
:103B6000C1838C009C800A23594389B21346C181CA
:103B700008334182994201D1223AC272FDF700F81E
:103B8000E92101710572002104F020FA8D48796A5B
:103B90008078C870787AEF2108407872F87A400807
:103BA0004000F872B87A40084000B8720E20F871F0
:103BB0003CE0002D01D0062D38D103F01DFFB87C6C
:103BC000012801D0032806D168460078019903F046
:103BD0001BFA00282AD168460078019903F0FAF907
:103BE000002823D1387A764D010909017A48091D48
:103BF0008170E97AC90605D57849794CC97E891D55
:103C0000C17004E077496F4CC97E891DC1703C3496
:103C1000801C02F091FF787A002812D0724803F0DD
:103C20004DF9204603F03EF90D20E871002101987E
:103C300004F0CCF96248C0790F2800D1B8E603B08F
:103C4000F0BD6A48EBE71821694C142827D01528E5
:103C50007ED016287DD01728F1D1E97105F0D8F96A
:103C600002F025FE0028EAD05820FCF7CBFC002803
:103C7000E5D102226946FF2003F046FEFCF780FFF3
:103C800001460446067125220831FF2003F03CFE60
:103C9000684600780007000F04287DD1C0E0E97174
:103CA00002F005FE0028C9D05820FCF7ABFC002824
:103CB000C4D102226946FF2003F026FEFCF760FF14
:103CC000014606710746083125220E46FF2003F003
:103CD0001BFEE079002810D003F08EFE68460078C5
:103CE000394603F091F9002807D005F091F9002139
:103CF000384604F06BF903B0F0BD69460A7800203D
:103D00001107090F0DD0012908D0022906D0062974
:103D100007D005F07DF9002138466BE005F078F911
:103D20001CE0510600D58020A179002901D0402156
:103D300008430321084328498870881C02F0FCFED0
:103D4000A07900280FD0284803F0B8F8162001E029
:103D50000BE06CE0E871304603F0A4F839460098B7
:103D600000F0F4FFD7E72148EEE7E97105F050F9DC
:103D700002F09DFD0028BED05820FCF743FC00282F
:103D8000B9D102226946FF2003F0BEFDFCF7F8FE20
:103D900005460671252200E046E001460831FF2075
:103DA00003F0B2FDE079002828D003F025FE684634
:103DB0000078294603F028F900282ED11EE00000E3
:103DC00020020020640D00206F0D0020480200201A
:103DD000349D0008149D0008F40E0020000E002001
:103DE000C00D0020A40D00206D020020160300204D
:103DF0001C0E002004F0EAF803B0F0BD684600781D
:103E00000007000F05D0012803D0022801D00628A2
:103E100003D12946009800F099FF00212846E9E7E0
:103E20002146009800F092FF00212046E2E703F0CF
:103E300021F81720E87103B0F0BD000010B4104C59
:103E40008378626AD289520912325218042B0CD23A
:103E5000D9000C4B4468C9184B68091D1B199342C3
:103E600006D99B1A0B60426006E0E389934202D2B6
:103E700010BC01207047416010BC0020704700005A
:103E8000200200201C100020F3B50804070E88074C
:103E900081B0800F00900198DA49C0004518DA48D7
:103EA000416A5320465C002E0FD00098012804D0B0
:103EB000022802D0032845D107E0002F05D03D207D
:103EC00020318870B02003B0F0BD6A68002A1FD08E
:103ED0000098012802D002281AD10DE0002F19D134
:103EE00000211046837A00685918C9B20028F9D118
:103EF000D07A001D88420BD1019810726968712038
:103F000008710421686804F06FF800206860286078
:103F1000002F71D0BD484468002C13D000980328AE
:103F200013D0022821D07820B84920710B68002BCB
:103F300071D0286800286FD0597A2926B44F0029FB
:103F40006BD105E1B02003B0F0BDE7202071A7726E
:103F500001982072E17A19290BD8AE487F1E405C87
:103F6000874204D1AC48415C02E07120DCE71A21B1
:103F7000E172A54D686A0278530616D5A74BD75C47
:103F800004238F4201D1037008E0072906D00D29D0
:103F900004D0112902D0172910D103E00022862372
:103FA0001A520BE0562AEED008E0192906D89C4B8D
:103FB000042A5A5C16D0042A00D00270192973D240
:103FC0000A007A441279921897440E0E4E545C6C93
:103FD00065AC77776F72B48077ACAC80ACACACACCE
:103FE000ACAC8A000270E9E7002E06D03D212030FB
:103FF0008170B02020719DE0FDE000290ED02146A7
:1040000005220C311430FDF744FD2146686A022276
:1040100011312C3006E0E9E0F0E09FE021460B2270
:104020000C312330FDF735FD686A818D428B91425A
:1040300003D0891A7B4A914205DB28212030817008
:10404000B020207176E0C18C024601842032D37802
:104050000A267343D370828C714372438284C18475
:10406000418DC900418565E0217B20308170B02001
:1040700020715FE00221A971002E5BD10121403047
:10408000C17457E001214422A9710270002E51D160
:104090004030C1744EE02673A979C943890701D124
:1040A0004030C174032001E03CE00120A87141E0F0
:1040B000002181676030017710E0217B2D221140C3
:1040C0004170617BC907C90F817033E001784329D2
:1040D00001D044292ED100214030C174A97129E0BA
:1040E00098210170214602220E312C30FDF7D1FCBF
:1040F000686A818D428B91429FD0891A494A9142C8
:104100009BDA217B627B11408907890F1CD06030CC
:10411000437F8B4203D08275217BC17502E0002171
:104120008175C175002E05D0696A3D2020318870E7
:10413000B0202071686AA9796030417500BF002104
:10414000204603F051FF51E0002160308175E4E723
:1041500039688B4202D17A6891420BD0827A9918E1
:104160008018B21AD2B20B300B31FDF792FC2868DE
:1041700086720EE0827A80189B188A7A19460B3173
:104180000B30FDF786FC28683A68817A927A8918A4
:1041900081721E4E7068417A002925D03068417ABC
:1041A000002915D13968884212D0FCF739FC3868EB
:1041B0003060427A3946292A08D14A68002A05D057
:1041C0000260786800213060016001E00021016038
:1041D0003068417A827A914200D081722968706891
:1041E00008603068286001E0FCF740FC07480021C7
:1041F00041600160277903B03846F0BD48686860C7
:104200000868EFE78C0200202002002094020020C2
:10421000A4020020369E00081C9E00088E9D000807
:10422000E89D0008FF7F0000F3B581B00198B24916
:1042300080000090B14E0958316071600879E6281D
:1042400010D0EF280CD0F02812D00024AC48406ADF
:104250008030407802091201821A012A0AD00BE04C
:104260000324F3E7487A8A7A904201D10224EDE7E9
:104270000124EBE7401EC0B2029AA24D2243D206AF
:10428000D20EAA700022EA70012C0CD0022C0AD0A7
:10429000032C3ED1887A0872E8708A7A281D0B3187
:1042A000FDF7F7FB1CE00B7A4A7A1F18974206D2FB
:1042B000DAB212180A72E9780818E87010E00028DB
:1042C0000ED0D21AEB78801AD218EA704A7A0A72A3
:1042D0000A68C0B2002A03D0316009687160E2E761
:1042E000E878102815D90007000F012811D170684F
:1042F000027A092A02D3093A027207E031680927D3
:104300000B7ABA1A9A1A0A7200210172E8780938EF
:10431000E8707A49002009680E460A7A4B7A9A4278
:1043200002D29A1A1018C0B2072823D809680029A7
:10433000F3D100281ED0072802D80821081AC0B2DD
:10434000E978091A102905DD0907090F012901D1AA
:10435000401CC0B269494A68117A814201D3091AE6
:1043600004E0337A411A591A317200211172E97846
:10437000081AE87060490098EF780E58202F00D98D
:1043800020276F7000255D480660327AB07A717A16
:10439000BA4213D2401A81195A480B314019001DF4
:1043A000FDF777FB307A391ACFB24119CDB25549B2
:1043B00008703068002810D00646E4E7401A8119DA
:1043C00050483A464019001D0B31FDF762FBB07AA8
:1043D000717A401A4B49C0190870484A1660306813
:1043E000002807D04749B57A0B78AB4202D110605C
:1043F0000020087010680168002901D0516000E0B9
:1044000050603F4DA879C00705D0696A05227E201B
:10441000703103F0B3FA3A4DA8798007800F02F0AB
:1044200031FA696A0A466031087D4006400E087517
:10443000A879C30737D0497F022934D1314FF978A1
:10444000072930D8354620356978002903D0116F07
:10445000726991421BD000213172029801221043EF
:104460000207120FBA70F970B81C02F065FBFCF776
:1044700087FB59210171204A00995158C160019967
:104480000172447203F094FD002003B0F0BD0221DC
:10449000084002F0F7F96A78FA7031467A702231F2
:1044A000381DFDF7F6FA3E2003F0F0F84021164CD7
:1044B000084020700DD01248C189491EC181006A90
:1044C0004168491E4160FEF7C5FE21783E2003F099
:1044D0003DF90C4CA01C02F02FFBE078002806D020
:1044E0006178201D02F0F6FC054901208870024920
:1044F0000098085803B0F0BD300200209C02002054
:1045000020020020F40E0020C90200208821484328
:104510000349085C022801D200207047012070473F
:10452000340E0020F7B515460098FFF7EFFF00287E
:104530000CD02846FCF75EFB060007D00020072DB4
:1045400001D821218855344600271BE00120FEBDFB
:10455000292D03D32922293DEDB201E02A46002569
:10456000F0202071A2726272002020720198C1199D
:1045700020460B30FDF759FA2068002802D0293771
:104580000446FFB2002DE3D1E620307172B60098E8
:10459000FFF7BCFF00280BD000980949C000401865
:1045A0000168002909D00E60046062B60020FEBDDB
:1045B0003046FCF743FA62B6C8E74660F4E700000D
:1045C0007C020020F8B515460F460646FFF79EFF11
:1045D000002824D0FCF7C0FA040020D00020072DCA
:1045E00001D821210855E6212171A572657220723A
:1045F00020462A4639460B30FDF717FA72B6304688
:10460000FFF784FF00280CD00A49F0004018016829
:1046100000290CD00C60046062B60020F8BD0120B7
:10462000F8BD0021204603F0B3FC62B6F7E7446012
:10463000F1E700007C020020F8B515460F4606465B
:10464000FCF79EFA040019D00020072D01D8212183
:104650000855E6212171A5726572207220462A460E
:1046600039460B30FDF7E1F90649F00040180168C2
:10467000002905D00C6004600020F8BD0120F8BDC1
:104680004460F8E77C02002070B51D4D04466A6A5C
:10469000508B918D884232D91078042341280CD058
:1046A0002946496A6031582810D0812805D09828B9
:1046B00025D1887D002808D008E01370FCF760FA47
:1046C000E92101710472002117E013701370887DD5
:1046D0000026002804D04877C87D88778E75CE756F
:1046E000FCF74EFA742101718672C472696A6031F6
:1046F0004A7F0273497F4173042103F067FC70BD58
:1047000020020020F8B530490120487002F0DAF8A4
:104710002E48552600782E4D66282BD03E2002F0DC
:10472000B5FF3040044672B601463E2003F00EF855
:1047300062B6600605D572B6FDF754FDFDF7E0FDE3
:1047400062B6E00703D072B6FDF712FD62B6142020
:1047500004420ED0600706D51E48017AC0200143EE
:104760006B2002F0F3FF72B600202870FEF7F4FE13
:1047700062B6F8BDAA273E2002F088FF0446384200
:10478000F9D1344072B614490AD02046BF222C70A9
:10479000104000D0087021463E2002F0D7FFC7E746
:1047A000287842060ED54028C2D10878012805D0C5
:1047B000042805D01028BBD10424B9E71024B7E79A
:1047C0000124B5E74024B3E72002002014030020B1
:1047D000C90200206C100020CA02002005490020F8
:1047E000882242438A5C012A03D0401C0006000E46
:1047F000F6D07047340E002070B5064D840028595D
:10480000002806D0B0210171002103F0DFFB002059
:10481000285170BD48020020FFB581B01E461546E4
:104820000F46FCF799F90446E82020712672681CAF
:10483000E772A072002D05D020462A460C3001995F
:10484000FDF7F3F80021204603F0A2FB05B0F0BD10
:10485000FFB581B01E4615460F46FCF791F9044698
:10486000E82020712672681CE772A072002D05D026
:1048700020462A460C300199FDF70BF9002120460D
:1048800003F0A4FB05B0F0BD70B514460D46064616
:10489000FCF762F96621017146728572C4720421C7
:1048A00003F076FB70BD70B514460D460646FCF766
:1048B00053F97321017186728581C481042103F04B
:1048C00067FB70BD70B514460D460646FCF744F90B
:1048D000742101718672C57204734473042103F05C
:1048E00057FB70BD70B50C460546FCF735F96221E3
:1048F00001714572C472042103F04AFB70BD0000CF
:1049000030B4224C8300E158002200293AD1214DD5
:10491000C1006D6A1E484035ED7C0818002D13D08B
:10492000416800292ED0C97AC91E0F2915D20D0061
:104930007D442D796D19AF4412121212101010120D
:1049400012101210101012004268002A07D11248EB
:1049500008184168002902D114E0002A12D04168E9
:10496000E1504268116804E00D79F02D04D10A4647
:10497000096841600029F7D1002111604268002ACE
:1049800000D10160E05830BC7047000030020020C8
:1049900084020020200200207C020020F8B5074697
:1049A00088202E49784346182D48FD0028180822F3
:1049B0002C49FCF7F9FF88222B493046FCF7F4FF1D
:1049C00072B60121304631706030417781771B210A
:1049D000C177803631707170B170214EBA00883E57
:1049E000B058224B224F00280ED01978491C19705C
:1049F0000168002902D00800F7D105E0396801609C
:104A0000B05838600020B05062B60020002804D0B2
:104A1000012805D0022806D11DE011493C3901E0EA
:104A20000F4934396C1872B62668002E0DD06168B3
:104A30001A78521C1A7009680029F9D13968316056
:104A40006168396000216160216062B6401CC0B2BB
:104A50000328DBD3F8BD02492C39E3E7340E0020EC
:104A6000B8020020FE9C0008509E0008180200209A
:104A70001C020020F8B507468820304978434618C4
:104A80002F48FD00281808222E49FCF7A5FF882290
:104A90002D493046FCF7A0FF0121304631706030CF
:104AA000417781771B21C17720300170417081707F
:104AB0002649BA00C878274B401CC870244988583A
:104AC000002810D00F461978491C19700168002978
:104AD00002D00800F7D106E01F490E680660BE58F4
:104AE0000E600021B9501D480021281884461C483A
:104AF0002F181C482E18002904D0012904D002299F
:104B000005D103E0644602E03C4600E034462568F7
:104B1000002D0ED060681A78521C1A7000680028A8
:104B2000F9D10D4A1068286060681060002060604C
:104B30002060491CC9B20329DDD3F8BD340E002022
:104B4000B8020020FE9C0008509E000820020020B1
:104B500030020020180200201C0200207C020020ED
:104B6000840200208C020020F8B506461436054663
:104B70002E3500231C461846315C0122114202D01A
:104B80002B55641CE4B25B1C52001206DBB2120E01
:104B9000F4D1401CC0B20528EED3252C0DD0252021
:104BA000001BC2B228192946FCF73FFF03E0641E30
:104BB000E4B2285D2854002CF9D1F8BD10B502F0FC
:104BC00067FC044600790549B0380006800D095895
:104BD000204688472046FBF713FF10BDF49E0008CF
:104BE00070B5104EF47A40252C432146792002F00E
:104BF000ADFDF4720C49012008730C48007866285A
:104C000005D0717A7720294302F0A0FD70BD0849D4
:104C1000727A08791043284308710522732002F044
:104C2000ADFE70BD6C100020200200201403002097
:104C3000B00200200448026BC16A8918C1620348AF
:104C4000C078801CC0B27047200200204C020020B7
:104C50000948406A0278C18B53068030002B06DA7F
:104C6000064BD25C002A02D0C2885218C2808288C9
:104C70005118818070470000200200208E9D00089E
:104C800008494879042809D0074AC0008018C8613B
:104C90008078042803D0C000801808627047002084
:104CA000FBE70000200200201C1000200B4AD16905
:104CB000137988788B705179117100215071042813
:104CC00009D0106AD0618078042805D00449C0005A
:104CD000401810627047D1611162704720020020B5
:104CE0001C10002010B506484179042904D0C06981
:104CF000406802F091F810BD19208001F9E700002A
:104D00002002002030B40F4A116A137988788B7022
:104D1000537913710023507104280FD00A4CC0003E
:104D20000019D06145684968691841608078042895
:104D300005D0C0000019106230BC7047D361136207
:104D400030BC7047200200201C10002070B50E46B9
:104D5000054603221A49A62002F0D6FDFBF710FFF4
:104D600004466B20207131462046062208310D3062
:104D7000FCF78FFEE8B2410601D5012100E00021D9
:104D80000007000F2173E072012816D0A804800EDE
:104D9000801FC5B2E574002D06D0314620462A4654
:104DA0000E311430FCF775FE01F0CCFD6119087569
:104DB0000421204603F00AF970BD0025EAE700004F
:104DC000D102002070B5114DEC7ABF20044021467D
:104DD000792002F0BBFCEC720D49022008730D48EB
:104DE00001784020662905D0697A0143772002F0D6
:104DF000ADFC70BD084A6B7A1179194301431171FA
:104E000005220549732002F0B9FD70BD6C10002029
:104E10002002002014030020B002002070B50E4CC8
:104E2000054620780D490007000F4118102228463A
:104E3000FCF7D2FD2078C00704D02946204604F0B4
:104E4000D3F970BD044804F0FFF9284604F0F0F9E6
:104E500004F0C4F970BD0000540200209E9D0008BB
:104E60003EB50121084601F0ADFC08210120FBF709
:104E7000ADFDFF2001300090002469460C714C719B
:104E80008C716846FBF776FD0720694608724C7204
:104E90008C7202A800F012FB3EBD3EB500F01CF87B
:104EA0000121084601F08EFC08210120FBF78EFD50
:104EB000FF200130009000246846047144710125F0
:104EC0008571FBF757FD07216846017244728572B0
:104ED00002A800F0F3FA3EBD08B50121880401F0F4
:104EE00059FC6846FBF730FEFF2001306946088018
:104EF000012088700420C8700148FBF7C9FD08BD77
:104F00000004004870B501240A4D64022146284679
:104F1000FBF718FE012003F07FF821462846FBF737
:104F20000FFE012003F078F821462846FBF70AFE21
:104F300070BD00000004004808B50121880401F09C
:104F400029FC6846FBF700FE012040026946088004
:104F5000012088701020C8700148FBF799FD08BD3A
:104F60000004004800BF704770470000F8B5214EAC
:104F7000827A01460B3173680446CF2A37D009DCA8
:104F8000C32A23D0CC2A11D0CE2A02D10E20002150
:104F90009847F8BDD02A15D025460C35DD2A1DD0FE
:104FA000EB2AF6D1092029469847F8BD01209847F9
:104FB000114912484A7802700622801C891CFCF7AD
:104FC00034FDF8BD042000219847F8BD607B694698
:104FD0000870A07B48700A209847F8BD03F0E6FDF2
:104FE0001020607372680D2029469047F8BD0F208D
:104FF0009847F8BD0003002014030020A8030020F8
:10500000C17ACF2906D10F2201461046024A093142
:1050100052681047704700000003002070470000EE
:1050200010B5044603F0C2FD05480078C00600D55F
:1050300000BF0720034A214652680831904710BD3F
:105040000803002000030020F8B52F4F0446B87C69
:10505000012600283BD1E07A012838D12B48857AF7
:105060002B4800780540E8071BD0A07A1023294A76
:10507000062104F034F8A07A0A23274A072104F015
:105080002EF8102223492548FCF7CFFC082222499C
:10509000F81DFCF7D3FC022221492248FCF7CEFC84
:1050A000BE74A8070BD5A07A10231F4A082104F06C
:1050B00016F8A07A0723144A092104F010F86807AB
:1050C00005D5A07A1023194A0A2104F008F8F97CC2
:1050D0001748002902D00221017000E0067015482F
:1050E0000025067014480570FBF736FD7721017125
:1050F000A17A01724572042102F04AFF0F4800783C
:10510000000600D500BFF8BD0013002025130020C5
:10511000930300207013002080130020141300203C
:10512000881300200F130020530300206303002086
:105130008F0300208E0300209C0300200803002022
:1051400070B504460F481049C27C0120002A02D0E5
:1051500002220A7000E008700C49002508700C4813
:105160000570FBF7F9FC77210171A17A0172457294
:10517000042102F00DFF0748C078000600D500BFEB
:1051800070BD0000001300208F0300208E0300205C
:105190009C0300200803002000BF704770470000F8
:1051A0000949097989060DD508490978890709D57A
:1051B00002220146104610B5054A08315268904750
:1051C00000BF10BD7047000008030020010300204D
:1051D0000003002010B5044616480079800618D553
:1051E00015480078C00714D000BF072221460D31B2
:1051F0001248FCF71AFCE07A1149C0004018082256
:105200001049FCF712FCE07A04230F4A582100F001
:105210009FF903F06BFCE17A0C4A172050540C49BB
:10522000002008700B4A032021465268083190473D
:1052300010BD00000803002001030020001300201F
:1052400094030020A8030020540200208C030020B7
:105250001C0300200003002008490979890604D5B1
:1052600007490978490700D500BF0021817206224D
:1052700001461046034A08315268104708030020CF
:1052800001030020000300200749097989060AD597
:1052900006490978490606D5112201461046044AF6
:1052A0000A315268104770470803002001030020AC
:1052B00000030020F8B50546FBF74EFC2C4E0446D3
:1052C000B17C284600270B30002906D00A22F11DA8
:1052D000FCF78BFB002831D005E00A222549FCF7BA
:1052E00053FB002811D0DD202071A87A2072002104
:1052F000204602F04DFE20480079800604D51F4864
:105300000078C00600D500BFF8BDDC202071A87A67
:105310002072707C102808D81021081A0206120E7C
:1053200003D014491648FCF73FFB204610221449CD
:105330000930FCF783FB13480770D8E7DC202071A5
:10534000A87A20722046093010220F490546FCF742
:1053500075FB707C102808D81021081A0206120E5E
:1053600003D004492846FCF71FFB06480770BEE738
:1053700000130020509E00080803002001030020B5
:10538000301300208E0300201413002009490979EE
:1053900089060DD508494978090709D5082201462B
:1053A000104610B5054A0A315268904700BF10BD3B
:1053B00070470000080300200103002000030020C4
:1053C00004480079800604D503480078000700D51A
:1053D00000BF704708030020010300207047000051
:1053E0000C2201461046024A08315268104700005C
:1053F00000030020704700BF70470000024840785B
:10540000000700D500BF7047080300200B220146AB
:105410001046024A0831526810470000000300207D
:105420000D2201461046024A08315268104700001A
:1054300000030020417B072919D270B57821017142
:105440000446017A0A480B4EC1760025002C0DD087
:10545000207978280AD12146A27A70190B31FCF7FD
:10546000E4FAA07A24684019C5B2EFE770BD70472E
:1054700081110020A110002000BF704770477047C5
:1054800000BF704700BF704710B5007A88214843BD
:1054900002494018FFF768FB10BD0000340E0020E1
:1054A00010B5037A044998000858162203210830E1
:1054B000FFF7B2F910BD00004802002030B5827835
:1054C00001240178002A15D08B080E4A9B009A18F7
:1054D00013688907C90EFF258D40AB434578AD079A
:1054E0002D0E8D402B4313600078C006C00E844003
:1054F000054804E0C806C00E8440034880300460BC
:1055000030BD000000E400E000E100E08307FF227E
:10551000DB0E9A408907090E994000280BDA000734
:10552000000F0838830808489B001818C369934384
:105530000B43C3617047830804489B001818036835
:1055400093430B430360704700ED00E000E400E08C
:10555000FFB5064681B01F460D462920FBF74AFBE2
:1055600004000DD02571267220463A460B3003996F
:10557000FCF75BFA204602F01BFD002005B0F0BDF1
:105580000120FBE710B50020054B064A14210C1A38
:105590001C5D1454401CC0B21028F8D3002010BD6C
:1055A000A1100020301300200020704710B500200B
:1055B000054B064A14210C1A1C5D1454401CC0B241
:1055C0001028F8D3002010BDA110002040130020A7
:1055D00010B500200A490B4A06231C1A145D0C540E
:1055E000401CC0B20228F8D30020074B0D210C1A32
:1055F000145D1C54401CC0B20828F8D3002010BD14
:10560000A6030020A11000209E03002070B5134DBA
:1056100004462878002806D1102211491148FCF7C9
:105620000DFA012028701048C07C012809D00228FA
:1056300007D02146002003F0A5FE002800D001205D
:1056400070BD0220FBF7D6FA0028F8D07621017150
:105650000472042102F09CFC002070BD9D03002018
:10566000A6100020301300200013002010B50446BF
:105670000220FBF7BFFA00280CD077210171064900
:10568000047249794172042102F082FC034900202E
:10569000087010BD012010BDA11000209C03002047
:1056A00010B51523034A5721FFF752FF002800D0F9
:1056B000012010BDA1100020F8B50546314832493F
:1056C00043790B70314A817911703149C279304E7A
:1056D0000A71017A203E71742E4F447A3C702E4C30
:1056E000807A20702D480027C47922435207002A6F
:1056F00001DBF77406E0407982008018284A8018A0
:10570000C05CF074C91F0A2923D20220FBF772FA89
:10571000040035D0752020712572F07C607203F092
:1057200025FE20481D490078001DC2B2284603F01E
:10573000B7FC002803D02046FBF762F920E01A49A5
:1057400001200870194804210770204602F020FC4F
:1057500014E00624684604700220FBF74BFA002888
:105760000ED07721017105724472042102F010FC01
:1057700001236A460521284603F0B1FC0020F8BD4C
:105780000120F8BDA110002090030020910300200B
:1057900020130020920300209303002025130020F3
:1057A000730300202E0300209C0300209D03002093
:1057B00000207047002070470020704710B500207F
:1057C000054B064A14210C1A1C5D1454401CC0B22F
:1057D0001028F8D3002010BDA11000205013002085
:1057E0000020704708B50E4909794A0903D05229AB
:1057F0000FD0002008BD1E2904D80A4A890051583C
:10580000884708E00622002300921A4603F04FFC66
:1058100001E000F0C7FE0028ECD0012008BD000028
:10582000A110002030A2000800207047002070471F
:10583000F8B5114900240B79012706260F490225E6
:105840000A22132B12D8012B0ED0132B0CD00E7062
:105850000F718D71CC710C724C72084903F020FCF1
:10586000002800D00120F8BD0020F8BD0E700F7197
:105870008D71CC710D72EFE7A1100020A0110020F6
:105880000020704710B5074909790B2907D8064A47
:10589000890051588847002800D0012010BD002001
:1058A00010BD0000A110002000A2000800207047D9
:1058B00070B51149044688794A7901021143F729E4
:1058C00000D9F7210D4D0E4829550322027141716F
:1058D0000021817100780A49001DC2B2204603F000
:1058E000DFFB002801D0012070BD29191020FAF734
:1058F000E3FD002070BD0000A11000208C030020FB
:10590000A011002010B509498A794B791102194379
:10591000F72900D9F721064A135C8B4200D91154AC
:1059200011181020FAF7C8FD002010BDA1100020AA
:105930008C030020F1B536480025407982B001285B
:105940003AD1344900240F7808464078002F01D11D
:10595000002831D0304A1378A2003049009289588B
:105960000A78824217D14978B94214D1204603F00F
:105970009FF82A49A2008958801C0E5C25498A7824
:10598000B24201D90D250CE0254B0098C91C1858CE
:10599000FCF74BF803E0641CE4B29C42DCD1002D20
:1059A0000AD020480095837942790179029803F062
:1059B0007EFB002828D010E01A481921017101212E
:1059C00001700021417004228270C17001460522DD
:1059D000029803F065FB002801D00120FEBD0C48B1
:1059E0004079012810D10B4DA4000F48A978035924
:1059F000EA1C029898470D4800594078400703D5A3
:105A00000748A9780059815503F0C6F90020FEBD6A
:105A1000A11000209B12002014020020DC000020B6
:105A200040000020A0110020949B00087801002075
:105A300000207047F1B54D4B01229879197A1C4628
:105A4000677986B08446884203D1D879874202D9E3
:105A500002E08C4500D20022002F02D160460028CF
:105A600002D0002A02D056E0012254E0987A039036
:105A7000282801D006224EE018780A22172815D0CF
:105A800002243A490020497A0291394909788E4620
:105A90008100384B04915B5803999D788D4222D147
:105AA000DD7802998D421ED100210CE01024E8E738
:105AB000314E049D75596E5C2C4D6D18ED7AAE42D9
:105AC00003D1491CC9B2A142F2D3A1420BD119782A
:105AD000614508D35978B94205D30090002201905E
