:020000040800F2
:10000000C81E0020DD0000080301000805010008EB
:1000100000000000000000000000000000000000E0
:1000200000000000000000000000000007010008C0
:10003000000000000000000009010008B58500086C
:100040000D0100080D0100080D0100080D01000858
:100050000D0100080D0100080D010008D509000878
:10006000000000000D0100083107000865070008C6
:100070000D0100080D0100080D0100080D01000828
:100080000D01000800000000000000000D01000844
:10009000000000000D0100080D0100080D0100081E
:1000A000000000000D0100080D0100086586000831
:1000B0000D010008000000000D0100080D010008FE
:1000C0000348854600F0A2F800480047FD9200086A
:1000D000C81E00200138FDD1704700000C4880F395
:1000E00008880C480168090E0B4A914205D10B485B
:1000F0000B4901600B480C4901600C4880470C48D3
:100100000047FEE7FEE7FEE7FEE7FEE7FEE700004A
:10011000C81E0020040000001F000000181002404C
:1001200001000000000001400000000011860008EE
:10013000C100000830B50B460146002020220124F2
:1001400009E00D46D5409D4205D31D469540491B0B
:100150002546954040191546521E002DF1DC30BD54
:1001600070B500242546002801DA01244042002908
:1001700001DA01254942FFF7DDFFAC4200D04042E1
:10018000002C00D0494270BDD2B201E00270401C88
:10019000491EFBD270470022F6E710B513460A4607
:1001A00004461946FFF7F0FF204610BDF0B51FB416
:1001B0000646002082B005464024019100901BE0D5
:1001C000019922460F46304600F042F8049A059BFA
:1001D000801A994110D310461946224600F028F89B
:1001E000361A8F410197224601200021009F00F01E
:1001F0001FF838184D4100902046641E0028DFDCAF
:10020000019B00982946324607B0F0BD064C0125F7
:10021000064E05E0E36807CC2B430C3C98471034AE
:10022000B442F7D3FFF750FF40A5000860A50008CF
:1002300010B5202A04DB0146203A9140002010BD71
:10024000914020239C1A0346E3401943904010BD7F
:1002500010B5202A04DB0846203AD040002110BD0A
:100260000B46D340D0402024A21A9140084319469F
:1002700010BD70B58C180578401C6B075B0F01D161
:100280000378401C2A1106D10278401C03E006784E
:100290000E70401C491C5B1EF9D12B0705D40023AE
:1002A000521E0DD40B70491CFAE70378401CCB1A80
:1002B000921C03E01D780D70491C5B1C521EF9D581
:1002C000A142D8D3002070BD70B5154D049C2D7887
:1002D000002D20D11278D2071FD0124A1B2515718C
:1002E000E51C15700025557004269670D5704D7864
:1002F000557109789171002104E05D5C5618491C24
:10030000F571C9B2A142F8D3E41DE2B2054909F082
:100310002DFA002800D0012070BD062070BD00001D
:10032000CC040020F81700207047704770477047D2
:10033000704710B50846114609F02CFC10BD0000AE
:1003400010B5134886B00EC86C460EC407C807C463
:10035000104C0021204607F02AFD204607F022FE1F
:100360000121204607F00CFD0021204607F008FD82
:1003700000231A466946084807F0C6FE06480023CF
:100380001A4603A9143007F0BFFE06B010BD0000E6
:10039000E89B0008003800404400024010B50248C5
:1003A00009F04CFA10BD00000D04000838B5124CDD
:1003B000607800280DD001280FD002280DD1A07838
:1003C00001280AD10020A0702146C9780B4A0C4BA5
:1003D00007E000F05FF90120607038BD155C1D5426
:1003E000401C8842FADB0091054B064A06492078FA
:1003F000FFF76AFF38BD000014000020E40400206D
:10040000480000205C000020E09D00080EB5234A53
:10041000030008F0A7FA0E0E080E0F0E0E2620316C
:100420000E0E0E383D0E5078012802D11CA008F0A7
:1004300089FA0EBD0878107002205070CB780A79C6
:1004400048790090029301928B79CA79097A18A0B1
:1004500008F078FA0EBD002050704A7809781FA085
:1004600019E0CA888888009001924B884A780978F8
:10047000234808F067FA0EBDCB788A78097821A066
:1004800008F060FA0EBD0878274909F0CCF90EBDD6
:100490004A78097825A008F055FA0EBD140000200E
:1004A0004164766572746973696E672E2E2E0A0038
:1004B000436F6E6E656374656420746F20253032FF
:1004C000783A253032783A253032783A2530327809
:1004D0003A253032783A253032780A00446973631D
:1004E0006F6E6E65637465642C2049443A25642CF4
:1004F00020526561736F6E3A307825580A0000000B
:10050000F4A400085354415455533A2025642C2038
:100510005458205048593A2025642C2052582050D5
:1005200048593A2025640A00F1FB09004155544816
:10053000205265706F72742C2049443A2564202C37
:10054000205354415455533A25640A00014A5268D5
:100550001047000048040020014800687047000070
:100560004403002010B50C484468002C13D00168E7
:100570008C4203D100214160016001E021684160AB
:100580002079064950380006800D095820468847D2
:10059000204600F0A1FA10BD30030020F0A20008B0
:1005A00038B500F0A5F80124030008F0DBF90504D4
:1005B000070A110D100004F0A3FF09E001F06CFB25
:1005C00006E001F0A3FA03E000F088FB00E0072456
:1005D00014480168491C016008F01AFC00F098F802
:1005E00001281CD1104D0124FB22691C0F4801F089
:1005F00016FBE9780E4A8900515828788847002868
:100600000DD16879132808D12878697A0002084347
:10061000694608800520FFF799FF07F011FA204688
:1006200038BD00000C030020FA160020F817002047
:10063000C8A4000810B572B608F0B6FD08F09CFD1D
:1006400008F0CCFD00211920800107F077F801F0B7
:100650006FFA08F0D3FD08F0CBFD07F097F962B60A
:100660000024FF21204608F09FFC641CE4B2052C06
:10067000F7D310BD1FB500216A461170A02050802D
:1006800090800720507391736C460FCC08F0E8FF00
:100690001FBD000010B5FFF7EDFF0C21054808F065
:1006A000B5FF04480A210C3009F0D4F808F0C6FF61
:1006B00010BD0000C79B00080B490A780B49012AAE
:1006C000097804D9521E9300D218511889B21E29F4
:1006D00007D329221E39514389B2814201D3002018
:1006E0007047012070470000E1020020D80200207E
:1006F0000649002072B6C20052185268002A04D17E
:1007000062B6401CC0B20528F4D37047A011002087
:1007100003480078FF2801D001207047002070476F
:10072000FA1600200148007870470000CF02002030
:1007300070B5202000F094F80124094D002803D062
:100740006C70202000F030F801267602304600F070
:1007500087F8002803D02C70304600F025F870BDD3
:100760001800002070B501267603304600F078F8B6
:100770000124094D002803D06C70304600F014F8B5
:1007800001267604304600F06BF8002803D02C7068
:10079000304600F009F870BD18000020014948609B
:1007A00070470000000002400149486070470000A7
:1007B000000002400268520852000A43026070477B
:1007C000F0B50C460646012189B01D46174608467D
:1007D00006F01AFD304600F023F8684600F078F87D
:1007E00000216846019700940172039501748022EC
:1007F000427441828182202282750183418369464D
:10080000304600F03FF801220221044807F072FF51
:1008100001213046FFF7CEFF09B0F0BD003801409E
:1008200010B501684908490001600021016041607C
:100830008160C160C0B205210838FFF77BFC0F2141
:100840008140024842681143416010BD00000240EF
:1008500010B50121FFF7AEFF10BD406880B27047B0
:1008600003490968014201D0012070470020704708
:1008700000000240002A026801D00A4300E08A43D7
:100880000260704710B50A7A8B7D4C7C1A430B7C52
:1008900023431A434B8A1A438B8A1A430B8B1A43FE
:1008A0004B8B1A430368094C23401A4302600268C9
:1008B0000123DB039A438B8B1A430260CA684260B0
:1008C0000A6882604968C16010BD00000F80FFFFA8
:1008D0000021016041600172C16001744174418274
:1008E000818281750183418381837047F8B5057AE0
:1008F0008821364A694306468C18C17A14300C3672
:10090000009003292AD0042927D13148AF00C559C6
:10091000042228461E30009901F0B5F929461A3103
:10092000204608225830009101F0ADF908223146E6
:10093000009801F0A8F9294628461231223008F023
:10094000B7FFB020287122480021C151284607F086
:1009500003FE2046603008F0E2FFF8BD3046163056
:1009600004F0FCFE3146204608220A31603001F0D6
:100970008AF93146204604221231583001F083F9B9
:1009800000F048F907466E2038713846BD720A22D9
:1009900031460B3001F077F90421384607F0DCFDD1
:1009A000304608F0BCFF204608223146683001F08E
:1009B0006AF9204604225C30009901F064F92B4664
:1009C0000C220421304604F0F5FBF8BDB0120020E3
:1009D0008816002070B5FF240134204600F018F876
:1009E00000280CD0204600F00DF8054D01E004F081
:1009F00041FB2146284600F0E8F80028F7D170BDF9
:100A000000040048014948617047000000040140AB
:100A100005494A69024204D00968014201D0012017
:100A200070470020704700000004014000B50346F5
:100A3000006808F0DBFA987900281AD01979104874
:100A4000002909D041681A68114341605979022987
:100A500007D000290ED008E001681A681143016030
:100A6000F4E781681A6811438160C1681A6811430C
:100A7000C16000BD81681A681143816000BD00003B
:100A8000000401408B08084A10B59B009A1893682F
:100A90008907090F0F248C40A34393609368884013
:100AA0000343936010BD00000000014072B60028AF
:100AB00000D0FEE762B6704772B6002809D0054A3A
:100AC0005168884205D0016050601078401C107059
:100AD00062B67047D8020020002808D0044A516846
:100AE000884204D0016050601078401C107070473C
:100AF000D802002010B50146002200290FD0521C58
:100B00000B68D2B2002B01D01946F6E772B6044B3F
:100B10005C680C60586018788018187062B610BD58
:100B2000D8020020F0B5CA7813071B0FD20601D5F2
:100B30008A78134300229406240E0E8801259540DE
:100B40002E4207D005680F26A640B5431E46A64094
:100B500035430560521CD2B2082AECD30A88071D1F
:100B6000120A944600229406240E012595406646FA
:100B7000354207D03D680F26A640B5431E46A64025
:100B800035433D60521CD2B2082AECD3CA78282AD9
:100B900006D0482A03D1026909880A430261F0BDE0
:100BA000426909880A434261F0BD4B0710B5DB0E6C
:100BB000082901D2203000E024300F249C40016835
:100BC0009A40A1431143016010BD8068084000D0E5
:100BD0000120704741617047016170470021C9439E
:100BE0000180022181700421C170704772B6084AE9
:100BF000506800280AD01178002906D0491E1170CB
:100C0000016851600021016000E0002062B6704779
:100C1000D802002006494868002807D00A78521EEA
:100C20000A7002684A6000210160704772B6FEE7F0
:100C3000D802002030B572B6124D6B68002B1ED062
:100C400000281BD00122194607E0521C0C68D2B2C2
:100C5000002C05D029382146C0B22928F5D801E05A
:100C600029280BD8287814461E34A04206D3801AAF
:100C70002870086868600020086000E0002362B601
:100C8000184630BDD802002030B4134D6C68002CDB
:100C90001FD000281CD00122214629280CD9521C23
:100CA0000B68D2B2002B05D02938C0B219462928CA
:100CB000F5D801E029280BD82878904206D3801A6D
:100CC0002870086868600020086002E072B6FEE7DD
:100CD0000024204630BC7047D802002010B506F032
:100CE0009DFE0446007960380106880D03490958C5
:100CF000204688472046FFF7DFFE10BD6CA30008A2
:100D000010B5037A052B16D288210B4A5943515C42
:100D100001290FD0417A15290CDA05290AD01329A7
:100D200008D101220221093004F028FAB121002063
:100D300004F07BFA00BF10BDB0120020704770476E
:100D400000BF704700BF704770B572B61F49C979C0
:100D500062B6C906890F0BD00C24FFF747FF61214B
:100D60000171D3218172C472042107F0D7FB70BDD9
:100D700000240646164D0836E000001B295CFC29BD
:100D800006D040190722314600F029FF002803D081
:100D9000641CE4B2042CEFD3042C0BD10024E0003B
:100DA000001B285CFC2807D0641CE4B2042CF6D39A
:100DB000042C09D00024D0E7E000001B40190722D2
:100DC000314600F02CFFF3E70724C6E7E0020020DD
:100DD0000016002010B572B60E48C07962B6C00683
:100DE000800F0BD00C24FFF701FF61210171D2218C
:100DF0008172C472042107F091FB10BD0020064AE5
:100E0000FC21C3001B1A401CC0B2D1540428F8D3E3
:100E10000024E8E7E002002000160020FEB50446AA
:100E200046898089864205D030184608012006434D
:100E30006681A681FFF7DAFE054621460C311030A7
:100E400006220091029000F0EAFEA0890A214843A0
:100E5000A081208A2349C0002082277A88207843F5
:100E60004418D521002004F0E0F92046263006225F
:100E70000099019000F0B3FE00282BD01A49002001
:100E800042008A5AB24203D8401CC0B20728F7D3A6
:100E9000401C6873608B3B460830E88228460B2272
:100EA00000210D3004F06AF96C20287128460622D2
:100EB0000C30029900F0DAFE0C49EF72B8000D50C8
:100EC000608B06220830A08526840099019800F0E6
:100ED000A6FEFEBDB02028710021284607F01EFBAB
:100EE000FEBD0000B01200206CA000088816002093
:100EF000F8B5064672B656482421C079084262B653
:100F00000BD0FFF773FE61210171CF2181720C219B
:100F1000C172042107F002FBF8BDCF21002004F0CC
:100F200084F904F0FFF807460428F5D0494C31460F
:100F30000D220831201D00F072FEFFF757FE054616
:100F40006A2028710020A8722873A87631462846A6
:100F500007220D310D3000F062FE2146EF72B8001D
:100F6000A4310D5027700120607088203A497843E1
:100F700044180320207039483949807803228007BB
:100F8000000F08586060780038181031411820466A
:100F9000083000F003FE3249204625224C312E3025
:100FA00000F0FCFD2A49204605223431143000F0BF
:100FB00036FE2B497807400F0A39085C60762077A7
:100FC000F08A318B884203D0401840080121084341
:100FD00020498422C882E083810011530A214843BA
:100FE00081B21F4AE181002061821C324300D35A42
:100FF0008B4203D8401CC0B20728F7D3154FE072CC
:10100000708B3883708B2082B08B7883C0006085B2
:101010003946284606221631143000F000FEB88802
:10102000810040180004000C0E49B88000D1B9803E
:10103000F888820080180004000CF88000D1F98044
:1010400072B603492022C8791043C87162B6F8BD50
:10105000E0020020E4150020B0120020CF020020A2
:1010600050A00008FFFF000010B572B60E49242200
:10107000C879104215D0DB221040C87162B60B4906
:10108000FF2208780A7004F02BF9FFF7AFFD612109
:101090000171D02181720021C172042107F03EFA52
:1010A00010BD62B610BD0000E0020020E415002073
:1010B00070B50546FFF79AFD0446A87A2946C01C7C
:1010C000C2B220460831083000F0A9FDA87A60724B
:1010D000A87A0021072801D821200155EF2020718E
:1010E000EA7A2B7A88201D4D58434019022A03D1F1
:1010F000422505708030C180184603F0BFFE0028ED
:1011000019D01749D800401872B6016800290CD0D0
:10111000921E130007F026FC100B10101010202058
:1011200020101020102020201020446012E0416880
:10113000216007E062B670BD4268E57AD37AAB42BF
:1011400002D322604460F5E78A4200D1046011684E
:10115000216040680460EDE70C60FBE7B0120020FE
:101160008015002070B50546FFF740FD044651206C
:1011700020712946204620220831083000F04FFD1A
:10118000204607F0DBF970BDF8B5067A88201449CF
:101190007043451800275320475575204755FFF7E2
:1011A00025FD61210171DD218172C77206736978A5
:1011B00004464A070D300621002A06DA032202708F
:1011C000417002223346112103E0017033460122AF
:1011D0000D2103F0D3FF0421204607F09FF9F8BD4D
:1011E000B012002070B50546FFF700FD04465420FC
:1011F00020712946204611220831083000F00FFDE9
:10120000204607F09BF970BD70B50546FFF7EEFC70
:101210000446522020712946204600220831083019
:1012200000F0FDFC204607F089F970BD00BF704753
:1012300010B5FFF7DBFC61210171C1218172002132
:10124000C1722C220273417301218173042107F0C2
:1012500065F910BD10B5FFF7C9FC04466120207187
:10126000C620A0720020E0722046082204490C30FB
:1012700000F094FC0421204607F050F910BD000056
:1012800036A0000810B50446FFF7B0FC217A6122B1
:101290000271EB2282720022C272017388225143D2
:1012A000084A0323891860314A7F8273897FC1739A
:1012B000042A00D18373042900D1C373042107F0E9
:1012C0002DF910BDB012002070B5054604460C354E
:1012D00008220A49284600F061FC237A042B02D236
:1012E0000822114601E008220E21284603F046FF9D
:1012F000D821002003F099FF70BD000036A000083F
:1013000010B5FFF773FC61210171D12181720021B9
:10131000C1720421017307F001F910BD70B5057A9F
:10132000FFF764FC044661202071D720A0720020E2
:10133000E072257388204543064805222918204677
:101340000D30143100F06BFC0421204607F0E6F864
:1013500070BD0000B01200207047704700BF70479A
:1013600000BF704770B572B61849C97962B6C90630
:10137000890F0BD00C24FFF739FC61210171D421B6
:101380008172C472042107F0C9F870BD0024104DA9
:1013900006460836E000021BA85CFC2806D050195F
:1013A0000722314600F01BFC002807D0641CE4B281
:1013B000042CEFD3042C06D00024DCE7FC20E10051
:1013C000091B6854F6E71224D5E70000E00200206C
:1013D0000016002010B5017A891DCAB209494A7465
:1013E000014608480931123000F019FCFFF7FEFBF6
:1013F00061210171CA2181720021C172042107F0AB
:101400008DF810BD5012002010B572B6204AD27966
:1014100062B690231A4201D00C242EE001461D4CE6
:101420000F220831A01C00F0FAFBA07901280DD092
:10143000628819498A4200D9618061888A008918C6
:1014400061801649085C012802D005E01E21F7E7FB
:10145000217A002900D08120E179002901D04021A2
:101460000843A071E07B0D498000C4314118084851
:101470000422303000F092FB0024FFF7B7FB61211B
:101480000171C8218172C472042107F047F810BDB0
:10149000E0020020501200203333000022A0000898
:1014A000F8B5007A3A4CC1070023E079394F00299A
:1014B00072B654D0C00662B626D4B8790607360F85
:1014C00072B603F03DFE054662B6052816D072B628
:1014D000E07980210843E07162B62D483030007811
:1014E0003870BB80FFF782FB0446002E2DD0012E02
:1014F00016D0B02020710021204646E0002E01D0F9
:10150000012E01D10D2400E00024FFF76FFB6121C3
:101510000171CC218172C472042106F0FFFFF8BD75
:10152000387A002800D0012060733C20A07219494D
:101530002046062209310E3000F071FB1549204685
:1015400006228839143000F029FB6A202071E572E8
:10155000012020731048A90044507D70D4E79021E9
:1015600008406F210140E17162B68028CCD17878C3
:101570000528C9D205217970074A810050580028F2
:10158000C2D0B02404715350002106F0C7FFBBE75E
:10159000E0020020501200208816002070B504469A
:1015A000FFF724FB257A61210171EE218172002170
:1015B000C1720573042106F0B1FFA0891B2801D276
:1015C0001B20A081E189FF204930814200D2E081C7
:1015D000218A1B2906D288210C4A69438918803147
:1015E00089782182618A814200D260820849E800BC
:1015F000401821460C3108220C4600F010FB2B4607
:1016000008221421204603F0B9FD70BDB01200205D
:101610009C16002070B50446FFF7E8FA61210171BD
:10162000EC2181720021C172617A11258A08002A99
:101630000DD1A27A93080AD1237A0D4C002B04D045
:10164000012B0CD0022B0ED106E0914201D0C572C5
:1016500009E06170A17006E00029FAD103E0002AD8
:1016600001D06270A270042106F058FF70BD000026
:10167000F402002010B50949027A0A70427A4A70D1
:10168000807A8870FFF7B2FA61210171C4218172FA
:101690000021C172042106F041FF10BD4904002061
:1016A000F8B501460546093105220F46184800F0F5
:1016B00096FA00282BD005223946154800F0AFFADB
:1016C000144E0024204688214843315C01290FD064
:1016D0008019418B052208318185E9810C4914303C
:1016E00000F09DFA234607220121384603F046FD0B
:1016F000641CE4B2042CE5D3FFF778FA6121017190
:10170000D62181720021C172042106F007FFF8BDC5
:1017100014030020B012002070B50246067A88201B
:10172000234970434418052E38D2907A0025810849
:1017300011D1D17A8B080ED1527A002A09D0012A10
:1017400013D0022A0ED020466030417F8175817F00
:1017500010E0884201D011250DE0214660318875E6
:10176000C87508E00028F8D105E0002903D020461C
:1017700060308175C175ED21284603F056FD002DBE
:101780000CD120466030817D427F914207D10021FB
:101790008175D2B23146002003F037FD70BD20467E
:1017A000334602221621763003F0E8FC70BD0000BB
:1017B000B012002010B572B60C4AD27962B6920807
:1017C00001D00C2407E001460848062208313930D0
:1017D00000F025FA0024FFF709FA61210171C72101
:1017E0008172C472042106F099FE10BDE00200204F
:1017F00010B50A49027A4A74014608480931123084
:1018000000F00DFAFFF7F2F961210171CB2181722D
:101810000021C172042106F081FE10BD701200206B
:1018200010B5007A1049C207C87972B60AD002070B
:101830000DD440221043C8710C48012101708188E9
:10184000018104E0020702D5B7221040C87162B6D8
:10185000FFF7CCF961210171CE2181720021C172A3
:10186000042106F05BFE10BDE0020020A212002061
:1018700070B5044672B61A484821C079084262B66B
:1018800001D00C2621E0174D2146002604220A3102
:10189000A81C00F0C4F9207A6870A07BA871E07BD6
:1018A000E8716888104A904200D96A80688881008F
:1018B000401881B26980A888904200D9AA80A8887F
:1018C00082008018A880081A6880FFF78FF96121CC
:1018D0000171CD218172C672042106F01FFE70BD18
:1018E000E0020020A21200203333000070B505464C
:1018F000FFF77CF9044653202071294620461B221D
:101900000831083000F08BF9204606F017FE70BD54
:101910007047704710B5FFF769F90446062207497A
:101920000C3000F07CF961202071C220A0720020F0
:10193000E0720421204606F0F1FD10BDD102002026
:101940007047000010B5FFF751F9044625221049F1
:101950000C3000F023F961202071BF20A07200201C
:10196000E0720421204606F0D9FDFFF73FF908494F
:1019700004461B222531093000F010F97220207135
:101980001B2020720421204606F0C8FD10BD000077
:10199000D0A3000810B5FFF729F90446082207492B
:1019A0000C3000F0FBF861202071C020A0720020F4
:1019B000E0720421204606F0B1FD10BD10A400081D
:1019C00010B5FFF713F90446082207490C3000F060
:1019D000E5F861202071BE20A0720020E072042191
:1019E000204606F09BFD10BD2EA0000870B5047ABD
:1019F0000546052C0FD2B221002003F016FC0C3551
:101A000005220549284600F0C9F8234605220C2185
:101A1000284603F0B3FB70BD1DA000087047704757
:101A20007047000010B5047AFFF7E0F861210171FA
:101A3000C32181720021C172047301214173882185
:101A40004C4304496118497F8173042106F066FD07
:101A500010BD0000B012002010B5FFF7C7F86121DB
:101A60000171B42181720021C172042106F056FD7A
:101A700010BD704710B50D49027A0A70427A4A705B
:101A8000C27A8A70427BCA70C07B08710820FFF757
:101A9000D1F8002808D061210171B32181720021A1
:101AA000C172042106F03AFD10BD00005004002070
:101AB00010B50749807A0870FFF798F86121017125
:101AC000B92181720021C172042106F027FD10BDE9
:101AD0004804002070477047417A044A89005258F0
:101AE000037A01460B31184610470000449F000856
:101AF00030B4427A044B92009B58047A0246817AB1
:101B0000204630BC0B321847889E000810B505F0FF
:101B100085FF04460079054990380006800D095874
:101B2000204688472046FEF7C7FF10BD00A00008EA
:101B30000F4A0020342141438B183433401CC0B27B
:101B400053503B28F6D3342100234843135009480F
:101B50003C21426001704370074A1846C10053504F
:101B60008918401CC0B24B600528F7D370470000AD
:101B700070050020D8020020A011002030B40023FE
:101B8000002A07D9CC5CC55CAC4203D15B1CDBB23C
:101B90009342F7D3D01A30BCC0B27047002A05D0A8
:101BA000521E1206120E8B5C8354F9D17047002A24
:101BB0000BD010B40023CC5C521ED2B25B1C8454F8
:101BC000DBB2002AF7D110BC70477047002A05D05D
:101BD000521E1206120E8B5C8354F9D1704730B43A
:101BE0000023002A07D9CC5CC55CAC4203D15B1C46
:101BF000DBB29342F7D3D01A30BCC0B2704730B4D6
:101C00000023002A07D9CC5CC55CAC4203D15B1C25
:101C1000DBB29342F7D3D01A30BCC0B27047002A6F
:101C200005D0521E1206120E8B5C8354F9D17047F8
:101C3000002A0BD010B40023CC5C521ED2B25B1C25
:101C40008454DBB2002AF7D110BC70477047002AD9
:101C50000BD010B40023CC5C521ED2B25B1C845457
:101C6000DBB2002AF7D110BC704770470023002A6E
:101C700008D910B4CC5CC4545B1CDBB29342F9D3DA
:101C800010BC70477047002A05D0521E1206120E73
:101C90008B5C8354F9D1704710B505F0BFFE044644
:101CA0000079054980380006800D0958204688478C
:101CB0002046FEF701FF10BD18A40008F0B5064647
:101CC000077AC468882071497843451828468DB042
:101CD000603007F01DFE2046294614307031052281
:101CE0000C90FFF7D0FF29462046583108221930C2
:101CF000FFF7C9FF042F03D2207E802108432076FE
:101D0000A57A49206946087000208873CD736F4614
:101D10000D22781C0C99FFF7B6FF00205C493A5C55
:101D2000095C514008AA1154401CC0B21028F5D3D8
:101D3000104607F0E1FD07F0B5FD10225449684652
:101D4000FFF744FF012069464870707A887008A840
:101D500007F0E5FD002008AE315C3A5C514031549B
:101D6000401CC0B21028F7D3304607F0C5FD07F07D
:101D700099FD01206A46107400219177D07704A85C
:101D80000D2201300C99FFF77EFF10224049684672
:101D9000FFF71CFF21460B312A4668460C91FFF7DE
:101DA00072FF08A807F0BBFD0020315C3A5C51408F
:101DB0003154401CC0B21028F7D308A807F09CFD8E
:101DC00007F070FD08A807F0AAFD04A807F094FD2D
:101DD00007F068FD684607F0A2FD002021183B5C73
:101DE000CA7A20315A40401CC0B28A700728F5D305
:101DF00060696F46FF220346F97913434B40214641
:101E000029310B70030A3F7A13437B404B70030C5C
:101E10006F467F7A13437B40000E8B7010436F46F2
:101E2000BA7A5040C870217EF87A41400C98203030
:101E30008170002021183B184A7E1B7B20315A40BC
:101E4000401CC0B28A730428F4D30020B877F87716
:101E500004A807F051FD07F025FD684607F05FFD77
:101E60000020315C3A5C51403154401CC0B204281F
:101E7000F7D36019042208A92230FFF704FF281DB8
:101E80002121085565720DB0F0BD0000B012002090
:101E9000C8110020014610B51831083007F008FDC0
:101EA000FEF7B8FE044661202071D920A072002000
:101EB000E07220460C3007F043FD0421204606F076
:101EC0004BFB10BDF8B5067A8821134A71438C1874
:101ED000214660310D46093007F0EAFCFEF79AFE14
:101EE00061210171DC2181720027C7720673042110
:101EF00006F032FB002233460521104603F05AF962
:101F0000284607F00CFD0548022101716975276715
:101F1000A7672F752F77F8BDB0120020E0020020D0
:101F200010B510490830097804460A070E49120F07
:101F300051181022FFF74AFE21460A4807F0B8FC64
:101F4000FEF768FE044661202071DA20A0720020AE
:101F5000E07220460C3007F0E2FC0421204606F037
:101F6000FBFA10BD0C03002006A10008F8B50446DA
:101F700013300090FEF74EFE0646102222300099E4
:101F8000FFF781FE009803F0E9FB257A3046164EF4
:101F9000AF00F051FEF73EFE622101710021417257
:101FA000DB21C172042106F0D7FA009807F0B7FCD4
:101FB000F0592146093116220C460830FFF763FE1E
:101FC00088200A49684340186030407D2B468007CE
:101FD00005D000220A21104603F0ECF8F8BD1622C5
:101FE00003212046F8E7000088160020B0120020E8
:101FF00010B5FEF7FBFD61210171E52181721E2103
:10200000C172042106F08AFA10BD10B5FEF7EEFD8C
:1020100061210171E42181720121C172042106F064
:102020007DFA10BDF8B505460746067A8820D049E6
:1020300070434418F97ACF480C35042240780B00DD
:1020400006F090FC190E33323D3D4D5166848D985B
:102050009DA0BF84F3F3BEF3F3F2F1DBF032F300A3
:102060002078562807D1802020707D20025D3146DF
:102070002A2003F0CAF821462046062226310E30D7
:10208000FFF7ADFD00280FD0FEF7B0FD04466C2031
:1020900020710622E672E91C20460C30FFF7BFFDD6
:1020A0000421204606F03AFAF8BD20785628FBD1E4
:1020B000812020706034627F31462A2091E0FEF753
:1020C00095FD044655202071394620461A220831D4
:1020D0000830FFF7A4FD204606F030FAF8BD0022D4
:1020E0003346062149E0042E05D30022334606215B
:1020F000104603F043F8387B022803D00122314612
:10210000002075E0FEF772FD67210171867219E00B
:1021100020784E280ED0562816D028781628DDD1E3
:102120006034627F31461A2003F06FF80020A075FA
:10213000E075F8BD2270FEF759FD6D2101711A217D
:102140008172C6720421ADE72270E9E708228A494C
:102150002846FFF723FD08223346092193E0FEF7C6
:1021600045FD04466D2020710020A072E672082211
:10217000294691E7002233460B21002056E0042E29
:10218000F8D3F8BD2078432810D08C280ED07B4897
:1021900040780007F5D5FEF729FD0446652020713B
:1021A00005222046A67229460B3077E772490522A0
:1021B00019392846FFF7F2FC052233460C2162E06C
:1021C0006D1C207843280FD044280DD0562812D0FB
:1021D00028462038C07F1628D3D16034627F287803
:1021E000314603F012F8F8BD2270287800223146FB
:1021F00002F0FCFFF8BD2270EFE7042E19D3297816
:102200006A7811408907890F04D07D22125D9143BD
:10221000084001D16034607F287002226870334624
:10222000172130E00FE05BE04DE09BE002F0A6FFFD
:10223000F8BD2178162240291CD041291AD05629F0
:102240001BD0FF2EF4D029786A7811408F07BF0F7A
:1022500029D022466032917D002900D00F40517F65
:102260003840884307001ED0B9421BD0B8070CD5B0
:1022700002270DE02A702A2001E02A702320022282
:102280006870334611212846D0E7F8070AD00127A5
:102290002F706F70608B21460830A08502222C3190
:1022A000A81C04E0002732490422E8392846FFF739
:1022B000B6FC334604221821284602F05FFF603442
:1022C000A775E775F8BD2E48F100091808222846C1
:1022D000FFF764FC334608221521284602F04EFF22
:1022E000254B274A00200833F1008E1841006A5A16
:1022F0005F5ABA4202D3775A974200D26F52401CBB
:10230000C0B20428F2D36888298880080E3880B2C9
:10231000814202D98021085501E0802211554008F0
:10232000C01F298880B2814202D97F21085501E06F
:102330007F200155E888A98880080E3880B2814244
:1023400002D98221085501E0822211554008C01FA0
:10235000A98880B2814202D980346070F8BD80348F
:102360006170F8BD01220721384633460B305DE726
:10237000B0120020F402002036A000085004002013
:102380009C160020014800687047000040030020B0
:10239000F0B5F948F94FC178C07985B084460C2969
:1023A00030D0F54B6E469A69F549557901955088BC
:1023B00030800988884200D0FEE31846317883795E
:1023C0000646C918817170891379401EF16980B27F
:1023D000022B7CD23446002B7AD060814888401E84
:1023E0004880A1690220087101F0BCF9E548E6497E
:1023F000007866286ED0887A8106890E772005F0ED
:1024000047FC10E2DC4C400943D0A078E07003F0B8
:10241000D9F8A0690021017101214180E069FF2103
:1024200001710178A1700C210170E1790A0610D5C3
:102430004906490E10221143E171A269052151712B
:102440004171D24989790A07D149120F895C4180CB
:1024500019E04A060BD5BF22114008221143E17151
:10246000A269062151714171CA4989880AE0DF22B7
:10247000114004221143E171A26907215171417198
:10248000C549C9884180A069408805F0C1F905B0F7
:10249000F0BDC24BA16CE06CC91800225041A16490
:1024A000E06439791922C906C90E3971BC49920113
:1024B000086880180860C878EF2802D90007000F64
:1024C000C870FEF74FF805F06DF805B0F0BDE6E115
:1024D0000AE0FFE73A79897A73200A433A710522C4
:1024E000A64905F011FD9EE1012005F091F907F0E4
:1024F00059F805F04BFAA069AA4E4579052D72D21C
:102500008820A94F6843C11921626079002840D012
:102510000120FEF7CBFA216A04227A20091D05F07A
:10252000F3FC206A7521095C2171027F2E30105C5A
:1025300007F0A8F9206A027F2E30115C9B48405CAE
:1025400005F024F8206A017F427E8A189849895C48
:102550000177083004F0DEFE206A6030407F0228F8
:1025600031D0002005F0C4F805F08EF903F012F820
:102570000198042800D356E188214843C519EF7A11
:102580000C20074001988B498000085800281CD077
:1025900020E00320085605F031F8042D03D203F0A3
:1025A000B1F8282002E002F0BDFF3220607160899E
:1025B000401E6081E0694188491E4180A069012177
:1025C00001714180A7E70120CCE7019802F03AFEB3
:1025D000002843D00179EF292DD1C17A002903D0F9
:1025E000012928D11DE042E0A1794A0706D04A0717
:1025F000520F0A21891A226A918402E0226A0A2172
:102600009184216A6A468B8C4373898C090A817391
:10261000698B083189B21180AB8D8B420BD9C18295
:1026200008E0698B6A46083189B21180AA8D8A4216
:1026300001D94182A98501985F49C00041184968C4
:10264000002904D15D4940184068002801D01020BD
:1026500007433946019802F0EBFAE4E00120074312
:10266000B7700021F170B01C04F050FFDBE054485B
:1026700004F050FE042253497A2005F045FC002165
:102680009B2005F029FB504F052D05D0062D63D06A
:10269000072D70D000BFC6E03C4D88216878424AC3
:1026A000414389182162E179C90606D4052856D22A
:1026B00002F054FD0520687051E06079002801D0D7
:1026C0000220C7E041491120085604F097FF03F0AB
:1026D00019F82878385C07F0D5F82878395C334841
:1026E000405C04F053FF29783948405C2870AA798F
:1026F000B27017073F0F012F24D0697CF170B01C16
:1027000004F004FFE87900281ED0324805F0D4F820
:102710001E4D012F1AD01235002004F0E9FF022FC0
:1027200016D004F05FFF05F0AFF80B20607128466B
:1027300005F0B6F8E0694188491E4180A069012191
:102740000171FDE30C21D9E72348DFE70935E3E711
:1027500005F08EF80A20E9E7E079000706D405F0D5
:1027600009F902F075FF02F063FFAEE66079002818
:1027700034D003206EE05CE0E0020020280300205B
:102780003E030020CF020020C4160020501200207B
:1027900027A00008A2120020E4150020400D03002D
:1027A000400300201C160020B0120020D21600208A
:1027B0009CA00008D015002058150020801500208E
:1027C000EC020020F002002010A00008901200206F
:1027D0001003002019030020D1020020FE4D0A2022
:1027E000285604F00BFF02F09DFE2878385C07F0B5
:1027F00049F82878395CF948405C04F0C7FE0020AD
:1028000004F076FF687800280ED0142060710C2048
:10281000F07005F039F8E0694188491E4180A069EF
:1028200001214180017138E21520607105F020F826
:1028300058E3EB4D88212878EA4A41438918216200
:10284000E179490702D402F089FC88E76079002821
:1028500003D00420FEF72AF91FE21120285604F0C5
:10286000CDFE02F05FFE6878385C07F00BF8687800
:10287000395CDA48405C04F089FE1E206071222039
:10288000F070002004F034FF04F0FEFFE06942889D
:10289000521E4280A069012242800271FDE1D24EA7
:1028A000FF2B76797ED0D04A052D7CD2042D7BD2A9
:1028B000283E1446062E78D232007A4412799218B5
:1028C00097440207070214F760814888401E488039
:1028D00005E04A88012A05D06081521E4A8000F036
:1028E00041FFDAE104F0C4FF06F05CFEE0694088D5
:1028F00004F08EFFA06906784079019002F07AFE1C
:10290000608969460880002504F06CFE0027206A73
:10291000014680318A88438A9A4267D2CA887D21DB
:1029200009028A4262D20178402916D1418B828DF8
:102930004919914211D106210170018CC183818C0A
:102940000A2251436A46128889186A461180014654
:10295000062226310E30FFF796F90C2E30D20620D3
:10296000A24970434218E2616B465188188881423F
:1029700017D31279022A05D2002803D0091A6781D9
:10298000082933DC216ACA891018188002F002FE77
:10299000206A027F417E521895496D1C8A5C02773D
:1029A000EDB203E03AE3BFE172E06FE0E0696A464E
:1029B000418812880678511A6A461180A061A6E7FC
:1029C0006846008800280ED1206A6946C0890880C0
:1029D00002F0E0FD206A017F427E8A1884496D1C66
:1029E000895C0177EDB26D1C6781EDB2206A7D22B2
:1029F00001468031CB881202934205D32D216171AB
:102A000022212030817048E18988428A914229D26E
:102A1000428B52194283A169A0780870A0780621E0
:102A20004843724A69468018A06107710B88438049
:102A30000078062148438018E0610178A170067093
:102A400008224280FF220271A26901995171019A04
:102A50004271019802F0D0FA206A6189C089401859
:102A6000608194E22D2161710178032902D042290D
:102A700008D103E03E212030817088E222212030FD
:102A8000817084E208212030817080E20520E1E637
:102A9000323E1546062E72D232007A4412799218CE
:102AA000974408020208150768814888401E48803C
:102AB00015E731E14A88032A03D06881521E4A8013
:102AC0000DE704F0D5FE06F06DFD36206871464D29
:102AD000E869408804F09CFEA869077802F08AFD46
:102AE00068896946088002F047FD401CC5B200268F
:102AF00004F078FD3C48006A014680318A88438AA8
:102B00009A4279D2CA887D2109028A4274D2017818
:102B1000802914D1418B828D891991420FD10621D0
:102B20000170018CC1836A46818C128889186A46BB
:102B300011800146062226310E30FFF7A4F80C2F33
:102B400061D2062029497843421827486B46C26162
:102B500051881888814239D31279022A1BD2A8429F
:102B600019D9421B94B2204A6B0055810833126A6E
:102B7000DDB21378022B03D0062B09D104E0D1E09B
:102B8000D27A5219D5B203E02032D2785219D5B296
:102B9000091AA94272DC144D6A46296AC9890818C3
:102BA000108002F0F7FC286A017F427E8A181049E3
:102BB000895C0177A96A00E0FAE3686A40186862F4
:102BC0000C48C078801C761CC5B2F6B206496B462C
:102BD000C8690778428810E0A2120020D2160020AF
:102BE000E4150020B0120020E00200204016002072
:102BF0009CA000080403002040E01B889A1A6B4642
:102C00001A80886176E76A461088A91D814201D33F
:102C1000811FCDB2A84217D8F94C216AC98908187A
:102C2000108002F0B7FC206A017F427E8A18F549C5
:102C3000895C0177A16A606A40186062F248C078D6
:102C4000801C761CC5B2F6B2684600886900401B3D
:102C500084B2EB4808314581006ACDB2017802297F
:102C600002D0062908D103E0C07A4019C5B203E0BA
:102C70002030C0784019C5B2761CF6B2E0487D22FB
:102C8000006A120201468031CB88934206D3DC49A8
:102C900037224A7122212030817033E28988438AA9
:102CA000D74A99422ED2418B8919418310468178A7
:102CB000806901701046807806214843D349401846
:102CC000906100220271448000780622504340182F
:102CD000CB49C86102788A7007704580FF21C84AD5
:102CE000017192690199517101994171019802F044
:102CF00083F9C348006AC189C14840890818C0499E
:102D0000488144E1372151710178022900D1B1E6AF
:102D1000422900D0B6E6B1E6488804F079FD02F019
:102D200069FC34E1062095E5052D05D0062D73D00C
:102D3000072D72D009208DE50C2E6FD00E2E05D0F8
:102D400048880F2E6BD001286AD028E115464888A4
:102D500004F05EFDA8690078019002F04BFC286A3F
:102D60006A468189C91D11800021818102F004FC1D
:102D7000A349401C896A00228C46A149C0B2096A55
:102D80000F468037BB8803934D8AAB4273D2019BB9
:102D90000C2B46D206256B439C4D5B19984DEB617D
:102DA0005E886D4602962D88AE422AD31E79022E89
:102DB0000ED285420CD9924E2C1A7081CE7A4000E8
:102DC00008303018029EC0B2761BA4B2864252DC94
:102DD000C8896E4640193080CD8B03984019B88061
:102DE000087F4D7E45198748405D08778448844DAB
:102DF000406A604468628448C078801C521CC0B23B
:102E0000D2B21D7801956E465D883688751B6E4678
:102E100035807B4DAB61B5E770E0A3E065E05FE036
:102E200067E06B461C88844218D8C889744B001927
:102E30006C462080B888CC8B0019B880087F4C7E07
:102E400004197048005D08775C6A60462018586273
:102E50006D48C078801C521CC0B2D2B26B461B8831
:102E60001B1A9CB2664B5881CB7A40000830181868
:102E7000521CC0B2D2B2BB884E8A614DB34228D236
:102E80004B8B00269A184A83AA69A9781170A978F1
:102E9000062251435D4A06238918A9610E714C80B0
:102EA000097859438918E9610A78AA70019A0A7069
:102EB0004880FF2008715648AB6942785A714278C1
:102EC0004A7105214170286A6989C0894018688162
:102ED00001E00120087002F075FB0F20687111E11C
:102EE00004F096FC02F086FB0CE1488801285BD0D8
:102EF00055E004F08DFC02F07DFB03E1143E052E4D
:102F00002ED23000784400790018874402FB060670
:102F100006004888062847D041E04888144606281D
:102F200019D06A46C01F10800720488004F070FC4A
:102F300002F060FBE069002806D042886B4600E0A2
:102F400056E019885118418032486A460189128832
:102F500089180181DEE30020694608800620E5E744
:102F6000072077E414461E2E16D01F2E12D0202ED6
:102F700003D0212E23D008206CE4212060714888E2
:102F800004F046FC02F036FB206A018A818102F0DF
:102F900019FBBFE3488802E04888042804D0401E9B
:102FA000488000F0DFFBB5E304F032FC04F060FC85
:102FB00006F0F8FA02F01EFB04F014FBAAE34888BE
:102FC000042817D06A46401F10800520488004F06E
:102FD0001FFC02F00FFBE069002804D06B4642881A
:102FE0001988511841800C486A464188128889180E
:102FF00041808FE30020694608800420E7E7000055
:10300000E00200209CA000080403002040160020DD
:1030100050120020A2120020E4150020052D2AD213
:10302000FE48332E0CD006DC282E09D02B2E07D0DC
:103030002D2E1BD108E0342E02D0372E16D103E0FE
:103040000A20FDF733FD13E0006A20308478FDF795
:10305000E1FDC472857263210171042105F07CFADF
:10306000284602F0A9F9284602F078F802F0C2FAE0
:1030700002F0DEFA0BE0052D11D01224E848019091
:10308000062D76D0072D75D00C20FDF70FFDE34DF2
:1030900000246C7104F064FC00286CD002E2DF4C68
:1030A0000D2E02D00E2E05D101E000BF02E00B2054
:1030B000FDF7FCFCE079C0067ED5DA4FB879010750
:1030C000D948090F405C801CC1B2D448806904789B
:1030D00025460C2C23D238787E8884460620D34A95
:1030E00060438018CD4AD0610279022A0ED242880C
:1030F000521A0BD4634692B2002B04D0C748C06961
:1031000042800CE08AE2BB889E42F7D3C34A04782F
:103110009061BA8840881018B8800C2CDED3BF4A62
:103120000623906996780670002606719078891EAD
:103130005843BE4BC9B2C018D06103789370047075
:10314000418005234371FF2303710C2C20D10C2DEA
:103150001ED178883B461E280ED01E78002E10D037
:10316000FF234133984216D35023581A6B461880D8
:1031700011E04FE0ECE093E10A23581A6B46188007
:1031800009E0BB88984203D9C01A6B46188002E058
:1031900001206B461880A14A6846926900885080D9
:1031A000BB8840181818B88038783A46002809D1EA
:1031B00050881E2803D000E027E0002090809C4823
:1031C0000078107090880521C90288420FD3787862
:1031D000984E80003058042105F0BEF9797800201F
:1031E000890070508D486F22C1791140C1710C2D3A
:1031F00005D0A54203D08948C57002F0E3F987489D
:103200008069408804F004FB41E702F0F3F902F022
:103210000FFA3CE7814D152E01D0172E03D106F091
:10322000C1F904F0DFF9E87900077DD5824800890B
:10323000102805D380496B46801C18804A8802E01C
:1032400068460480002275488069017808460C2988
:103250002ED2794E754F714D06234343DB19EB6136
:103260001C79022C15D27488944212D85C88122CD6
:103270000FD36E465D8834882F1B002F04DD7F1C22
:103280005F80A41E348013E0AD1E358001245C8075
:103290000EE06C4624881878122C02D15B889A18AC
:1032A00092B2AC690C282070EC69EB782370D3D310
:1032B0000C2804D10C2922D010236C4623805E4DAB
:1032C0006B88934201D99A1A92B2544F521CBB692F
:1032D000BC781C7000241C715A80BA7806235A43AB
:1032E000524B6E46D218FA611378BB701070348856
:1032F00054802B89A34207D91B1B2B810EE04E4B18
:103300006C469B882380DAE7AB882B812B78019C65
:103310001B5D2B70002B01D101232B7006235371F1
:10332000FF2313710C2900E00AE004D0814202D08F
:10333000F97002F047F9B869408804F069FAA6E626
:103340003D480021017002F055F902F071F99EE646
:103350006046400774D539484088102805D3374B5C
:103360006C46801C20809B8802E068460480002315
:10337000107801460C2831D2304E2C4F274D0622B2
:103380004243D219EA611479022C18D2B4889C42C3
:1033900015D85488122C12D36C4655882688AC1B3D
:1033A000002C06DD641C54806A46B61E168015E0AB
:1033B000C2E1AD1E6E463580012454800EE06C469D
:1033C00024881078122C02D15288D21893B2AC699A
:1033D0000C282070EC69EA782270D0D30C2804D134
:1033E0000C2936D010226C462280144EB2889A42A4
:1033F00001D9D21A93B2094C5B1CA269A578157049
:10340000002515715380A27806235A43074B6D4659
:10341000D318E3611A78A270187012E0E00200205D
:1034200002A100085012002027A00008401600202A
:103430001003002088160020A2120020E4150020AE
:1034400026E02A885A807588954207D9AA1A728080
:103450000EE0BD4A6C46D2882280C6E7F2887280B0
:103460007278019D525D7270002A01D10122727042
:1034700007225A71FF221A710C2904D0814202D00E
:10348000E17002F09FF8A069408804F0C1F9FEE500
:10349000AD480021417002F0ADF802F0C9F8F6E540
:1034A00006F080F8A869017902293BD24079052805
:1034B00038D288214843A54947183E466036707D7A
:1034C0002871800729D0394618225831832004F00A
:1034D0001BFDA8698021407904280FD2307D052288
:1034E00008433075394670317E2004F00DFD04F03C
:1034F00049FD307D4006400E30750EE0307F0522DC
:1035000008433077394678317E2004F0FDFC04F022
:1035100039FD307F4006400E307728798007800FD4
:1035200003F0EAFEA8694088022801D2FEF7CDFF29
:10353000E879410972D0010642D54006400E1021BB
:103540000843E87182486B46807901078148090F7A
:10355000425C921C1A80E86901780C2913D27E4ED5
:10356000062048438019E8610379022B07D243887B
:103570009B1A04D443889B1A5B1C438003E00178A8
:10358000A8610C29ECD3AB69A8781870A878062339
:103590005843714BC018A86104710124448000781D
:1035A00006246043C018E8610378AB700170921E76
:1035B0004280FF210171AA69052151714171E6E440
:1035C000410656D5BF221040644908221043644E7C
:1035D000C871B088801C83B268460380C8690078CF
:1035E0000C2820D25C4F0A4606214143C919D161FB
:1035F0000D79022D13D24D88122D10D34A88D51A79
:10360000002D05DD6D1C4D8069469B1E0B800AE078
:103610006B46921E1A8001224A8004E07AE0916192
:1036200008780C28E0D30C2802D110216A461180BA
:103630004A4A936991781970917806235943464B09
:10364000C91891610C7101244C80097806246143EA
:10365000C918D1610B78937008706846008848805B
:103660003389181A3081FF200871926954714C71A6
:103670008DE4DF21084004210843E8713248C08806
:10368000801C83B268460380E86901780C291ED249
:10369000314E062048438019E8610279022A12D28D
:1036A0004288122A0FD34688F21A002A05DD521CDE
:1036B0004280981A6A46108009E0B61E6B461E804A
:1036C0000122428003E0A86101780C29E1D30C2992
:1036D00002D110206A461080AA69A8781070A878D4
:1036E000062250431C4A01238018A86104714380BC
:1036F0000078062358438018E8610278AA700170A8
:10370000694609884180FF210171AA690721517129
:1037100041713CE4114CE0780C2800D106E7A06927
:103720004088032801D3FCF71DFFA069408850287A
:10373000F4D903F037FFF9E6884202D9401A5080E5
:1037400000BF00BFF2E60000E4150020B012002028
:103750005012002027A0000840160020E0020020A0
:10376000A212002010B40D487D24826CC16C121985
:10377000002359418264C16409480179C906C90E10
:10378000017108490868401C0860C878EF2802D910
:103790000007000FC87010BC70470000E002002056
:1037A0002803002040030020F8B50026154D8400B2
:1037B00028593746002816D0017A002912D0427ABB
:1037C0008A4205D9D1B2027A891A417207720AE097
:1037D0004772077201682951002906D0FDF77CF96C
:1037E0002859E7E70020002E0AD00179E62903D006
:1037F000EF2903D0F02903D1422100E003214172D7
:10380000F8BD0000D0150020F0B5FF4E0C27B069C0
:10381000002442793046407989B0052A77D2314672
:103820000B6A19464031042A72D22838052827D25B
:1038300002007A4412799218974402282802FE0066
:10384000187882281ED02A207071C87C002801D0E8
:1038500004F00EF80D21F06900F0CCFF002801D033
:1038600004F006F83079800705D5316A05227E20FC
:10387000783104F049FB30798007800F03F03CFD7C
:1038800009B0F0BD05F08EFE2D2086E302226946C8
:10389000FF2004F0FFFA306AC57A01783D40032921
:1038A00008D104210170014680318C80CC80418D8B
:1038B000002541822C203746707103F032FD00282C
:1038C00027D06846007869460007860F48780028A8
:1038D0000BD0FCF7F1FE002807D0CC486946865D86
:1038E0000878EF21084069460870C9483543455DAE
:1038F000680617D568464078002813D039798907BB
:1039000010D5386A816F491C816705D00AE060E3F1
:1039100059E1386AC5728FE06030017F491C490661
:10392000490E0177386A0178062903D10421017014
:10393000418D4182C57200272806B34880694079CD
:103940007BD5FFF731FF0190AF4880694079810056
:10395000B0484158019808431BD0002907D101986D
:10396000477A202007430198C67AFDF7B5F8A648A4
:103970000179C9070DD0019900290AD0006A016FA9
:10398000491C016705D16030017D491C4906490E7B
:1039900001759D488069407901F054FC01909A4876
:1039A000006A4030C07C00280BD168460078C10610
:1039B0002B20002902DB0199002902D0924948718D
:1039C00003E0914840792C2807D08F480921C0692D
:1039D00000F010FF002853D102E005F0E3FD54E0B1
:1039E00089480079C00716D08748016A80200B46B5
:1039F00060310A7D02430A751946052270317E2026
:103A000004F082FA04F0BEFA7F48016A6031087D52
:103A10004206520E0A757C4800798007800F03F039
:103A20006BFC019800280CD077497B4A8869407963
:103A3000C3009A18526801E04AE139E0002A10D127
:103A40000AE001202843C1067448C90E8170C47081
:103A5000801C03F05BFD18E0714A9A185268002A36
:103A600001D010221543294601F0E2F800280CD1BC
:103A7000654880694079810066484058002804D034
:103A800005F090FD60492C204871B80661D5F843D7
:103A9000800718D078065CD55B4880694679FDF7C9
:103AA000B9F8642101718672042104F055FD50E0DB
:103AB00081005848405800288FD0017A00298CD0C6
:103AC00004720068F7E7504F386A0178042904D17E
:103AD0005449895D017086210C52032E23D004DCE9
:103AE000002E2AD0022E31D104E00B2E0CD00C2E49
:103AF0002CD11CE005F056FD2D207871396A162076
:103B00002031887009B0F0BD02215322115404679E
:103B100060300475FDF77EF8EA210171B9694979D1
:103B20000172002110E001214030C1740EE00178E3
:103B30008C290BD10421017008E0B8693A4A407918
:103B4000810050585450042104F006FD78792D2846
:103B5000D8D068062BD56846407800280CD02A4D6E
:103B60002879800708D59B2004F022F8C0060CD5E0
:103B700068460078800708D0234D0099A8694079ED
:103B800000F05EFEB0280AD011E005F00BFD296AB6
:103B90003D20203188702D20687109B0F0BD286A61
:103BA0000078822803D005F0FDFC2D20687103F019
:103BB00019FD154D286A8030848003F0D3FB296AF3
:103BC000487709B0F0BD0125322806D033287DD0D2
:103BD00034287CD035287BD134E002226946FF208E
:103BE00004F058F904F0CEF968464078356A0A3096
:103BF000C1B27D20405D01282BD00C4A0020135C0F
:103C00008B4218D2401C13E0E002002014A00008F0
:103C100026A10008D0150020581500201C160020F1
:103C2000801500206AA1000888160020E3A1000882
:103C3000C0B20928E3D3801CE989C0B2081A708198
:103C4000002574620921F06900F0D4FD00283ED1FE
:103C500009E0FF4A0020135C8B42ECD2401CC0B24A
:103C60001128F8D3E7E7002D04D002226946FF208F
:103C700004F010F9306AC57A01783D40022908D174
:103C800004210170014680318C80CC80418D00255B
:103C9000418203F046FBEF490028087029D06846AE
:103CA000007869460007860F487800280BD0FCF79B
:103CB00003FD002807D0E8486946865D0878EF21B3
:103CC0000840694608703543E44802E059E161E183
:103CD00048E3E049455D086A3422C5724A716A4684
:103CE0001278D20601D533224A710178062915D0FF
:103CF00018E0D84A00269069D94B4079810058587D
:103D0000002805D0077A002F02D004720068F7E778
:103D10005858116ACD723621517157E00421017053
:103D2000418D418200262806CA48806940792CD5F9
:103D3000FFF73AFD0746C748806940798100C848C7
:103D40004158084638431AD0002907D17E7A2020EE
:103D50000643F87A01903846FCF7BEFEBD4801796B
:103D6000C9070CD0002F0AD0006A016F491C0167F7
:103D700005D16030017D491C4906490E0175B548E1
:103D80008069407901F05EFA0BE0B54A8100505835
:103D9000002805D0037A002B02D004720068F7E7F0
:103DA0005058690612D56946497800290ED0A949AC
:103DB0000A7992070AD5096A8A6F521C8A6705D167
:103DC00060310A7F521C5206520E0A77002832D008
:103DD000A04F3879C00705D0396A05227E2070319E
:103DE00004F092F838798007800F03F085FA78792B
:103DF000362810D0B8699B494079C00041184968FD
:103E0000002904D1984940184068002803D01020A8
:103E1000054333207871B8692946407900F008FFDE
:103E2000002835D1B869407981008D484058002874
:103E30002ED0342026E001202843C1068B48C90E2D
:103E40008170C470801C03F061FB824F386A028A63
:103E5000002A1DD08189914219D26A0614D569467B
:103E60004978002913D1290603D48421095A00294D
:103E70000DD005F097FB386A8189491C818180301B
:103E800084803620787103E00029F2D100E084813B
:103E9000B0063727002842DAF04380070DD07006BD
:103EA0003DD56C4880694679FCF7B4FE6421017108
:103EB0008672042104F050FB31E0664E306A0178CE
:103EC000042905D16A49019A895C017086210C5246
:103ED0000199022906D006290DD00B2910D00C29F2
:103EE0001AD114E005F05EFB316A1620203188708B
:103EF000777109B0F0BD53210C54042101700BE01F
:103F000002215322115404676030047504E00178E3
:103F10008C2901D10421017070793728E9D04D4EE8
:103F20003078002829D0680620D5684640780028D7
:103F30000BD03079800708D59B2003F039FEC006EE
:103F40000BD568460078800707D0B06900994079A2
:103F500000F076FCB02806D008E0316A3D20203120
:103F60008870777182E205F01DFB7771306A8030CE
:103F7000848003F0F7F9316A487703F033FB09B026
:103F8000F0BDC87C002805D10921F06900F032FCA1
:103F9000002803D005F006FB362039E23520707189
:103FA0003079800700D466E4316A802308466030A7
:103FB000027F78311A43027705227E2003F0A4FFA6
:103FC00003F0E0FF306A6030017F4906490E017757
:103FD00051E40F25052A06D0062A7DD0072A7CD079
:103FE00000BF09B0F0BD0A2807D00B2808D00C2864
:103FF00009D00D28F5D105F0D5FA757109B0F0BDDD
:10400000777109B0F0BD1348457103F08AF90028B3
:104010007ED002226946FF2003F03CFF154FB8799D
:1040200005072D0FFCF7F6FD0646B0220190027140
:10403000083622223146FF2003F02CFF03F0D2FA8B
:104040006B4618780107090F03297DD0052913E075
:10405000D2A10008E002002014A0000826A1000858
:10406000D015002058150020801500201C160020B7
:104070006AA100085012002067D105F093FA002DC4
:1040800002D0012D0DD0E6E0387C032801D00228B3
:1040900018D16A461078019903F09EFC002854D18B
:1040A00010E0684600784006B87902D400064CD487
:1040B00001E0000649D50622FA493046FDF79FFD8A
:1040C000002842D16A461078019903F06BFC002861
:1040D0003BD17F78684601E0C9E09CE1007840066A
:1040E00005D50120F049BA008958487303E0EE482D
:1040F000B90040584473EC48BD004059314606228F
:1041000016311430FDF7BFFDE7480021405900E0AB
:10411000ECE0817234462034E34960784959400923
:104120008876E1480622405931460E30FDF7ABFD56
:10413000DD480421405904F00FFADB4900204851C2
:10414000DA4D6878002801E057E084E001D0401E95
:104150006870286A314615220C31001DFDF793FD69
:10416000286A2522D2492E30FDF730FD00206862F2
:104170006078D049400980000858A862F07C0A2184
:104180004843C6B2286A0A22C6726178C906C90EB7
:1041900041766178C906C90E0177022101708189D3
:1041A00051438181418A6A46C9004185C189918113
:1041B000C1838B00842213520A224A4393B2C381E3
:1041C0004382AA6A5143A962314608318B4201D128
:1041D000761FC672FCF71EFDE921017107720021EE
:1041E00004F0BAF9B448296A407CC870E8796F21B4
:1041F0000840E8710E2068712DE0002D01D0062DD9
:1042000029D1397C012901D0032904D1019903F076
:10421000E3FB00281FD16A461078019903F0C2FB26
:10422000002818D1B87901090901A448091D817035
:10423000A349497C891DC170801C03F067F9F87996
:10424000002812D09F4803F037FB9F4803F028FB5B
:1042500096480D2141710021019804F07DF99348A1
:1042600040790F287ED009B0F0BD9848EBE71821BF
:10427000974D142830D0152875D0162874D01728DB
:10428000F1D1717105F08EF903F04BF8002800D1DF
:1042900073E65820FCF710FA0028F9D1022269468B
:1042A000FF2003F0F7FDFCF7B5FC0446B0202071B9
:1042B000214625220831FF2003F0ECFD03F092F99E
:1042C000684600780007000F04285FD000212046D0
:1042D00004F042F909B0F0BD717103F022F8002832
:1042E00004D05820FCF7E8F9002805D003F07AF94B
:1042F00005F058F909B0F0BD02226946FF2003F02D
:10430000C9FDFCF787FC0446B02021462071083126
:1043100025220F46FF2003F0BDFD03F063F9E87985
:10432000002809D068460078214603F055FB002894
:1043300002D005F037F9C9E769460A78002011076D
:10434000090F05D0012926D0022924D00629F0D151
:10435000510600D58020A979002901D040210843C9
:10436000032102E082E01BE04FE0084353498870DC
:10437000881C03F0CBF8A87900280FD0514803F02F
:104380009BFA16207071384603F08AFA214600988D
:1043900001F084F99AE705F005F9F7E74B48EEE7F5
:1043A000717105F0FFF802F0BCFF002800D1E4E5D0
:1043B0005820FCF781F90028F9D102226946FF2034
:1043C00003F068FDFCF726FC0446B020207121466E
:1043D00025220831FF2003F05DFD03F003F9E879A1
:1043E000002806D068460078214603F0F5FA002838
:1043F000A1D1684600780007000FC7D00128C5D0BA
:104400000228C3D0062896D1C0E703F031FA17205E
:10441000707109B0F0BD1E2804D01F28F9D12020EA
:10442000707123E021482121417102F07AFF0028B8
:104430001AD002226946FF2003F02CFDFCF7EAFBAC
:10444000B0210190017101980C22083002900146C0
:104450000690FF2003F01EFD6B461F783807000F03
:1044600008D0012858D105E003F0BCF805F09AF80F
:1044700009B0F0BD03F086FD164E307A00283AD020
:104480006A461078019903F0A7FA002844D16846DB
:104490000078400620D5317801208A0002498958E9
:1044A00048731EE05912002088160020E002002008
:1044B0009CA000087CA00008901200201C16002080
:1044C000701200201903002082120020D102002067
:1044D000A2120020E415002030788100B94840582D
:1044E0004473307806228100B648405802990E3055
:1044F000FDF7C9FB1AE0780601D5012500E000258B
:10450000707AA84206D10622AF480299FDF777FBE0
:1045100000280BD0062D09D005F044F800210198A1
:1045200004F01AF803F05EF809B0F0BDA748DB22EA
:10453000C1791140C1711F214171780601D58521D2
:1045400000E00521307C002801D040200143A04834
:104550008170801C02F0DAFF9E48007C002826D083
:104560009D4803F0A9F9019806220E30029908909F
:10457000FDF789FB994B18680F3040080202010EC5
:10458000120E89180204120EC0B2101808186A46DA
:104590009081107B517B4018C1B20809002909D0D5
:1045A0008F4D2A5C8A4204D22818407802E08D4858
:1045B000D7E71046401A197840060122000EC907B5
:1045C000D207D14205D0002802D0401EC0B200E080
:1045D0001D2001460F316A46918100210A2801D22F
:1045E000002004E0142801D2012000E00220069AF5
:1045F000764E143205921080326A069DD37A5B1C87
:10460000EB74D472B36914461B789C460023803443
:104610000494A4880794558AAC426CD264460C2C4E
:1046200042D206256543704C2D19684CE5616E88B1
:104630006C460296A489A6422AD32F79634E022F94
:1046400007D2002C05D000277781029E361B082E4A
:1046500051DC1E31D68989B28E4214D8881B81B2B2
:1046600060186C46A081D48B07980019049CA08028
:10467000107F547E04195D485B1C005D107705981F
:10468000DBB2007804E01E346E46C01CB481C0B2B8
:104690002C786E46A4466C88B6894C4F341B6E4607
:1046A000B481BD61049CB4E76C46A489002C1DD183
:1046B0001E31D48989B28C4213D8081B6D46A8815B
:1046C0000498D18B8088401804998880107F517E8F
:1046D000411846485B1C405C10770598DBB20078B7
:1046E00004E01E216A46C01C9181C0B20021374AF5
:1046F0005B1C5181DBB20599344C0880206A84210F
:10470000095A428A914229D2418B374AC9184183BA
:10471000A169A0780870A07806214843801800217C
:10472000A06101716946898941800078062148436A
:104730008018E0610178A170614601700821418014
:10474000FF2101712349A3690A785A7109784171DF
:10475000206A6189C0894018608101E001210170EF
:1047600000F030FF216A019807221430091DFDF77F
:104770008AFA216A069805221C301431FDF783FA63
:10478000069806221A491630FDF77DFA206A417E06
:10479000069820304170089803F082F80D48226A8C
:1047A000417CD1700078074E85007059042103F0D8
:1047B000D3FE002070516078002800D1AEE6401E84
:1047C0006070ABE688160020EE150020E0020020A5
:1047D0001C160020E41500201903002040030020CF
:1047E00053A30008D1020020401600209CA000081E
:1047F000FA15002010B4104C0378226AD2895209AD
:10480000123252180C2B0DD206214B430B4944880F
:1048100059184B88891C1B19934206D99B1A0B8087
:10482000428006E06389934202D210BC01207047A7
:10483000418010BC00207047E0020020401600209C
:10484000F3B50804050E880783B0800F0090039825
:10485000EE4CC100EC4801950E18216A5320475CCC
:10486000002F0FD00098012804D0022802D003287E
:1048700033D107E0002D05D03D2020318870B020D5
:1048800005B0F0BD7168002915D00098012804D04A
:10489000022804D003280ED101E0002D0DD1039889
:1048A00008727168712008710421706803F062FE5B
:1048B000002070603060002D78D02846FCF7E4F9C5
:1048C00004000AD0009803280AD0202D11D92022F4
:1048D000CF49FF2003F0DEFA10E0B02005B0F0BDB4
:1048E00021462A460B31FF2003F0D4FAE72020713D
:1048F00042E02A46C649FF2003F0CCFA306829235B
:10490000002809D0827A991AA9420ADA837230689B
:10491000691ACDB204600AE07460712034602071BD
:1049200005E0511981720020316805460860782041
:104930002071002060722072002D17D0292D0BD914
:104940002920293D2D06A0722D0E0FD020680028A9
:1049500008D004463060EAE7A572002034600546BE
:10496000206008E01120FCF7A1F8E0E7002C02D05D
:104970002046FCF7B1F8746803F004FB00980328A4
:1049800004D0019820287DD920250BE1A572039839
:104990002072E17A19290FD89E486D1E405C85422D
:1049A00008D10398042802D29B4801E028E19B48E3
:1049B000415C00E01A21E172944D286A02785306A6
:1049C00016D5974BD65C04238E4201D1037008E0C4
:1049D000072906D00D2904D0112902D0172910D19A
:1049E00003E0002286231A520BE0562AEED008E09C
:1049F000192906D88B4B042A5A5C16D0042A00D0F9
:104A00000270192970D20A007A44127992189744D8
:104A10000E0E4B51596962A974746C6FB17D74A903
:104A2000A97DA9A9A9A9A9A987000270E9E7002F72
:104A300005D03D2120308170B02020719AE00029FE
:104A40000BD0214605220C311430FDF71CF921460C
:104A5000286A022211312C3003E021460B220C314E
:104A60002330FDF710F9286A828D418B8A4203D0EA
:104A7000511A6D4A914206DB282120308170B02006
:104A8000207177E08DE0C18C024601842032D3781A
:104A90000A267343D370828C714372438284C1842B
:104AA000418DC900418565E0217B20308170B020B7
:104AB00020715FE002212971002F5BD1012140307C
:104AC000C17457E00121442229710270002F51D195
:104AD0004030C1744EE027732979C943890701D159
:104AE0004030C174032001E03CE00120287141E026
:104AF000002181676030017710E0217B2D22114079
:104B00004170617BC907C90F817033E00178432987
:104B100001D044292ED100214030C174297129E0EF
:104B200098210170214602220E312C30FDF7ABF89E
:104B3000286A818D428B91429ED0891A3A4A9142CD
:104B40009ADA217B627B11408907890F25D060307A
:104B5000437F8B4203D08275217BC17502E0002127
:104B60008175C175002F05D0296A3D2020318870DC
:104B7000B02020710398042805D2286A8022603072
:104B8000017D11430175286A29796030417500BFA4
:104B90000021204603F0EEFC31E0002160308175F9
:104BA000DBE70546214F0026607AA17A884201D1D1
:104BB0002468F9E7002D22D0091AA94210DACAB2F6
:104BC0002346B9190B33C018091DFDF75CF8A07A0C
:104BD000617A6072411A8A19691AD6B2CDB2E3E7D6
:104BE00022460B32B91980182A46091DFDF74BF8E9
:104BF000607A401960727019C6B20025D4E7257931
:104C000005B02846F0BD0000A8150020E0020020F5
:104C100020160020B8A1000884A100089EA1000869
:104C2000F6A0000850A10008FF7F00001C1600201D
:104C3000F3B581B001988D49800000908C4F0958E0
:104C4000396079600879E62810D0EF280CD0F02878
:104C500012D000248748006A803042781009000191
:104C6000101A01280AD00BE00324F3E74A7A887A65
:104C7000824201D10224EDE70124EBE7521ED2B2B9
:104C800002987D4D2043C006C00EA8700020E87039
:104C9000012C0CD0022C0AD0032C3DD1887A08724A
:104CA000E8708A7A281D0B31FCF7EDFF1CE00B7AC7
:104CB000487A9E18864206D2D8B280180872E878E0
:104CC0008018E87010E0002A0ED0C01AEB78121A93
:104CD000C018E870487A08720868D2B2002803D079
:104CE000396009687960E2E7E878102814D900078C
:104CF000000F012810D17968087A092801D30938F2
:104D000006E03A680926137A301A181A1072002041
:104D10000872E8780938E870396800200E460B7A86
:104D20004A7A934202D2D21A1018C0B2072822D867
:104D300009680029F3D100281DD0072802D80821CE
:104D4000081AC0B2E978091A102905DD0907090F08
:104D5000012901D1401CC0B27A68117A814201D385
:104D6000091A04E0337A411A591A3172002111727A
:104D7000E978081AE8703D48009946583E60316865
:104D80007960E878202801D9202500E00546002731
:104D9000327AB07A717AAA4211D2401A8119364811
:104DA0000B31C019001DFCF76EFF307A291AC019AB
:104DB000C7B23068CDB200280AD00646E8E7401AEC
:104DC00081192D482A46C019001D0B31FCF75BFFE5
:104DD0002948077027480179CA0738D0006A7D2220
:104DE000125C022A33D1244FFA78072A2FD835468D
:104DF00020356A78002A03D0006F726990421BD078
:104E0000002131720298012210430207120FBA707A
:104E1000F970B81C02F07AFBFBF7FCFE5921017116
:104E2000124A00995158C16001990172447203F00D
:104E300085FB002003B0F0BD0220084002F05CFAC0
:104E40006A783146FA702231381DFCF71CFF0A4C93
:104E5000A01C02F05BFBE178002902D0201D02F0CB
:104E600037FD02490098085803B0F0BDD015002066
:104E700020030020E00200201C1600208821484367
:104E80000349085C022801D20020704701207047C6
:104E9000B0120020F7B515460098FFF7EFFF002885
:104EA0000CD02846FBF7C6FE060007D00020072DD1
:104EB00001D821218855344600271BE00120FEBD82
:104EC000292D03D32922293DEDB201E02A460025F0
:104ED000F0202071A2726272002020720198C11924
:104EE00020460B30FCF79BFE2068002802D02937B3
:104EF0000446FFB2002DE3D1E620307172B600986F
:104F0000FFF7BCFF00280BD000980949C0004018EB
:104F10000168002909D00E60046062B60020FEBD61
:104F20003046FBF7E7FD62B6C8E74660F4E70000ED
:104F300058150020F8B515460F460646FFF79EFFA8
:104F4000002824D0FBF752FE040020D00020072DBB
:104F500001D821210855E6212171A57265722072C0
:104F600020462A4639460B30FCF759FE72B63046C9
:104F7000FFF784FF00280CD00A49F00040180168B0
:104F800000290CD00C60046062B60020F8BD01203E
:104F9000F8BD0021204603F0C1FA62B6F7E744608D
:104FA000F1E7000058150020F8B515460F460646F3
:104FB000FBF730FE040019D00020072D01D8212175
:104FC0000855E6212171A5726572207220462A4695
:104FD00039460B30FCF723FE0649F0004018016803
:104FE000002905D00C6004600020F8BD0120F8BD48
:104FF0004460F8E75815002070B51D4D04462A6A34
:10500000508B918D884232D91078042341280CD0DE
:105010002946096A6031582810D0812805D098287F
:1050200025D1887D002808D008E01370FBF7F2FD39
:10503000E92101710472002117E013701370887D5B
:105040000026002804D04877C87D88778E75CE75F5
:10505000FBF7E0FD742101718672C472296A603128
:105060004A7F0273497F4173042103F075FA70BDD2
:10507000E0020020F8B502F05FF9284854270078D4
:105080001426274D66281ED03E2002F0C5FD04469A
:105090003C4072B62C7021463E2002F01DFE62B6E6
:1050A000344207D0600701D504F0A2FA72B6FEF7C9
:1050B000ABFB62B6600603D572B6FDF769F962B65E
:1050C00002F060FFF8BDAB243E2002F0A5FD0246D1
:1050D0002042F9D114463C4072B605D02C702146CE
:1050E0003E2002F0F9FD07E02878410603D540286C
:1050F00002D1142400E0402462B6344207D0600795
:1051000001D504F075FA72B6FEF77EFB62B6600652
:10511000D8D572B6FDF73CF962B6F8BDCF020020D3
:105120003A03002005490020882242438A5C012A74
:1051300003D0401CC0B20428F6D37047B012002040
:1051400005490420882242438A5C012A03D0401C7E
:10515000C0B20528F6D37047B012002070B5064DD6
:1051600084002859002806D0B0210171002103F0E5
:10517000F3F90020285170BD88160020FFB581B0DA
:105180001E4615460F46FBF731FD0446E820207108
:105190002672681CE772A072002D05D020462A46B0
:1051A0000C300199FCF73BFD0021204603F0B6F9D5
:1051B00005B0F0BDFFB581B01E4615460F46FBF7A2
:1051C00029FD0446E82020712672681CE772A0724F
:1051D000002D05D020462A460C300199FCF753FDDE
:1051E0000021204603F0B8F905B0F0BD70B51446B3
:1051F0000D460646FBF7FAFC662101714672857280
:10520000C472042103F08AF970BD70B514460D46CE
:105210000646FBF7EBFC742101718672C5720473BC
:105220004473042103F07AF970BD70B50C4605464D
:10523000FBF7DCFC622101714572C472042103F0AA
:105240006DF970BD30B4224C8300E1580022002972
:105250003AD1214DC1002D6A1E484035ED7C081819
:10526000002D13D0416800292ED0C97AC91E0F29FC
:1052700015D20D007D442D796D19AF441212121212
:105280001010101212101210101012004268002A92
:1052900007D1124808184168002902D114E0002AF9
:1052A00012D04168E1504268116804E00D79F02D98
:1052B00004D10A46096841600029F7D10021116034
:1052C0004268002A00D10160E05830BC70470000FD
:1052D000D015002080150020E00200205815002085
:1052E000F8B5074688202E49784346182D48FD001A
:1052F000281808222C49FCF751FC29498822E83952
:105300003046FCF74BFC72B60121304631706030FC
:10531000417781771B21C177803631707170B17010
:10532000204EBA00CC3EB058204B214F00280ED062
:105330001978491C19700168002902D00800F7D1BA
:1053400005E039680160B05838600020B05062B69E
:105350000020002804D0012804D0022805D11CE038
:10536000144901E0134928316C1872B62668002EE2
:105370000DD061681A78521C1A7009680029F9D199
:10538000396831606168396000216160216062B60E
:10539000401CC0B20328DCD3F8BD06495031E3E716
:1053A000B01200209C1600203EA00008D802002069
:1053B000DC02002058150020F8B507468820304947
:1053C000784346182F48FD00281808222E49FCF77C
:1053D000FDFB88222D493046FCF7F8FB01213046C1
:1053E00031706030417781771B21C17720300170A7
:1053F000417081702649BA004878274B401C48709C
:1054000024498858002810D00F461978491C197073
:105410000168002902D00800F7D106E01F490E6894
:105420000660BE580E600021B9501D4800212818A2
:1054300084461C482F181C482E18002904D0012926
:1054400004D0022905D103E0644602E03C4600E0B6
:1054500034462568002D0ED060681A78521C1A70E8
:1054600000680028F9D10D4A106828606068106053
:10547000002060602060491CC9B20329DDD3F8BD5B
:10548000B01200209C1600203EA00008C811002089
:10549000E0020020D0150020D8020020DC0200200D
:1054A0005815002080150020A8150020F8B50646E4
:1054B000143605462E3500231C461846315C012261
:1054C000114202D02B55641CE4B25B1C5200120640
:1054D000DBB2120EF4D1401CC0B20528EED3252C4D
:1054E0000DD02520001BC2B228192946FCF797FBD6
:1054F00003E0641EE4B2285D2854002CF9D1F8BD05
:1055000010B502F08BFA044600790549B038000660
:10551000800D0958204688472046FBF7CDFA10BD7C
:10552000ECA1000870B5104E347B40252C43214679
:10553000792002F0D1FB34730C49012008720C4829
:105540000078662805D0B17A7720294302F0C4FBA1
:1055500070BD0849B27A08791043284308710522C2
:10556000732002F0D1FC70BDC4160020E0020020C0
:10557000CF020020280300200448826A416A89186B
:1055800041620348C078401CC0B27047E00200206E
:10559000040300200948006A0278C18B530680305A
:1055A000002B06DA064BD25C002A02D0C2885218C1
:1055B000C28082885118818070470000E00200207C
:1055C000F6A000080949C8780C280BD006225043E1
:1055D000074A8018886100780C2804D006235843B5
:1055E0008018C86170470020FBE70000E00200203F
:1055F000401600200C4A9169937808780B70D17896
:1056000091700021D0700C280AD0D0699061007888
:105610000C2806D00621484304494018D061704741
:105620009161D16170470000E00200204016002027
:1056300010B50648C1780C2904D08069408802F072
:10564000E7F810BD19208001F9E70000E002002012
:1056500030B4104AD169937808780B70D37893707E
:10566000D070498800230C2810D0062460430A4CCF
:105670000019906145886918418000780C2806D08F
:10568000062148430019D06130BC70479361D36153
:1056900030BC7047E00200204016002070B50E4676
:1056A0000546FBF7B7FA04466B20207131462046C9
:1056B000062208310D30FCF7E6FAE8B2410601D5C2
:1056C000012100E000210007000F2173E072012892
:1056D00016D0A804800E801FC5B2E57401F042FE0A
:1056E00061190875002D06D0314620462A460E3134
:1056F0001430FCF7C8FA0421204602F02DFF70BDDB
:105700000025EAE770B5114D2C7BBF2004402146EF
:10571000792002F0E1FA2C730D49022008720D483D
:1057200001784020662905D0A97A0143772002F04C
:10573000D3FA70BD084AAB7A11791943014311714C
:1057400005220549732002F0DFFB70BDC41600205E
:10575000E0020020CF0200202803002070B50E4C8C
:10576000054620780D490007000F411810222846F1
:10577000FCF72CFA2078C00704D02946204604F014
:1057800097F870BD044804F0C3F8284604F0B4F854
:1057900004F088F870BD00000C03002006A100088A
:1057A0003EB50121084601F047FD08210120FBF725
:1057B00069F9FF2001300090002469460C714C719A
:1057C0008C716846FBF732F90720694608724C7203
:1057D0008C7202A800F0D6FB3EBD3EB500F01CF86E
:1057E0000121084601F028FD08210120FBF74AF9B4
:1057F000FF200130009000246846047144710125A7
:105800008571FBF713F907216846017244728572AE
:1058100002A800F0B7FB3EBD08B50121880401F0E5
:10582000F3FC6846FBF7DAF9FF200130694608808F
:10583000012088700420C8700148FBF773F908BD87
:105840000004004800BF704710B58CB00C4610280B
:1058500011D201007944097949188F440C071528A1
:10586000AB5C774FB2B9C0C7D6DD0EE8734A0120F2
:105870001268214690470CB010BD704A0E20126885
:10588000002190470CB010BDE07AE11C0930C2B293
:105890006846FCF7C4F9E07A0C34005D08A9087288
:1058A000664A02201268694690470CB010BDE07845
:1058B0006A461070607B227B000210436A4650816A
:1058C000E07BA27B000210436A469081207921464A
:1058D0005070487C0A7C000210436A46D0814879A7
:1058E000907000A80622A11D0330FCF757F9534A17
:1058F00003201268694690470CB010BDA078694635
:105900000870E0784D4A4870126807209047694651
:105910000878FF2187E060786A461070217851701E
:10592000002901D000213CE0002103F09FFB00286A
:10593000E2D168460078002103F036FB6846007823
:105940003F4A012103F0FAFE0CB010BDE0786A4630
:105950001070A178517061792279090211436A4669
:105960005180E179A279090211436A469180617AF6
:10597000227A090211436A46D180002103F076FBA6
:10598000002804D168460078002103F00DFB68462A
:105990000078012103F06AFB012804D168460078F1
:1059A000012103F001FB254A062012686946904751
:1059B0000CB010BD214A04201268002190470CB0A1
:1059C00010BD1E4A08201268214690470CB010BD39
:1059D0001A4A09201268214690470CB010BD174A98
:1059E0000A201268214690470CB010BD2078154A55
:1059F000022103F0A3FE60780028F5D00F4A0B20A7
:105A00001268214690470CB010BD0C4A0C20126859
:105A1000214690470CB010BD084A0D20126821465F
:105A200090472078022103F0BFFA0CB010BD034A62
:105A30000F201268214690470CB010BDC402002010
:105A40008038010080A903007047000038B5214D5F
:105A5000827A01460B316B680446CF2A37D009DCC5
:105A6000C32A22D0CC2A10D0CE2A02D10E20002167
:105A7000984738BDD02A14D0DD2A1ED0EB2AF8D1A1
:105A8000A07B69460870092015E00120984712495B
:105A900012484A7802700622801C891CFCF7BFF865
:105AA00038BD04200021984738BD607B69460870E6
:105AB000A07B48700A20984738BD03F041FB1020B6
:105AC00060730D2021466A680C31904738BD0F2065
:105AD000984738BD48040020CF020020D804002099
