:020000040800F2
:10000000A0170020DD00000803010008050100081A
:1000100000000000000000000000000000000000E0
:1000200000000000000000000000000007010008C0
:10003000000000000000000009010008117E000817
:100040000D0100080D0100080D0100080D01000858
:100050000D0100080D0100080D01000891090008BC
:10006000000000000D010008690700089D07000856
:100070000D0100080D0100080D0100080D01000828
:100080000D01000800000000000000000D01000844
:10009000000000000D0100080D0100080D0100081E
:1000A000000000000D0100080D0100080D0100080E
:1000B0000D010008000000000D0100080D010008FE
:1000C0000348854600F090F800480047998A0008E8
:1000D000A01700200138FDD1704700000C4880F3C4
:1000E00008880C480168090E0B4A914205D10B485B
:1000F0000B4901600B480C4901600C4880470C48D3
:100100000047FEE7FEE7FEE7FEE7FEE7FEE700004A
:10011000A0170020040000001F000000181002407B
:100120000100000000000140000000006D7E00089A
:10013000C100000830B50B460146002020220124F2
:1001400009E00D46D5409D4205D31D469540491B0B
:100150002546954040191546521E002DF1DC30BD54
:1001600070B500242546002801DA01244042002908
:1001700001DA01254942FFF7DDFFAC4200D04042E1
:10018000002C00D0494270BDF0B51FB406460020D7
:1001900082B005464024019100901BE0019922465F
:1001A0000F46304600F042F8049A059B801A9941A8
:1001B00010D310461946224600F028F8361A8F410F
:1001C0000197224601200021009F00F01FF83818F7
:1001D0004D4100902046641E0028DFDC019B009802
:1001E0002946324607B0F0BD064C0125064E05E013
:1001F000E36807CC2B430C3C98471034B442F7D348
:10020000FFF762FF389D0008589D000810B5202AAE
:1002100004DB0146203A9140002010BD914020238C
:100220009C1A0346E3401943904010BD10B5202AA4
:1002300004DB0846203AD040002110BD0B46D340D5
:10024000D0402024A21A91400843194610BD70B531
:100250008C180578401C6B075B0F01D10378401C9C
:100260002A1106D10278401C03E006780E70401C6B
:10027000491C5B1EF9D12B0705D40023521E0DD457
:100280000B70491CFAE70378401CCB1A921C03E060
:100290001D780D70491C5B1C521EF9D5A142D8D3A4
:1002A000002070BDFFB581B001980A9C1D4617461D
:1002B0000E46002808D104F063F9002804D017483E
:1002C0000078002825D102E0052005B0F0BD38787F
:1002D000C00720D0124A1B201071E01C10700020B3
:1002E000507004219170D070707850713078907196
:1002F000002004E0295C1318401CD971C0B2A04250
:10030000F8D3E41DE2B20649019808F005FE002882
:10031000DBD00120D9E70820D7E70000E503002063
:100320008811002004490878401CC0B208700628D3
:1003300001D90020087070473A00002070477047CC
:1003400010B5134886B00EC86C460EC407C807C463
:10035000104C0021204607F058F9204607F050FACB
:100360000121204607F03AF90021204607F036F92E
:1003700000231A466946084807F0F4FA06480023A5
:100380001A4603A9143007F0EDFA06B010BD0000BC
:1003900080930008003800404400024010B5024835
:1003A00008F02AFE10BD00002504000838B501F051
:1003B0004DFF184C6178002912D0012914D0022970
:1003C00012D1A1887D22411A89B2920191420BD3A8
:1003D000114D60602878810707D40221084306E0A8
:1003E00000F076F90120607038BDFD2108402870CA
:1003F00004200090084B094A09492078FFF752FF72
:100400000028F1D16878401C6870A878401CA8705A
:1004100038BD00000000002034000020380000201B
:100420002B9500080EB5234A030007F043FE0E0E7D
:10043000080E0F0E0E2620310E0E0E383D0E50788F
:10044000012802D11CA007F025FE0EBD48781070CF
:10045000022050700B794A798879009002930192BA
:10046000CB790A7A497A18A007F014FE0EBD002055
:1004700050704A7809781FA019E0CA8888880090CF
:1004800001924B884A780978234807F003FE0EBD95
:100490008A780978134621A007F0FCFD0EBD087884
:1004A000274908F096FD0EBD4A78097825A007F087
:1004B000F1FD0EBD00000020416476657274697321
:1004C000696E672E2E2E0A00436F6E6E656374652B
:1004D0006420746F20253032783A253032783A25FE
:1004E0003032783A253032783A253032783A253031
:1004F00032780A00446973636F6E6E656374656475
:100500002C2049443A25642C20526561736F6E3A61
:10051000307825580A000000EC9C000853544154E0
:1005200055533A2025642C205458205048593A20DD
:1005300025642C205258205048593A2025640A003E
:10054000F1FB090041555448205265706F72742CBC
:100550002049443A2564202C205354415455533AA1
:1005600025640A00014A5268104700005803002021
:1005700001480068704700003403002010B50C48A3
:100580004468002C13D001688C4203D100214160E3
:10059000016001E021684160207906495038000679
:1005A000800D095820468847204600F073FA10BD98
:1005B00018030020189A0008F8B500F0B5F80446B2
:1005C0000125030007F076FD0504070A160D150046
:1005D00004F02EFB0EE001F09FFA0BE001F0D6F9DB
:1005E00008E000F0B1F8002804D1204600F066FBD6
:1005F00000E0092519480168491C016007F0B0FFB7
:1006000000F0A2F8012827D1154CE07E03F0B8FFD6
:1006100001281FD121460125FB22E039114801F0B4
:100620003EFA2646E03EB1780F4A89005158E07EF6
:100630008847002810D1B07805280BD130791328CD
:1006400008D1E07E317A000208436946088005201F
:10065000FFF788FF06F022FE2846F8BDAC02002016
:100660006911002088110020C09C000810B572B6E6
:1006700008F03AF908F024F908F050F9002119209F
:10068000800106F075FC01F093F908F059F908F0C3
:1006900051F906F079FA06F0A7FD62B60024FF21B1
:1006A000204608F029F8641C2406240EF7D010BD5B
:1006B0001FB500206A4610702021518049029180A8
:1006C0000721517390736C460FCC08F06DFB1FBD72
:1006D00010B5FFF7EDFF0C21054808F02DFB04488D
:1006E0000A210C3008F094FC08F042FB10BD000019
:1006F0005F9300080A490A780A49012A097803D950
:100700005200921E511889B20F2907D329220F399E
:10071000514389B2814201D30020704701207047C4
:100720007B020020700200200649002072B6C20041
:1007300052185268002A04D162B6401CC0B2052883
:10074000F4D37047240D00200348C07EFF2801D059
:10075000012070470020704769110020014800788F
:10076000704700006702002070B5202000F056F8A6
:100770000124094D002803D06C70202000F02AF8D5
:1007800001267602304600F049F8002803D02C708C
:10079000304600F01FF870BD0800002070B501263B
:1007A0007603304600F03AF80124094D002803D0C2
:1007B0006C70304600F00EF801267604304600F0EA
:1007C0002DF8002803D02C70304600F003F870BDDF
:1007D0000800002001494860704700000000024006
:1007E0000268520852000A430260704710B501685F
:1007F0004908490001600021016041608160C160D9
:10080000C0B205210838FFF795FC0F21814002484E
:1008100042681143416010BD00000240034909686D
:10082000014201D0012070470020704700000240C3
:10083000002A026801D00A4300E08A430260704740
:1008400010B50A7A8B7D4C7C1A430B7C23431A43E8
:100850004B8A1A438B8A1A430B8B1A434B8B1A43CE
:100860000368094C23401A43026002680123DB033A
:100870009A438B8B1A430260CA6842600A6882609E
:100880004968C16010BD00000F80FFFF00210160BA
:1008900041600172C160017441744182818281753D
:1008A0000183418381837047F8B5057A8821364AF0
:1008B000694306468C18C17A14300C36009003291F
:1008C0002AD0042927D13148AF00C559042228462F
:1008D0001E30009901F017F929461A3120460822E6
:1008E0005830009101F00FF908223146009801F0CC
:1008F0000AF9294628461231223008F0BBFBB02005
:10090000287122480021C151284607F053FA204699
:10091000603008F0E6FBF8BD3046163004F0B8FA57
:100920003146204608220A31603001F0ECF83146A9
:10093000204604221231583001F0E5F800F05AF94F
:1009400007466E2038713846BD720A2231460B3098
:1009500001F0D9F80421384607F02CFA304608F0A7
:10096000C0FB204608223146683001F0CCF8204612
:1009700004225C30009901F0C6F82B460C220421B9
:10098000304603F09FFFF8BD1C0E0020A00200209F
:1009900070B5FF240134204600F018F800280CD070
:1009A000204600F00DF8054D01E003F0E5FE21467C
:1009B000284600F0FAF80028F7D170BD000400487E
:1009C00001494861704700000004014005494A6937
:1009D000024204D00968014201D001207047002082
:1009E000704700000004014000B50346006807F0AE
:1009F000A1FE987900281AD019791048002909D049
:100A000041681A68114341605979022907D00029C9
:100A10000ED008E001681A6811430160F4E78168AC
:100A20001A6811438160C1681A681143C16000BD32
:100A300081681A681143816000BD00000004014014
:100A40008B08084A10B59B009A1893688907090F0C
:100A50000F248C40A34393609368884003439360C2
:100A600010BD00000000014072B6002800D0FEE773
:100A700062B6704772B6002808D0054A51688842AD
:100A800004D0016050601078401C107062B670474E
:100A900070020020002808D0044A5168884204D01F
:100AA000016050601078401C107070477002002088
:100AB00010B50146002200290FD0521C0B68D2B29B
:100AC000002B01D01946F6E772B6044B5C680C6047
:100AD000586018788018187062B610BD7002002037
:100AE000074B014600290AD01A78521C1A700A686E
:100AF000002A01D01146F5E75A680A60586070472D
:100B000070020020F0B5CA7813071B0FD20601D57A
:100B10008A78134300229406240E0E8801259540FE
:100B20002E4207D005680F26A640B5431E46A640B4
:100B300035430560521CD2B2082AECD30A88071D3F
:100B4000120A944600229406240E0125954066461A
:100B5000354207D03D680F26A640B5431E46A64045
:100B600035433D60521CD2B2082AECD3CA78282AF9
:100B700006D0482A03D1026909880A430261F0BD00
:100B8000426909880A434261F0BD4B0710B5DB0E8C
:100B9000082901D2203000E024300F249C40016855
:100BA0009A40A1431143016010BD8068084000D005
:100BB0000120704741617047016170470021C943BE
:100BC0000180022181700421C170704772B6084A09
:100BD000506800280AD01178002906D0491E1170EB
:100BE000016851600021016000E0002062B670479A
:100BF0007002002006494868002807D00A78521E73
:100C00000A7002684A6000210160704772B6FEE710
:100C10007002002030B4134D6C68002C1ED00028E8
:100C20001BD00122214629280CD9521C0B68D2B2B4
:100C3000002B05D02938C0B219462928F5D801E083
:100C400029280AD82878D31D984206D3801A2870FC
:100C5000086868600020086000E00024204630BC7E
:100C6000704700007002002030B572B6124D6B68FC
:100C7000002B1ED000281BD00122194607E0521C71
:100C80000C68D2B2002C05D029382146C0B22928E0
:100C9000F5D801E029280BD8287814460F34A04253
:100CA00006D3801A2870086868600020086000E099
:100CB000002362B6184630BD7002002010B506F061
:100CC000DBFA0446007960380106880D03490958AB
:100CD000204688472046FFF7CDFE10BD649B0008E4
:100CE00010B5037A002B14D10A49097801290FD0D5
:100CF000417A15290CDA05290AD0132908D10122D5
:100D00000221093003F0C2FDB121002003F024FECE
:100D100000BF10BD1C0E002070477047704700BF19
:100D20007047000070B572B61F49497A62B68906ED
:100D3000890F0BD00C24FFF749FF61210171D321EA
:100D40008172C472042107F017F870BD00240646B2
:100D5000164D0836E000001B295CFC2906D040191E
:100D60000722314600F07BFE002803D0641CE4B269
:100D7000042CEFD3042C0BD10024E000001B285CD2
:100D8000FC2807D0641CE4B2042CF6D3042C09D050
:100D90000024D0E7E000001B40190722314600F094
:100DA0007EFEF3E70724C6E778020020C00E00208D
:100DB00010B572B60E48407A62B68006800F0BD02E
:100DC0000C24FFF703FF61210171D2218172C472EB
:100DD000042106F0D1FF10BD0020064AFC21C3000B
:100DE0001B1A401CC0B2D1540428F8D30024E8E7F1
:100DF00078020020C00E0020FEB504464689808996
:100E0000864205D030184608012006436681A68137
:100E1000FFF7DCFE054621460C311030062200911A
:100E2000029000F03CFEA0890A214843A081208A5C
:100E30002349C0002082277A882078434418D5218E
:100E4000002003F089FD20462630062200990190FB
:100E500000F005FE00282BD01A49002042008A5AD3
:100E6000B24203D8401CC0B20728F7D3401C6873B5
:100E7000608B3B46001DE88228460B2200210D3086
:100E800003F004FD6C202871284606220C300299DC
:100E900000F02CFE0C49EF72B8000D50608B06225A
:100EA000001DA08526840099019800F0F8FDFEBD84
:100EB000B02028710021284606F05EFFFEBD00002C
:100EC0001C0E002026970008A002002070477047E3
:100ED00070B50546FFF77AFE0446A87A2946C01C7D
:100EE000C2B220460831083000F0D9FDA87A6072FD
:100EF000A87A0021072801D821200155EF20207170
:100F0000EA7A2B7A88201D4D58434019022A03D1D2
:100F1000422505708030C180184603F031FB00285F
:100F200019D01749D800401872B6016800290CD0B2
:100F3000921E130007F0BEF8100B101010102020A6
:100F400020101020102020201020446012E0416862
:100F5000216007E062B670BD4268E57AD37AAB42A1
:100F600002D322604460F5E78A4200D10460116830
:100F7000216040680460EDE70C60FBE71C0E002078
:100F8000DC02002070B50546FFF720FE0446512024
:100F900020712946204620220831083000F07FFDCC
:100FA000204606F0F9FE70BDF8B5067A882014498F
:100FB0007043451800275320475575204755FFF7C4
:100FC00005FE61210171DD218172C77206736978A6
:100FD00004464A070D300621002A06DA0322027071
:100FE000417002223346112103E001703346012291
:100FF0000D2103F04BFC0421204606F0BDFEF8BD98
:101000001C0E002070B50546FFF7E0FD0446542095
:1010100020712946204611220831083000F03FFD9A
:10102000204606F0B9FE70BD70B50546FFF7CEFD4F
:1010300004465220207129462046002208310830FB
:1010400000F02DFD204606F0A7FE70BD00BF7047E2
:1010500010B5FFF7BBFD61210171C1218172002133
:10106000C1722C220273417301218173042106F0A5
:1010700083FE10BD10B5FFF7A9FD04466120207165
:10108000C620A0720020E0722046082209490C30D8
:1010900000F0C4FC084800784006400F072803D140
:1010A000207B4008400020730421204606F064FEA7
:1010B00010BD0000169700086702002010B5044616
:1010C000FFF784FD217A61220271EB2282720022F5
:1010D000C272017388225143084A03238918603180
:1010E0004A7F4273897F8173042A00D143730429A4
:1010F00000D18373042106F03FFE10BD1C0E0020BA
:1011000070B5044605460C3408220C49204600F010
:1011100085FC0B4800784006400F072803D1607813
:101120004008400060702B7A08220E21204603F010
:10113000ADFBD821002003F00FFC70BD169700080E
:101140006702002010B5FFF741FD61210171D12137
:1011500081720021C1720421017306F00DFE10BDE1
:1011600070B5057AFFF732FD044661202071D72063
:10117000A0720020E07225738820454306480522AE
:10118000291820460D30143100F089FC0421204636
:1011900006F0F2FD70BD00001C0E00207047704785
:1011A00000BF704700BF704770B572B61849497AE2
:1011B00062B68906890F0BD00C24FFF707FD612169
:1011C0000171D4218172C472042106F0D5FD70BD75
:1011D0000024104D06460836E000021BA85CFC28DF
:1011E00006D050190722314600F039FC002807D0FC
:1011F000641CE4B2042CEFD3042C06D00024DCE7FA
:10120000FC20E100091B6854F6E71224D5E7000032
:1012100078020020C00E002010B5144C0146E07A80
:10122000000701D5124801E011485C301C306061B4
:101230000A7A0931931DC37700F031FCFFF7C6FC31
:1012400061210171CA2181720021C172042106F05D
:1012500093FD72B6E07A0007A07A02D5F721084024
:1012600001E008210843A07262B610BD7802002098
:101270004C0D002070B5234DAA7AD20701D00C2462
:1012800034E00146204C0F220831201D00F007FCFD
:10129000207A012803D0A1888A00891800E0332130
:1012A00061611A49085C012803D1A17A002900D0A4
:1012B0008120617A002901D0402108432072607C9E
:1012C000124980009C3141180E480422443000F03D
:1012D000A5FB72B6E87A8006A87A02D5DF2108401D
:1012E00001E020210843A87262B60024FFF76EFCDB
:1012F00061210171C8218172C472042106F03CFD94
:1013000070BD000078020020A80D002002970008A0
:10131000F8B5007A4649C207C87A464B5DD0002529
:1013200072B6012862B62CD0187A07073F0F72B642
:1013300003F08EFA064662B6012803D1002F10D0C2
:10134000012F0ED03A48443001783A48017000210C
:1013500081613749B000283100900858002802D038
:1013600004E00D250DE0FFF731FC0446002F21D0ED
:10137000012F0AD0B02020710021204606F0FCFC8D
:10138000002572B6002D21D025E02A48807A002859
:1013900000D0012565733C20A07226492046062214
:1013A0000B310E3000F07BFB204606222249143020
:1013B00000F034FB6A202071E672012020731C4982
:1013C000009828310C501B484670D9E71848012274
:1013D000817A1143817262B61FE072B68A7A52082E
:1013E00052008A7262B6C00716D15878114A882115
:1013F00041437432515C02290ED000280CD10120E7
:1014000010700B4A002128321068002804D0B02345
:101410000371116006F0B0FC0025FFF7D7FB6121D6
:101420000171CC218172C572042106F0A5FCF8BDC2
:1014300078020020A80D00207098000870B50446BE
:10144000FFF7C4FB257A61210171EE218172002131
:10145000C1720573042106F08FFCA089FB2801D915
:10146000FB20A081E1891148814200D9E081218AD5
:10147000FB2906D988210E4A694389188031897869
:101480002182618A814200D960820A49E8004018BD
:1014900021460C3108220C4600F001FB2B460822A5
:1014A0001421204603F0F2F970BD00004808000046
:1014B0001C0E00201003002070B50446FFF786FBC9
:1014C00061210171EC2181720021C172617A1125C3
:1014D0008A08002A0DD1A27A93080AD1237A0D4CEA
:1014E000002B04D0012B0CD0022B0ED106E0914230
:1014F00001D0C57209E06170A17006E00029FAD13F
:1015000003E0002A01D06270A270042106F034FCCE
:1015100070BD00009002002010B50949027A0A70DF
:10152000427A4A70807A8870FFF750FB612101711E
:10153000C42181720021C172042106F01DFC10BD7E
:10154000590300207047000070B50246067A8820D3
:10155000224970434418002E37D1907A0025810823
:1015600011D1D17A8B080ED1527A002A09D0012AE2
:1015700013D0022A0ED020466030417F8175817FD2
:1015800010E0884201D011250DE0214660318875B8
:10159000C87508E00028F8D105E0002903D02046EE
:1015A00060308175C175ED21284603F0D5F9002D15
:1015B0000BD120466030817D427F914206D10021CF
:1015C0008175D2B2084603F0B7F970BD20463346A4
:1015D00002221621763003F059F970BD1C0E00204E
:1015E00010B5134CA27A520701D00C2414E072B645
:1015F000062201460E480831533000F050FA72B608
:10160000E07A8006A07A02D5DF21084001E020219F
:101610000843A07262B60024FFF7D8FA6121017175
:10162000C7218172C472042106F0A6FB10BD000020
:101630007802002010B5144C0146E07AC00601D5AE
:10164000124801E011485C301C3060610A7A203099
:10165000C277093100F023FAFFF7B8FA612101716E
:10166000CB2181720021C172042106F085FB72B684
:10167000E07AC006A07A02D5EF21084001E01021EF
:101680000843A07262B610BD780200204C0D002005
:1016900010B5007A0F49C207887A72B616D0820751
:1016A00007D40D4A0123137093881381022210433B
:1016B000887262B6FFF78AFA61210171CE218172C8
:1016C0000021C172042106F057FB10BDFD2210401D
:1016D000EEE7000078020020100E0020F8B5044666
:1016E00072B61F4FB87A800762B601D50C262BE080
:1016F0001C4D2146002604220A31A81C00F0CFF917
:10170000207A6870A07BA871E07BE8716888164A2F
:10171000904200D96A8068888100401881B269804F
:10172000A888904200D9AA80A88882008018A88042
:10173000081A6880F87A4006B87A02D5BF210840B6
:1017400001E040210843B872FFF740FA61210171BE
:10175000CD218172C672042106F00EFBF8BD000097
:1017600078020020100E00203333000070B50546CB
:10177000FFF72CFA044653202071294620461B22ED
:101780000831083000F08BF9204606F005FB70BDEB
:101790007047704710B5FFF719FA0446062207494B
:1017A0000C3000F07CF961202071C220A072002072
:1017B000E0720421204606F0DFFA10BD6902002025
:1017C0007047000010B5FFF701FA044625221049C2
:1017D0000C3000F023F961202071BF20A07200209E
:1017E000E0720421204606F0C7FAFFF7EFF9084936
:1017F00004461B222531093000F010F972202071B7
:101800001B2020720421204606F0B6FA10BD00000D
:10181000C89B000810B5FFF7D9F90446082207490C
:101820000C3000F0FBF861202071C020A072002075
:10183000E0720421204606F09FFA10BD089C0008C3
:1018400010B5FFF7C3F90446082207490C3000F031
:10185000E5F861202071BE20A0720020E072042112
:10186000204606F089FA10BD0E97000870B5047A7C
:101870000546002C0FD1B221002003F06DF80C3585
:1018800005220549284600F0C9F8234605220C2107
:10189000284602F0FBFF70BDFD96000870477047B8
:1018A0007047000010B5047AFFF790F961210171CB
:1018B000C32181720021C172047301214173882107
:1018C0004C4304496118497F8173042106F054FA9E
:1018D00010BD00001C0E002010B5FFF777F9612144
:1018E0000171B42181720021C172042106F044FA11
:1018F00010BD704710B50D49027A0A70427A4A70DD
:10190000C27A8A70427BCA70C07B08710820FFF7D8
:10191000ABF9002808D061210171B3218172002147
:10192000C172042106F028FA10BD000060030020F7
:1019300010B50749807A0870FFF748F961210171F5
:10194000B92181720021C172042106F015FA10BD7F
:101950005803002070477047417A044A8900525862
:10196000037A01460B311846104700002C960008F8
:1019700030B4427A044B92009B58047A0246817A32
:10198000204630BC0B3218477895000810B505F09A
:1019900073FC04460079054990380006800D09580B
:1019A000204688472046FFF765F810BDE0960008FE
:1019B0000F4A0020342141438B183433401CC0B2FD
:1019C00053502C28F6D334210023484313500948A0
:1019D0002D21426001704370074A1846C1005350E0
:1019E0008918401CC0B24B600528F7D3704700002F
:1019F0000004002070020020240D002030B40023D9
:101A0000002A07D9CC5CC55CAC4203D15B1CDBB2BD
:101A10009342F7D3D01A30BCC0B27047002A05D029
:101A2000521E1206120E8B5C8354F9D17047002AA5
:101A30000BD010B40023CC5C521ED2B25B1C845479
:101A4000DBB2002AF7D110BC70477047002A05D0DE
:101A5000521E1206120E8B5C8354F9D1704730B4BB
:101A60000023002A07D9CC5CC55CAC4203D15B1CC7
:101A7000DBB29342F7D3D01A30BCC0B2704730B457
:101A80000023002A07D9CC5CC55CAC4203D15B1CA7
:101A9000DBB29342F7D3D01A30BCC0B27047002AF1
:101AA00005D0521E1206120E8B5C8354F9D170477A
:101AB000002A0BD010B40023CC5C521ED2B25B1CA7
:101AC0008454DBB2002AF7D110BC70477047002A5B
:101AD0000BD010B40023CC5C521ED2B25B1C8454D9
:101AE000DBB2002AF7D110BC704770470023002AF0
:101AF00008D910B4CC5CC4545B1CDBB29342F9D35C
:101B000010BC70477047002A05D0521E1206120EF4
:101B10008B5C8354F9D1704710B505F0ADFB0446DA
:101B20000079054980380006800D0958204688470D
:101B30002046FEF79FFF10BD109C0008F0B5074639
:101B4000C468007A882148436D498DB045182846FD
:101B5000603007F0BFFA2046143029467031052264
:101B600006460C90FFF7CFFF294620465831082241
:101B70001930FFF7C8FFA57A492069460870002090
:101B80008873CD7331466E460D22701CFFF7BBFF84
:101B900000205C49325C095C514008AA1154401C89
:101BA000C0B21028F5D3104607F088FA07F05CFAA7
:101BB000102254496846FFF749FF012069464870E2
:101BC000787A887008A807F08CFA002008AF395C92
:101BD000325C51403954401CC0B21028F7D338460B
:101BE00007F06CFA07F040FA01206A4610740021F1
:101BF0009177D07704A80D2201300C99FFF783FF6D
:101C0000102240496846FFF721FF21460B312A4642
:101C100068460C91FFF777FF08A807F062FA0020EA
:101C2000395C325C51403954401CC0B21028F7D3A3
:101C300008A807F043FA07F017FA08A807F051FAC6
:101C400004A807F03BFA07F00FFA684607F049FAD4
:101C500000202118335CCA7A20315A40401CC0B29F
:101C60008A700728F5D360696E46FF220346F17932
:101C700013434B40214629310B70030A367A134334
:101C800073404B70030C6E46767A13437340000E1C
:101C90008B7010436E46B27A5040C870217EF07A45
:101CA00041400C98203081700020211833184A7E62
:101CB0001B7B20315A40401CC0B28A730428F4D3E5
:101CC0000020B077F07704A807F0F8F907F0CCF916
:101CD000684607F006FA0020395C325C51403954FE
:101CE000401CC0B20428F7D36019042208A922308E
:101CF000FFF709FF281D2121085565720DB0F0BDC1
:101D00001C0E002070980008014610B518310830EC
:101D100007F0B0F9FEF76EFF044661202071D9206C
:101D2000A0720020E07220460C3007F0EBF904218D
:101D3000204606F03FF810BDF8B5067A8821134A10
:101D400071438C18214660310D46093007F092F935
:101D5000FEF750FF61210171DC2181720027C772FB
:101D60000673042106F026F80022334605211046AA
:101D700002F0A8FD284607F0B4F905480221817158
:101D800069752767A7672F752F77F8BD1C0E002090
:101D90007802002010B510490830097804460A0777
:101DA0000E49120F51181022FFF750FE21460A4823
:101DB00007F060F9FEF71EFF044661202071DA206B
:101DC000A0720020E07220460C3007F08AF904214E
:101DD000204605F0EFFF10BDAC020020BE970008C2
:101DE000F8B5044613300090FEF704FF06461022B3
:101DF00022300099FFF787FE009803F049F8257A12
:101E00003046164EAF00F051FEF7F4FE622101712C
:101E100000214172DB21C172042105F0CBFF009843
:101E200007F05FF9F0592146093116220C460830B7
:101E3000FFF769FE88200A49684340186030407DFA
:101E40002B46800705D000220A21104602F03AFDF9
:101E5000F8BD162203212046F8E70000A00200206A
:101E60001C0E002010B5FEF7B1FE61210171E521C5
:101E700081721E21C172042105F07EFF10BD10B5D4
:101E8000FEF7A4FE61210171E42181720121C1727A
:101E9000042105F071FF10BDF8B505460746067A26
:101EA0008820CA4970434418F97AC9480C3504227D
:101EB00040780B0006F0FEF8190E33323D3D4D51CF
:101EC000648295A032A5C582F7F7C4F7F7F6F5E16D
:101ED000FB32F7002078562807D1802020707D2023
:101EE000025D31462A2002F027FD214620460622C7
:101EF00026310E30FFF7B3FD00280FD0FEF766FE47
:101F000004466C2020710622E672E91C20460C3043
:101F1000FFF7C5FD0421204605F02EFFF8BD20780F
:101F20005628FBD1812020706034627F31462A2000
:101F300097E0FEF74BFE04465520207139462046B7
:101F40001A2208310830FFF7AAFD204605F024FFC9
:101F5000F8BD00223346062151E000223346062117
:101F6000104602F093FC387B022803D00122314650
:101F700000207DE0FEF72AFE67210171867219E0DC
:101F800020784E280ED0562816D028781628DFD173
:101F90006034627F31461A2002F0CEFC0020A0752A
:101FA000E075F8BD2270FEF711FE6D2101711A2156
:101FB0008172C6720421AFE72270E9E708228549E1
:101FC0002846FFF72BFD844800784006400F07287D
:101FD00003D1687840084000687008223346092120
:101FE0002CE0FEF7F3FD04466D2020710020A07266
:101FF000E6720822294689E7002233460B21002099
:1020000052E02078432810D08C280ED073484078B6
:102010000007C6D5FEF7DAFD0446652020710522CB
:102020002046A67229460B3072E76A490522193903
:102030002846FFF7F3FC052233460C21284633E0FF
:102040006D1C207843280FD044280DD0562812D07C
:1020500028462038C07F1628A3D16034627F2878B4
:10206000314602F069FCF8BD227028780022314622
:1020700002F044FCF8BD2270EFE729786A7811403D
:102080008907890F04D07D22125D9143084001D158
:102090006034607F28700222687033461721CDE7D4
:1020A00005E041E037E08BE002F0F0FBF8BD297875
:1020B0006A7811408F07BF0F1ED022466032917D93
:1020C000002900D00F40517F38408843070013D0CB
:1020D000B94210D0B80701D5022702E0F8070AD0AC
:1020E00001272F706F70608B21460830A085022277
:1020F0002C31A81C03E00027042239492846FFF7A9
:10210000CEFC334604221821284602F0BFFB60347F
:10211000A775E775F8BD2E48F100803008183346E2
:102120000822152102F0B2FB294A0021F00080327A
:102130008718284A480008322B5A125A934200D96D
:102140002A523A5A2B5A9A4200D22A52491CC9B2F0
:102150000429EED36888298880080E3880B281422D
:1021600002D98021085501E0802211554008C01F86
:10217000298880B2814202D97F21085501E07F2061
:102180000155E888A98880080E3880B2814202D9BA
:102190008221085501E0822211554008C01FA988FC
:1021A00080B2814202D98121085501E08120015588
:1021B0007F20025D80346178304602F0AEFBF8BDCE
:1021C00001220721384633460B306DE71C0E0020F4
:1021D000900200201697000867020020600300208C
:1021E00070980008164AD07929280FD02A280DD0D7
:1021F000322802D0352821D108E0506AC189D18126
:102200006030807F012801D1491ED18170B5012045
:1022100090700C4C0026E670FF2020700A4D66700E
:102220002868002804D06868FEF75AFC6E602E60AB
:102230000222A11CFF2005F05BFA70BD7047000070
:1022400078020020000F0020EC0200200148006806
:10225000704700002C0300204248817800297FD07D
:10226000F8B5C07928380E2869D201007944097977
:1022700049188F440666660664646464646466068E
:102280000666394EF1787078814258D00246203285
:10229000914201D9202403E0081A0406240E4ED0EE
:1022A000324F31783A68507A431ADDB2937A181A6D
:1022B0004019C3B2A34226D25118C0B20246301D03
:1022C0000B31FFF720FC601BC4B279683868884284
:1022D00016D0827A407A0B31101A4019C0B2801998
:1022E0002246001DFFF70FFC3868817A407A081AF1
:1022F000201A3070786838600068002800D0786054
:102300006019C4B212E051182246301D0B31FFF79C
:10231000FAFB307800193070AC4207D100203070E1
:10232000786838600068002800D07860002C06D0FB
:102330002146301D04F0F4FE707800197070F8BD6D
:102340000EE00B4CE0786178401A1028F7DD6A2027
:1023500005F090F81028F2D3102000F0D7FFF1E735
:102360007047000078020020DC0E0020F4020020FC
:10237000000F0020F0B5FA4AFA4E507987B00428D1
:1023800064D0D069F84947780197456809688D425B
:1023900000D0FDE311460A7AAA180A7200780228D2
:1023A0007DD20D4600287BD0F04F387804F04AFEED
:1023B000EC7AA97A20464C406040E872C0070BD006
:1023C000A00609D51C22EA49EA48FFF79CFB042233
:1023D000E949EA48FFF797FBE87A80070BD56006E2
:1023E00009D50C22E649E748FFF78DFBE2490422B4
:1023F000081FFFF788FBE87AE34A4007400E68723F
:10240000E9893878091AE981296A4C68201A4860F4
:10241000E96900200870387848607D2141431469DB
:10242000CB17556909196B41536111613179C9069F
:10243000C90E3171D5490B6818180860C878EF28A3
:1024400000D81DE20007000FC87019E2D07A937A15
:102450000146584043074CD04140D172107916468E
:10246000507102F047FCF0690125C04C05702178DD
:102470004160306AFF2101708178317104218170DF
:10248000F07A4107490E7172C10719D01C22B84970
:10249000B848FFF738FBB8490422081F01E0A0E163
:1024A00046E0FFF730FBF069B2494570306A45708D
:1024B000097A0A07B649120F895C2278891812E056
:1024C000800711D5AE490C22881AFFF71CFBAA49D8
:1024D0000422081FFFF717FBF06902214170306AE0
:1024E0004170A84989884160207804F0ABFD07B0AD
:1024F000F0BDA548A74C0269416912190023026189
:10250000594141613079A149C006C00E307119228C
:102510000868920180180860C878EF2802D900077F
:10252000000FC870FEF72AF804F040FC07B0F0BDB9
:10253000022004F087FD06F0EDFB9748017AC020E9
:1025400001436B2004F0F6FF04F04EFEE869934C63
:102550004678002E14D0924804F0BEFA0422914925
:102560007A2005F0FFF800219B2004F0E3FF2520EE
:1025700004F03EFC012E53D0022E7DD000BF7FE13F
:1025800089486862FF2004F033FCE87900282FD0E6
:102590000120FEF769FA696A04227A20091D05F014
:1025A000E1F8686A7521095CA971027F2E30105C20
:1025B00006F04AFD686A027F2E30105C205C04F051
:1025C000EDFB686A027F417E521878498A5C027787
:1025D000083004F081FA686A6030407F02281DD01C
:1025E000002004F09BFC04F067FD02F06BFB47E168
:1025F000696A0320085604F001FC02F02BFB32202C
:10260000E871E889801EE881286A4168891E416076
:10261000E8690321017002214160BCE70120E0E785
:10262000544F88217878604A414389186962697AF1
:10263000C90606D400285CD102F018F90120787090
:1026400057E0E879002801D00220ECE0022038565B
:1026500004F0D4FB02F0F0FB3878554E305C06F005
:10266000F3FC3878305C205C04F098FB3978434800
:10267000405C3870387A00E038E04E4A0607360F82
:102680009070012E06D0E87A000706D54B484A4CD8
:10269000C07E05E04A4C0C2002E04B48494CC07E0D
:1026A000D070901C04F03AFB787A002818D0474884
:1026B00004F01AFD002004F031FC022E12D004F0C8
:1026C000FBFC0B20E871204604F002FD286A4168FB
:1026D000891E4160E8690321017002214160CFE059
:1026E0003B48E5E704F0DCFC0A20EBE7687A80066B
:1026F00007D404F06DFD02F03FFB02F02DFB07B0A4
:10270000F0BDE879002803D00320FEF7ADF9B7E06B
:102710001C4E0A20305604F071FB02F09BFA307810
:10272000234F385C06F090FC3078385C205C04F075
:1027300035FB002004F0F2FB707800284AD014200A
:10274000E8711C480C21C17004F0B6FC286A41688D
:10275000891E4160E86902214160032101708FE018
:102760007802002008030020300300202703002007
:10277000A80D00204C0D0020BC020020B802002053
:10278000100E0020040E0020F80200202C03002070
:1027900007970008400D030054100020611000202E
:1027A000B4020020B00200201C0E00205497000844
:1027B000F0960008DC0E0020C40D0020C80D00209B
:1027C000570D0020680D00206C0D0020C502002070
:1027D000690200201520E87104F062FC02F0A0FA02
:1027E0004EE0FD49FF287DD00D46032812D101207F
:1027F00004F028FCF9480078662817D0F848407A99
:102800008106890E772004F071FEE869012141609C
:1028100002210170E8694078002812D001287DD09B
:1028200002287CD00920FEF71FF929E0EC48317915
:10283000407A052201433171EA49732004F092FF86
:10284000E3E7E879323806286AD201007944097949
:1028500049188F440A02020A1CFDE889401EE881DB
:10286000286A4168491E416008E0296A48680328CF
:1028700007D0EA89401E521EEA81486000F024FD1C
:1028800025E204F00DFC06F045FA3620E871D24D41
:10289000286A406804F0D6FBE8698078009002F06E
:1028A0003FFAED8902F000FA0646CF480027029071
:1028B000C948406A014680318A88438A9A427AD25E
:1028C000CB887D2109028B4275D20178802919D1EC
:1028D000418B828DC919914214D106210170018C5E
:1028E000C18300E040E2818C06224D190146263169
:1028F0000E30FFF708F9B848406A2030C078A84287
:1029000000D905460098042856D2C100B7480818D7
:10291000B149086241688C46A94202E0ECE0E7E177
:10292000E8E041D30178022916D2B1490B78F218B8
:10293000D11CA94210D2AC1AA74AE41ED181710061
:10294000CE18516A27360A78022A01D1C97A8E191F
:102950006146491BB14275D89F49496ACA890B78BB
:102960005519CA8B5E0608D5029E9B5D002B04D0CC
:102970000E468036F3889B18F3800B4680339E8882
:10298000B2189A800A7F4B7ED3189A4AD25C0A7793
:102990009149CA6A096B52188F49CA629649C97827
:1029A000891C7F1CCEB2FFB2817800918A4A4168AF
:1029B000D0616D1A7CE745E08D4800783118083108
:1029C000A94202D3291A08398EB23118C91CA9426A
:1029D00025D3814E716ACA890B785519CA8B5C065A
:1029E00008D5029C1B5D002B04D00B468033DC888D
:1029F000A418DC800B4680339C88A2189A800A7F3A
:102A00004B7ED3187B4AD25C0A77F26A316B52183C
:102A10007949F262C978891C7F1CCEB2FFB23118A5
:102A20006C1A6D4BC91CD98171000818273086B209
:102A3000586AE41E0178022902D1C07A801986B250
:102A40007F1CFFB2644D686A01468031CB8800E08C
:102A500047E07D221202934205D33721E9712221FA
:102A600020308170FCE38988428A914226D2418BD2
:102A70005E4BC9194183E96928798870C000C01884
:102A80000121E861017044608078C000C0182862AC
:102A90008178297100998170FF2146600170E96990
:102AA00001984870296A01984870019801F026FE43
:102AB000686AE989C0894018E881CFE33721E97164
:102AC0000178022905D0422907D0082120308170E1
:102AD000C4E33E2120308170C0E322212030817088
:102AE000BCE3286A406804F0ADFA02F019F902F07C
:102AF00001F9B5E3062096E6E8790C287ED00E2889
:102B000006D00F287BD0296A4868012878D0FFE0DA
:102B1000286A2E46406804F095FAF06980780090A3
:102B200002F0FEF8706A002183898181DB1D02F0CA
:102B3000BBF82F49002209780191273103912649DA
:102B4000096B02912449496A0E468036B4466546AF
:102B5000AD8806954E8AB5427ED2009D042D56D290
:102B6000EE00224D75191C4E35626E6805969E4228
:102B700030D32E78022E15D2019E86190496F61CAB
:102B80009E420FD2049C144F1C1BFE81CE7A00E0A3
:102B900079E340003018039EE41E8019059EF61A62
:102BA000864262D8C889CE8BC31806980A4F80190E
:102BB0006646B080087F4E7E86190E48805D087795
:102BC000F86A029E86190C48FE62C078801C521C6E
:102BD000C0B2D2B2AE7814E07802002067020020C2
:102BE0005410002008030020AE97000804100020B5
:102BF0002703002054970008A40200206DE067E03E
:102C000073E000966E689B1BFE4EF5619FE7019C8A
:102C10000419E41C9C4218D3C889CD8BC3186046A4
:102C20008088F84C40196546A880087F4D7E45197C
:102C3000F548405D0877E06A029D4019E062F3487C
:102C4000C078801C521CC0B2D2B2019C05195C1B1A
:102C5000EC4BED1CDD8100E007E0CB7A40001B1857
:102C60000398521C1818D2B2E41E6546AD884E8AED
:102C7000E44BB54225D24D8BAA184A83DA691979FB
:102C80009170E34DC90049190122D9610A704C6065
:102C90008978C900491919628C781C71009C8C7064
:102CA0004860FF200870DB48DC69417861701C6A6D
:102CB000417861704270586AD989C0894018D881BA
:102CC00001E00120087002F015F80F20D871C7E26A
:102CD000286A406804F0B6F907E0296A48680128C4
:102CE00016D104F0DDF906F015F802F019F8B7E294
:102CF000E8791438052835D2010079440979491852
:102D00008F4402FD16161600296A4868062804D06A
:102D1000401E486000F0D8FAA2E204F093F904F0F3
:102D2000BFF905F0F7FF01F0FBFF1820E87197E20B
:102D3000286A4468062C12D0072141600846E41F27
:102D400004F080F901F0ECFF286A002802D0416805
:102D500009194160B04801890919018180E2002404
:102D60000620EDE707205EE5A648002FC0790ED0CB
:102D7000012F37D0022F7DD00C20FDF775FEA14C1E
:102D80000020E07104F01AFA002874D08EE19D4909
:102D900033280CD006DC282809D02B2807D02D2872
:102DA0001BD108E0342802D0372816D103E00A20CE
:102DB000FDF75AFE13E0486A20308478FDF71AFFC9
:102DC000C472877263210171042104F0F3FF384655
:102DD00001F08AFE384601F049FD01F0A1FF01F043
:102DE000BBFFCCE7874C0D2802D00E2805D101E0AF
:102DF00000BF02E00B20FDF737FE607AC0067DD5EC
:102E00008448007A01078548090F415C84480078AE
:102E1000801C0818C1B27B48C06984782646042CFF
:102E200025D27C48007884467A4843697848E20095
:102E30001018744A10620278022A0ED242688A423E
:102E40000BD3521A6746002F03D06E48006A4260C7
:102E50000DE0704FBF69BB42F7D36A4A84786D4F6B
:102E6000D061BA6940681018B861042CDED3654F90
:102E70003A7901E07DE017E1F869891E827001224C
:102E800002703879C9B2C20061481018386283787C
:102E90003B718470012241604270FF220270042C59
:102EA00016D1042E14D15B4A5069332809D0137807
:102EB000002B08D0FF22413290420AD35022551AEB
:102EC00007E01122FBE79269904201D9851A00E0E0
:102ED00001254C484F4FC06969184560B8694018D2
:102EE000B8613878002807D17869332801D00020EC
:102EF000B8614C4800783870052101E02AE085E18E
:102F0000B869C902884217D37878474D800028589D
:102F1000042104F04FFF7978002089006850394877
:102F2000EF22417A11404172C17A49084900C172C9
:102F3000817A490849008172042E05D0A64203D047
:102F40003048467101F0D6FE2E48C069406804F052
:102F500079F814E72F4C6078002803D101F086FC43
:102F60000120607004F034F901F0DAFE01F0F4FEA3
:102F700005E7244C152801D0172801D105F0CAFE19
:102F8000607A80067ED524480089122803D322491E
:102F9000801C498801E014200021E26995782A46C6
:102FA000042D25D267791A4BD600F31823621E78B8
:102FB000022E12D2184E76888E420ED85E68142EDB
:102FC0000BD35E68864204D0361A761C801E5E6083
:102FD0000EE0B01E01265E600AE09A78142801D146
:102FE0005B685918E669042AB270236A9F70DAD3C5
:102FF000042A02D1042D30D01220074F7B888B4247
:1030000015D913E07802002054970008A40200208C
:10301000041000204C0D0020040E0020079700082B
:1030200027030020B8020020A0020020591AE369FB
:1030300026799E7001261E70491C59602179CB00AB
:103040009549591821628B7823718A7048603E89AE
:10305000864205D9301A38810CE090488088CCE748
:10306000B88838813B788E48185C3870002801D1C8
:103070000120387002204870FF200870042D06D00F
:10308000954200E008E002D0657101F033FEE0698E
:10309000406803F0D7FF72E680480021017001F01C
:1030A0003FFE01F059FE6AE605F034FEE069017862
:1030B000022924D24078002821D17A4E3546603545
:1030C000687DA071800715D03146182258318320C1
:1030D00004F048FB287F80210843287731460522E9
:1030E00078317E2004F03EFB04F07AFB287F400616
:1030F000400E2877A0798007800F03F0DFFCE0699D
:103100004068022801D2FFF7FAFAE07AA27A014673
:10311000504042077AD04140E1724907490E61723E
:10312000C10748D01C2260496048FEF7ECFC04222D
:103130005F496048FEF7E7FC607A1021084360723F
:103140005A48007A01075C48090F415C5B480078E7
:10315000801C0A18206A8178042912D24E4DC800BA
:10316000401920620378022B07D24368934204D3AC
:1031700043689B1A5B1C436003E08178E06104298B
:10318000EDD3E36920799870434DC00040190123C5
:10319000E061037043608078C00040192062857848
:1031A00025718170921EFF2142600170E0694370B9
:1031B000206A437052E0810752D5400609D5404944
:1031C0000C22881AFEF79FFC39490422081FFEF7DB
:1031D0009AFC607A202108436072304D206AAA88E8
:1031E0008178921C04291AD22B4EC80080192062C3
:1031F0000378022B0FD24368142B0CD343689342FD
:1032000005D09B1A5B1C921E436008E028E09A1EC2
:103210000123436003E0E06181780429E5D30429B8
:1032200000D11222E369207998701B4EC0008019EA
:103230000123E061037043608078C0008019206240
:1032400083782371817042602989891A2981FF213D
:103250000170E16902204870216A487001F04AFD5E
:10326000184C6079042800D14DE7E06940680328D4
:1032700001D3FDF783F9E06940685028F4D903F0E1
:1032800095FD07B0F0BD8D4202D9691A416000BFBB
:1032900000BF07B0F0BD000004100020040E0020A5
:1032A000BA9700081C0E0020A80D00204C0D00202D
:1032B000BC020020B8020020079700082703002066
:1032C000100E00207802002010B40D487D24026901
:1032D000416912190023594102614161094801798C
:1032E000C906C90E017108490868401C0860C87801
:1032F000EF2802D90007000FC87010BC704700000B
:10330000F8020020080300202C030020002871D0C0
:10331000F8B5044690488F4F0578384603688E48C4
:10332000061D4278C0789119FF2D04D0904201D932
:10333000002B08D1F8BD002856D0002A08D09042B2
:10334000F8D9002BF6D02246FF2004F0D1F942E054
:103350000090FDF75FFC0546786028007E4828D085
:10336000407822468119FF2004F0C2F978222921F1
:1033700000203D602A7168722872009B002B06D0E5
:10338000292B1AD9A972009B293BDBB200932D6827
:10339000002DEED1704DA9788907890F012910D031
:1033A0006E4B7A681A607968096800290FD05960F5
:1033B0000EE0C178417000201AE0AB723D602860D9
:1033C000E8E76648396801607968416001E05A6061
:1033D0002870002CAED004F003FA2546292C0AD917
:1033E0002824283DEDB208E0002AF4D100207860BE
:1033F0003860F8BDACE02C46002557480078FF281F
:103400003FD0564B1A68917A507A814236D0091AC9
:10341000CFB201192929504949787DD90B301018AC
:1034200089193A46FEF76FFB4C480168487AC01983
:1034300048724A484068814210D0E11BCAB20091EC
:1034400045493F1D4B780B305918C919434FFEF7BA
:103450005AFB78680099427A511841723F490868CE
:10346000827A407A824205D14868002802D00860FA
:10347000006848603848417809194170002DADD185
:10348000F8BD37483749C0694078C00042185268D3
:10349000002A4AD00858827A2F4841785018C0B282
:1034A0000219292A08D22D4A0B30126889191018DE
:1034B0002246FEF728FBDDE729281CD22922274BCC
:1034C000171A1B680B30FAB289191818FEF71BFB84
:1034D000E01BC0B2009020483F1D4178009A0818B8
:1034E000C1191E4840680B30FEF70DFB1B490098C0
:1034F000496848720CE0201A2930C7B21748891968
:1035000040683A460B30FEF7FEFA144840684772AE
:1035100012494868002800E00FE002D00860006807
:1035200048600D4800210170A4E70A4F7868FDF754
:10353000D7FA002078603860A0E70B30101889199E
:10354000064F2246FEF7DFFA3868417A091984E708
:1035500070470000EC020020000F0020FC02002059
:1035600078020020E4020020F8B50026164D840001
:1035700028593746002817D0017A00291FD0427AEF
:103580008A4205D9D1B2027A891A417207720BE0D8
:103590004772077201682951002907D0FDF77AFAAE
:1035A0002859017A0029E5D1002E0CD00179E629AD
:1035B00003D0EF2905D0F02905D1422102E00020F7
:1035C000F2E703214172F8BD88020020F0B5F94D01
:1035D00083B0E86941782846C079002907D0B02631
:1035E000012979D0022978D000BF03B0F0BD0026B0
:1035F000F049AE700A6A0124EF4F496A322806D0BA
:1036000033286BD034286AD0352869D10EE0B878D9
:103610006B461870F87858708320EE62405CC98B56
:103620008300E648C0584143002429631521104611
:1036300000F03EFC002852D1002C04D0B878694636
:103640000870F8784870686A0C21C47A0C400178D8
:10365000022908D104210170014680318E80CE807C
:10366000418D0024418203F03EFAD24900280870BF
:103670001CD00322D249A62004F03AF8684600780C
:10368000D04F0007850F20462843385C410643D5BC
:103690006846407800283CD06A2003F0EBFEFFF734
:1036A00035FEC948406800282BD032E0C748FB21CE
:1036B0008470C1700025801C03F030FBBD4AC44FEC
:1036C000D06940788300F85800280AD0017A002990
:1036D00007D006720068F7E7A8E1EEE25BE164E17B
:1036E000A0E1506AFF58C4723420D071B648016816
:1036F00000297DD04068FDF7F3F9B34846600660C5
:103700007BE069460878EF21084069460870B148B7
:10371000455D2C433C5D00E00446A6493422486ADE
:10372000C472CA716A461278D20601D53322CA71B0
:103730000178062903D104210170418D4182A348FB
:10374000FB218470C1700025801C03F0E7FA20067D
:103750009848C06940782DD5FFF706FF0746954881
:10376000C069407881009A484158084638431AD0C9
:10377000002907D17D7A20200543F87A0190384648
:10378000FDF788F98B488179C9070CD0002F0AD042
:10379000406A016F491C016705D16030017D491CF9
:1037A0004906490E01758348C069407801F0E2F886
:1037B00007460BE0864A81005058002805D0037A5E
:1037C000002B02D006720068F7E75758600614D540
:1037D00068464078002810D07648817989070CD552
:1037E000406A816F491C816707D16030017F00E02A
:1037F00003E0491C4906490E0177002F24D06D4F84
:103800003878002810D0F86973494078C000411812
:103810004968002904D1714940184068002803D044
:10382000102004433320F871F8692146407800F0F5
:1038300035FD002835D1F86940788100644840584A
:1038400000282ED0342026E001202043C1065F4806
:10385000C90E8170C670801C03F060FA554F786AFB
:10386000028A002A1DD08189914219D2620614D59C
:1038700069464978002913D1210603D48421095AC5
:1038800000290DD005F046FA786A8189491C8181AA
:10389000803086803620F87103E00029F2D100E004
:1038A0008681A8063727002842DAE84380070DD032
:1038B00068063DD53F48C0694578FDF79BF964210E
:1038C00001718572042104F075FA31E0394D686A9E
:1038D0000178042905D1424A0199515C0170862181
:1038E0000E520199022906D006290DD00B2910D0BD
:1038F0000C291AD114E005F00DFA696A162020315E
:103900008870EF7103B0F0BD53210E540421017093
:103910000BE002215322115406676030067504E063
:1039200001788C2901D104210170E8793728E9D088
:10393000204D28780028E5D0600623D568464078D9
:1039400000280BD0A879800708D59B2003F05EFDE6
:10395000C0060BD568460078800707D0E869009953
:10396000407800F0CBFAB02809D00BE0686A3D211E
:1039700020308170EF7105F0CDF903B0F0BD05F096
:10398000C9F9EF71686A8030868003F0CDF8696A02
:10399000487703B0F0BD4031C87C002805D126210E
:1039A000104600F085FA00281CD005F0B3F9362047
:1039B0007AE2000078020020000F0020349700080F
:1039C00029030020DE970008EC020020DC0E002016
:1039D00088020020F4960008D4020020DC020020B7
:1039E000229800083520E871A879800713D5696A04
:1039F000802308466030027F78311A43027705221F
:103A00007E2003F0AFFE03F0EBFE686A6030017FBA
:103A10004906490E0177A8798007800F03F04EF818
:103A200003B0F0BD05F076F903B0F0BD0F240A280D
:103A300007D00B2808D00C280AD00D28F4D105F0A7
:103A400069F9EC7103B0F0BD0C20E87103B0F0BD72
:103A5000F848C47103F047F80028E3D00222694611
:103A6000FF2003F045FEF44F387A05072D0FFDF7D0
:103A7000C1F8044601900834067122222146FF2035
:103A800003F036FE684600780007000F03287DD05B
:103A900005287CD105F03EF9002D02D0012D0DD076
:103AA000FEE0B87C032801D0022818D168460078CF
:103AB000019903F0BFFB002869D110E06846007847
:103AC0004006387A02D4000661D401E000065ED5D3
:103AD0000622DA492046FDF7D2FF002857D1684672
:103AE0000078019903F08CFB002850D1D248D449CA
:103AF000457868460078400604D50120AA008A5817
:103B0000507303E00020AA008A585073CC48AF00DD
:103B1000C0592146062216311430FDF7F4FFC8497A
:103B20000020C9592646887220367078062241093D
:103B3000C348C059817670784109BE48406A8030D8
:103B4000C170BF482146C0590E30FDF7DCFFBC48AC
:103B50000421C05904F02EF9B9490020C851B548D4
:103B6000C078002802D02839401EC870B14F2146C5
:103B7000786A15220C31001DFDF7C5FF786A2522F1
:103B8000B0492E30FDF762FF002001E04BE087E0F6
:103B9000F862786A03468033D9788A00AA4989583E
:103BA000C28B4A433A63E17C0A225143CAB2C272D1
:103BB00071780A24C906C90E41767178C906C90E02
:103BC000017702210170818961438181418AC900A5
:103BD0004185C189C1838C009C800A23594389B2E5
:103BE0001346C18108334182994201D1223AC272FF
:103BF000FDF700F8E92101710572002104F0DAF8FF
:103C00008D48796A8078C870787AEF210840787298
:103C1000F87A40084000F872B87A40084000B8725C
:103C20000E20F8713CE0002D01D0062D38D103F0B4
:103C3000D7FDB87C012801D0032806D1684600785A
:103C4000019903F0F7FA00282AD168460078019913
:103C500003F0D6FA002823D1387A764D01090901FC
:103C60007A48091D8170E97AC90605D57849794CE9
:103C7000C97E891DC17004E077496F4CC97E891DDA
:103C8000C1703C34801C03F049F8787A002812D0C7
:103C9000724803F029FA204603F01AFA0D20E87161
:103CA0000021019804F086F86248C0790F2800D1FD
:103CB000B8E603B0F0BD6A48EBE71821694C142858
:103CC00027D015287ED016287DD01728F1D1E9718C
:103CD00005F020F802F007FF0028EAD05820FCF792
:103CE00009FD0028E5D102226946FF2003F000FD0E
:103CF000FCF780FF01460446067125220831FF20AB
:103D000003F0F6FC684600780007000F04287DD118
:103D1000C0E0E97102F0E7FE0028C9D05820FCF7A6
:103D2000E9FC0028C4D102226946FF2003F0E0FC30
:103D3000FCF760FF014606710746083125220E4652
:103D4000FF2003F0D5FCE079002810D003F048FDF7
:103D500068460078394603F06DFA002807D004F071
:103D6000D9FF0021384604F025F803B0F0BD6946BC
:103D70000A7800201107090F0DD0012908D0022967
:103D800006D0062907D004F0C5FF002138466BE0B5
:103D900004F0C0FF1CE0510600D58020A179002965
:103DA00001D0402108430321084328498870881C1A
:103DB00002F0B4FFA07900280FD0284803F094F94E
:103DC000162001E00BE06CE0E871304603F080F96A
:103DD0003946009800F0F4FFD7E72148EEE7E97193
:103DE00004F098FF02F07FFE0028BED05820FCF7B8
:103DF00081FC0028B9D102226946FF2003F078FC3B
:103E0000FCF7F8FE05460671252200E046E0014673
:103E10000831FF2003F06CFCE079002828D003F083
:103E2000DFFC68460078294603F004FA00282ED10A
:103E30001EE00000780200204C0D0020570D0020ED
:103E4000A00200205497000834970008DC0E0020E0
:103E5000E80D0020A80D00208C0D0020C5020020D8
:103E600069020020040E002003F0A4FF03B0F0BD9F
:103E7000684600780007000F05D0012803D002280B
:103E800001D0062803D12946009800F099FF0021AF
:103E90002846E9E72146009800F092FF00212046DD
:103EA000E2E703F0FDF81720E87103B0F0BD000071
:103EB00010B4104C8378626AD289520912325218B7
:103EC000042B0CD2D9000C4B4468C9184B68091D4F
:103ED0001B19934206D99B1A0B60426006E0E389E6
:103EE000934202D210BC01207047416010BC0020F8
:103EF000704700007802002004100020F3B5080489
:103F0000070E880781B0800F00900198DA49C00041
:103F10004518DA48416A5320465C002E0FD00098BD
:103F2000012804D0022802D0032845D107E0002F41
:103F300005D03D2020318870B02003B0F0BD6A6804
:103F4000002A1FD00098012802D002281AD10DE0C3
:103F5000002F19D100211046837A00685918C9B280
:103F60000028F9D1D07A001D88420BD10198107237
:103F70006968712008710421686803F029FF002036
:103F800068602860002F71D0BD484468002C13D0B1
:103F90000098032813D0022821D07820B849207136
:103FA0000B68002B71D0286800286FD0597A292619
:103FB000B44F00296BD105E1B02003B0F0BDE7207C
:103FC0002071A77201982072E17A19290BD8AE48A6
:103FD0007F1E405C874204D1AC48415C02E0712006
:103FE000DCE71A21E172A54D686A0278530616D5FE
:103FF000A74BD75C04238F4201D1037008E0072947
:1040000006D00D2904D0112902D0172910D103E0C0
:10401000002286231A520BE0562AEED008E0192916
:1040200006D89C4B042A5A5C16D0042A00D0027091
:10403000192973D20A007A441279921897440E0E05
:104040004E545C6C65AC77776F72B48077ACAC80A3
:10405000ACACACACACAC8A000270E9E7002E06D088
:104060003D2120308170B02020719DE0FDE00029CD
:104070000ED0214605220C311430FDF744FD2146B7
:10408000686A022211312C3006E0E9E0F0E09FE09E
:1040900021460B220C312330FDF735FD686A818DF6
:1040A000428B914203D0891A7B4A914205DB282139
:1040B00020308170B020207176E0C18C02460184EE
:1040C0002032D3780A267343D370828C71437243B3
:1040D0008284C184418DC900418565E0217B203007
:1040E0008170B02020715FE00221A971002E5BD1A8
:1040F00001214030C17457E001214422A9710270AE
:10410000002E51D14030C1744EE02673A979C943C5
:10411000890701D14030C174032001E03CE0012057
:10412000A87141E0002181676030017710E0217BB8
:104130002D2211404170617BC907C90F817033E0A6
:104140000178432901D044292ED100214030C17487
:10415000A97129E098210170214602220E312C30EC
:10416000FDF7D1FC686A818D428B91429FD0891AFC
:10417000494A91429BDA217B627B11408907890F72
:104180001CD06030437F8B4203D08275217BC17588
:1041900002E000218175C175002E05D0696A3D20BD
:1041A00020318870B0202071686AA979603041752B
:1041B00000BF0021204603F00BFE51E000216030DB
:1041C0008175E4E739688B4202D17A6891420BD05D
:1041D000827A99188018B21AD2B20B300B31FDF7DF
:1041E00092FC286886720EE0827A80189B188A7A80
:1041F00019460B310B30FDF786FC28683A68817A46
:10420000927A891881721E4E7068417A002925D0F1
:104210003068417A002915D13968884212D0FCF7FC
:1042200039FC38683060427A3946292A08D14A6810
:10423000002A05D00260786800213060016001E04A
:10424000002101603068417A827A914200D0817207
:104250002968706808603068286001E0FCF740FC5D
:104260000748002141600160277903B03846F0BD5E
:10427000486868600868EFE7E402002078020020E0
:10428000EC020020FC020020569800083C98000830
:10429000AE97000808980008FF7F0000F3B581B0D2
:1042A0000198B24980000090B14E095831607160A8
:1042B0000879E62810D0EF280CD0F02812D000247E
:1042C000AC48406A8030407802091201821A012A03
:1042D0000AD00BE00324F3E7487A8A7A904201D1AE
:1042E0000224EDE70124EBE7401EC0B2029AA24D82
:1042F0002243D206D20EAA700022EA70012C0CD002
:10430000022C0AD0032C3ED1887A0872E8708A7A8F
:10431000281D0B31FDF7F7FB1CE00B7A4A7A1F18BA
:10432000974206D2DAB212180A72E9780818E870D1
:1043300010E000280ED0D21AEB78801AD218EA705A
:104340004A7A0A720A68C0B2002A03D0316009684A
:104350007160E2E7E878102815D90007000F0128FE
:1043600011D17068027A092A02D3093A027207E071
:10437000316809270B7ABA1A9A1A0A720021017257
:10438000E8780938E8707A49002009680E460A7A08
:104390004B7A9A4202D29A1A1018C0B2072823D830
:1043A00009680029F3D100281ED0072802D8082167
:1043B000081AC0B2E978091A102905DD0907090FA2
:1043C000012901D1401CC0B269494A68117A814271
:1043D00001D3091A04E0337A411A591A31720021C3
:1043E0001172E978081AE87060490098EF780E5861
:1043F000202F00D920276F7000255D480660327A93
:10440000B07A717ABA4213D2401A81195A480B31E4
:104410004019001DFDF777FB307A391ACFB24119E8
:10442000CDB2554908703068002810D00646E4E740
:10443000401A811950483A464019001D0B31FDF7CA
:1044400062FBB07A717A401A4B49C0190870484A29
:1044500016603068002807D04749B57A0B78AB4220
:1044600002D110600020087010680168002901D096
:10447000516000E050603F4DA879C00705D0696ADF
:1044800005227E20703103F06DF93A4DA87980073E
:10449000800F02F013FB696A0A466031087D40060E
:1044A000400E0875A879C30737D0497F022934D157
:1044B000314FF978072930D83546203569780029F9
:1044C00003D0116F726991421BD0002131720298A2
:1044D000012210430207120FBA70F970B81C02F0E3
:1044E0001DFCFCF787FB59210171204A00995158A6
:1044F000C16001990172447203F04EFC002003B0C8
:10450000F0BD0221084002F0D9FA6A78FA7031460B
:104510007A702231381DFDF7F6FA3E2002F0AAFF2C
:104520004021164C084020700DD01248C189491E08
:10453000C181006A4168491E4160FEF7C5FE2178CD
:104540003E2002F0F7FF0C4CA01C02F0E7FBE078E5
:10455000002806D06178201D02F0D2FD0549012017
:10456000887002490098085803B0F0BD8802002006
:10457000F402002078020020DC0E0020210300203D
:10458000882148430349085C022801D20020704773
:10459000012070471C0E0020F7B515460098FFF764
:1045A000EFFF00280CD02846FCF75EFB060007D082
:1045B0000020072D01D821218855344600271BE013
:1045C0000120FEBD292D03D32922293DEDB201E0B2
:1045D0002A460025F0202071A2726272002020720B
:1045E0000198C11920460B30FDF759FA20680028C0
:1045F00002D029370446FFB2002DE3D1E620307106
:1046000072B60098FFF7BCFF00280BD0009809494C
:10461000C00040180168002909D00E60046062B62D
:104620000020FEBD3046FCF743FA62B6C8E746609C
:10463000F4E70000D4020020F8B515460F46064600
:10464000FFF79EFF002824D0FCF7C0FA040020D01A
:104650000020072D01D821210855E6212171A572DE
:104660006572207220462A4639460B30FDF717FA4C
:1046700072B63046FFF784FF00280CD00A49F000DC
:104680004018016800290CD00C60046062B600205C
:10469000F8BD0120F8BD0021204603F06DFB62B695
:1046A000F7E74460F1E70000D4020020F8B51546B2
:1046B0000F460646FCF79EFA040019D00020072D8D
:1046C00001D821210855E6212171A5726572207259
:1046D00020462A4639460B30FDF7E1F90649F0003D
:1046E00040180168002905D00C6004600020F8BD66
:1046F0000120F8BD4460F8E7D402002070B51D4DDC
:1047000004466A6A508B918D884232D9107804230E
:1047100041280CD02946496A6031582810D0812898
:1047200005D0982825D1887D002808D008E013708E
:10473000FCF760FAE92101710472002117E013709F
:104740001370887D0026002804D04877C87D8877BC
:104750008E75CE75FCF74EFA742101718672C472A3
:10476000696A60314A7F0273497F4173042103F013
:1047700021FB70BD78020020F8B530490120487057
:1047800002F0BCF92E48552600782E4D66282BD015
:104790003E2002F06FFE3040044672B601463E20D5
:1047A00002F0C8FE62B6600605D572B6FDF754FD8C
:1047B000FDF7E0FD62B6E00703D072B6FDF712FD2B
:1047C00062B6142004420ED0600706D51E48017A56
:1047D000C02001436B2002F0ADFE72B600202870AD
:1047E000FEF7F4FE62B6F8BDAA273E2002F042FEB4
:1047F00004463842F9D1344072B614490AD02046F2
:10480000BF222C70104000D0087021463E2002F0DC
:1048100091FEC7E7287842060ED54028C2D1087815
:10482000012805D0042805D01028BBD10424B9E7FD
:104830001024B7E70124B5E74024B3E7780200204D
:1048400067020020210300205410002022030020D2
:1048500005490020882242438A5C012A03D0401C7B
:104860000006000EF6D070471C0E002070B5064DF5
:1048700084002859002806D0B0210171002103F0DE
:1048800099FA0020285170BDA0020020FFB581B028
:104890001E4615460F46FCF799F90446E82020719C
:1048A0002672681CE772A072002D05D020462A46A9
:1048B0000C300199FDF7F3F80021204603F05CFA73
:1048C00005B0F0BDFFB581B01E4615460F46FCF79A
:1048D00091F90446E82020712672681CE772A072E4
:1048E000002D05D020462A460C300199FDF70BF922
:1048F0000021204603F05EFA05B0F0BD70B5144605
:104900000D460646FCF762F9662101714672857212
:10491000C472042103F030FA70BD70B514460D4620
:104920000646FCF753F97321017186728581C481B3
:10493000042103F021FA70BD70B514460D460646F9
:10494000FCF744F9742101718672C57204734473D3
:10495000042103F011FA70BD70B50C460546FCF752
:1049600035F9622101714572C472042103F004FA21
:1049700070BD000030B4224C8300E15800220029B1
:104980003AD1214DC1006D6A1E484035ED7C0818B2
:10499000002D13D0416800292ED0C97AC91E0F29D5
:1049A00015D20D007D442D796D19AF4412121212EB
:1049B0001010101212101210101012004268002A6B
:1049C00007D1124808184168002902D114E0002AD2
:1049D00012D04168E1504268116804E00D79F02D71
:1049E00004D10A46096841600029F7D1002111600D
:1049F0004268002A00D10160E05830BC70470000D6
:104A000088020020DC02002078020020D40200206E
:104A1000F8B5074688202E49784346182D48FD00F2
:104A2000281808222C49FCF7F9FF88222B49304628
:104A3000FCF7F4FF72B601213046317060304177E7
:104A400081771B21C177803631707170B170214E32
:104A5000BA00883EB058224B224F00280ED0197859
:104A6000491C19700168002902D00800F7D105E03F
:104A700039680160B05838600020B05062B600203C
:104A8000002804D0012805D0022806D11DE01149D4
:104A90003C3901E00F4934396C1872B62668002E93
:104AA0000DD061681A78521C1A7009680029F9D172
:104AB000396831606168396000216160216062B6E7
:104AC000401CC0B20328DBD3F8BD02492C39E3E710
:104AD0001C0E0020100300201E970008709800088C
:104AE0007002002074020020F8B507468820304983
:104AF000784346182F48FD00281808222E49FCF755
:104B0000A5FF88222D493046FCF7A0FF0121304641
:104B100031706030417781771B21C177203001707F
:104B2000417081702649BA00C878274B401CC87074
:104B300024498858002810D00F461978491C19704C
:104B40000168002902D00800F7D106E01F490E686D
:104B50000660BE580E600021B9501D48002128187B
:104B600084461C482F181C482E18002904D00129FF
:104B700004D0022905D103E0644602E03C4600E08F
:104B800034462568002D0ED060681A78521C1A70C1
:104B900000680028F9D10D4A10682860606810602C
:104BA000002060602060491CC9B20329DDD3F8BD34
:104BB0001C0E0020100300201E97000870980008AB
:104BC0007802002088020020700200207402002079
:104BD000D4020020DC020020E4020020F8B50646E2
:104BE000143605462E3500231C461846315C01223A
:104BF000114202D02B55641CE4B25B1C5200120619
:104C0000DBB2120EF4D1401CC0B20528EED3252C25
:104C10000DD02520001BC2B228192946FCF73FFF02
:104C200003E0641EE4B2285D2854002CF9D1F8BDDD
:104C300010B502F021FB044600790549B0380006A2
:104C4000800D0958204688472046FBF713FF10BD0A
:104C50001499000870B5104EF47A40252C43214673
:104C6000792002F067FCF4720C49012008730C48AB
:104C70000078662805D0717A7720294302F05AFC23
:104C800070BD0849727A08791043284308710522DB
:104C9000732002F067FD70BD5410002078020020E0
:104CA00067020020080300200448026BC16A8918CB
:104CB000C1620348C078801CC0B2704778020020EF
:104CC000A40200200948406A0278C18B5306803054
:104CD000002B06DA064BD25C002A02D0C28852189A
:104CE000C2808288511881807047000078020020BD
:104CF000AE97000808494879042809D0074AC0003F
:104D00008018C8618078042803D0C0008018086229
:104D100070470020FBE7000078020020041000200C
:104D20000B4AD169137988788B7051791171002100
:104D30005071042809D0106AD0618078042805D009
:104D40000449C000401810627047D1611162704779
:104D5000780200200410002010B50648417904298B
:104D600004D0C069406802F06DF910BD19208001BF
:104D7000F9E700007802002030B40F4A116A137975
:104D800088788B70537913710023507104280FD0E9
:104D90000A4CC0000019D061456849686918416033
:104DA0008078042805D0C0000019106230BC70471C
:104DB000D361136230BC70477802002004100020D9
:104DC00070B50E46054603221A49A62002F090FC53
:104DD000FBF710FF04466B20207131462046062267
:104DE00008310D30FCF78FFEE8B2410601D50121F4
:104DF00000E000210007000F2173E072012816D0A7
:104E0000A804800E801FC5B2E574002D06D031467F
:104E100020462A460E311430FCF775FE01F084FE60
:104E2000611908750421204602F0C4FF70BD0025F9
:104E3000EAE700002903002070B5114DEC7ABF208D
:104E400004402146792002F075FBEC720D490220E6
:104E500008730D4801784020662905D0697A01431E
:104E6000772002F067FB70BD084A6B7A117919430D
:104E70000143117105220549732002F073FC70BDD6
:104E80005410002078020020670200200803002050
:104E900070B50E4C054620780D490007000F4118EB
:104EA00010222846FCF7D2FD2078C00704D02946FE
:104EB000204604F0DFF870BD044804F00BF92846E2
:104EC00004F0FCF804F0D0F870BD0000AC02002043
:104ED000BE9700083EB50121084601F08FFD08216C
:104EE0000120FBF7ADFDFF20013000900024694652
:104EF0000C714C718C716846FBF776FD0720694692
:104F000008724C728C7202A800F0F4FB3EBD3EB5F4
:104F100000F01CF80121084601F070FD0821012075
:104F2000FBF78EFDFF2001300090002468460471DD
:104F3000447101258571FBF757FD07216846017211
:104F40004472857202A800F0D5FB3EBD08B5012170
:104F5000880401F03BFD6846FBF730FEFF2001307E
:104F600069460880012088700420C8700148FBF75A
:104F7000C9FD08BD0004004800BF704710B58CB0E3
:104F80000C46122812D201007944097949188F443D
:104F90000D081629AD5E7951B4BBC2C9D8DF0FEA3E
:104FA000F3FA7C4A01201268214690470CB010BDEC
:104FB000784A0E201268002190470CB010BDE07AAC
:104FC000E11C0930C2B26846FCF769FDE07A0C3496
:104FD000005D08A908726F4A02201268694690476E
:104FE0000CB010BDA0786A461070E0785070607BFD
:104FF000227B000210436A465081E07BA27B0002C4
:1050000010436A462146908108799070487C0A7C5A
:10501000000210436A46D0814879D0700622A11D53
:1050200001A8FCF7FBFC5B4A032012686946904725
:105030000CB010BDA07869460870E078554A4870F9
:1050400012680720904769460878FF2187E060785A
:105050006A46107021785170002901D000213CE08F
:10506000002103F0A7FB0028E2D168460078002168
:1050700003F042FB68460078474A012103F034FF01
:105080000CB010BDE0786A461070A178517061795B
:105090002279090211436A465180E179A279090215
:1050A00011436A469180617A227A090211436A4665
:1050B000D180002103F07EFB002804D168460078EF
:1050C000002103F019FB68460078012103F072FB10
:1050D000012804D168460078012103F00DFB2D4A18
:1050E00006201268694690470CB010BD294A04207A
:1050F0001268002190470CB010BD264A08201268A3
:10510000214690470CB010BD224A09201268214662
:1051100090470CB010BD1F4A0A20126821469047E4
:105120000CB010BD20781D4A022103F0DDFE60782E
:105130000028F5D0174A0B201268214690470CB082
:1051400010BD144A0C201268214690470CB010BDC7
:10515000104A0D201268214690472078022103F062
:10516000CBFA0CB010BD0B4A0F20126821469047B5
:105170000CB010BD07E0FFE7064A10201268214678
:1051800090470CB010BD034A112012682146904789
:105190000CB010BD5C0200200053070080A9030082
:1051A00070470000F8B5214E827A01460B317368D2
:1051B0000446CF2A37D009DCC32A23D0CC2A11D009
:1051C000CE2A02D10E2000219847F8BDD02A15D052
:1051D00025460C35DD2A1DD0EB2AF6D109202946BB
:1051E0009847F8BD01209847114912484A78027043
:1051F0000622801C891CFCF752FCF8BD042000210B
:105200009847F8BD607B69460870A07B48700A200B
:105210009847F8BD03F038FB1020607372680D20CA
:1052200029469047F8BD0F209847F8BD5803002045
:1052300067020020F1030020C17ACF2906D10F2296
:1052400001461046024A0931526810477047000073
:10525000580300207047000010B5044603F014FB0B
:1052600005480078C00600D500BF0720034A214644
:1052700052680831904710BD600300205803002099
:10528000F8B52F4F0446B87C012600283BD1E07AC0
:10529000012838D12B48857A2B4800780540E8074B
:1052A0001BD0A07A1023294A062103F054FEA07ACD
:1052B0000A23274A072103F04EFE102223492548DE
:1052C000FCF7EDFB08222249F81DFCF7F1FB022256
:1052D00021492248FCF7ECFBBE74A8070BD5A07A45
:1052E00010231F4A082103F036FEA07A0723144A30
:1052F000092103F030FE680705D5A07A1023194A6A
:105300000A2103F028FEF97C1748002902D0022167
:10531000017000E0067015480025067014480570FD
:10532000FBF754FC77210171A17A017245720421C7
:1053300002F022FD0F480078000600D500BFF8BD3E
:10534000E81200200D130020DC0300205813002079
:1053500068130020FC12002070130020F7120020B8
:105360009C030020AC030020D8030020D7030020BA
:10537000E50300206003002070B504460F48104983
:10538000C27C0120002A02D002220A7000E00870CC
:105390000C49002508700C480570FBF717FC7721B5
:1053A0000171A17A01724572042102F0E5FC0748FF
:1053B000C078000600D500BF70BD0000E8120020D4
:1053C000D8030020D7030020E5030020600300205D
:1053D00000BF7047704700000949097989060DD55B
:1053E00008490978890709D502220146104610B5F7
:1053F000054A08315268904700BF10BD7047000051
:1054000060030020590300205803002010B5044613
:1054100016480079800618D515480078C00714D0C2
:1054200000BF072221460D311248FCF738FBE07A15
:105430001149C000401808221049FCF730FBE07AFF
:1054400004230F4A582100F09FF903F0BDF9E17AD7
:105450000C4A172050540C49002008700B4A0320B6
:10546000214652680831904710BD000060030020BB
:1054700059030020E8120020DD030020F103002082
:10548000AC020020D5030020650300205803002053
:1054900008490979890604D507490978490700D5DB
:1054A00000BF00218172062201461046034A0831DE
:1054B0005268104760030020590300205803002061
:1054C0000749097989060AD506490978490606D5A2
:1054D000112201461046044A0A31526810477047AB
:1054E000600300205903002058030020F8B505464A
:1054F000FBF76CFB2C4E0446B17C284600270B3092
:10550000002906D00A22F11DFCF7A9FA002831D0A3
:1055100005E00A222549FCF771FA002811D0DD20A8
:105520002071A87A20720021204602F025FC204834
:105530000079800604D51F480078C00600D500BF5A
:10554000F8BDDC202071A87A2072707C102808D861
:105550001021081A0206120E03D014491648FCF74F
:105560005DFA2046102214490930FCF7A1FA1348CD
:105570000770D8E7DC202071A87A20722046093015
:1055800010220F490546FCF793FA707C102808D8C2
:105590001021081A0206120E03D004492846FCF70F
:1055A0003DFA06480770BEE7E81200207098000830
:1055B000600300205903002018130020D7030020A7
:1055C000FC1200200949097989060DD50849497856
:1055D000090709D508220146104610B5054A0A31C7
:1055E0005268904700BF10BD704700006003002064
:1055F000590300205803002004480079800604D590
:1056000003480078000700D500BF70476003002002
:1056100059030020704700000C2201461046024A40
:10562000083152681047000058030020704700BF3F
:105630007047000002484078000700D500BF70475F
:10564000600300200B2201461046024A08315268CE
:1056500010470000580300200D2201461046024A60
:10566000083152681047000058030020417B072989
:1056700019D270B5782101710446017A0A480B4E9F
:10568000C1760025002C0DD0207978280AD121463A
:10569000A27A70190B31FCF702FAA07A246840193B
:1056A000C5B2EFE770BD7047691100208910002076
:1056B00000BF70477047704700BF704700BF70471A
:1056C00010B5007A8821484302494018FFF786FA4E
:1056D00010BD00001C0E002010B5037A044998008C
:1056E0000858162203210830FFF7D0F810BD00003B
:1056F000A002002030B5827801240178002A15D05C
:105700008B080E4A9B009A1813688907C90EFF255B
:105710008D40AB434578AD072D0E8D402B43136074
:105720000078C006C00E8440054804E0C806C00EDC
:10573000844003488030046030BD000000E400E095
:1057400000E100E08307FF22DB0E9A408907090E83
:10575000994000280BDA0007000F08388308084832
:105760009B001818C36993430B43C36170478308B8
:1057700004489B001818036893430B430360704769
:1057800000ED00E000E400E0FFB5064681B01F46F2
:105790000D462920FBF768FA04000DD0257126720A
:1057A00020463A460B300399FCF779F9204602F07F
:1057B000F3FA002005B0F0BD0120FBE710B5002092
:1057C000054B064A14210C1A1C5D1454401CC0B22F
:1057D0001028F8D3002010BD8910002018130020D5
:1057E0000020704710B50020054B064A14210C1A02
:1057F0001C5D1454401CC0B21028F8D3002010BD0A
:10580000891000202813002010B500200A490B4AF7
:1058100006231C1A145D0C54401CC0B20228F8D395
:105820000020074B0D210C1A145D1C54401CC0B203
:105830000828F8D3002010BDEF03002089100020B5
:10584000E703002070B5134D04462878002806D1E0
:10585000102211491148FCF72BF90120287010483B
:10586000C07C012809D0022807D02146002003F07F
:10587000CFFC002800D0012070BD0220FBF7F4F916
:105880000028F8D0762101710472042102F074FA24
:10589000002070BDE60300208E10002018130020A9
:1058A000E812002010B504460220FBF7DDF90028BD
:1058B0000CD07721017106490472497941720421A3
:1058C00002F05AFA03490020087010BD012010BDF3
:1058D00089100020E503002010B51523034A572145
:1058E000FFF752FF002800D0012010BD89100020D2
:1058F000F8B505463148324943790B70314A817910
:1059000011703149C279304E0A71017A203E7174AA
:105910002E4F447A3C702E4C807A20702D48002700
:10592000C47922435207002A01DBF77406E040796C
:1059300082008018284A8018C05CF074C91F0A29A8
:1059400023D20220FBF790F9040035D07520207196
:105950002572F07C607203F04FFC20481D490078EE
:10596000001DC2B2284603F0D7FA002803D0204613
:10597000FBF780F820E01A4901200870194804213B
:105980000770204602F0F8F914E006246846047017
:105990000220FBF769F900280ED07721017105720A
:1059A0004472042102F0E8F901236A4605212846E1
:1059B00003F0D1FA0020F8BD0120F8BD89100020C5
:1059C000D9030020DA03002008130020DB030020A5
:1059D000DC0300200D130020BC030020770300200F
:1059E000E5030020E60300200020704700207047F8
:1059F0000020704710B50020054B064A14210C1AF0
:105A00001C5D1454401CC0B21028F8D3002010BDF7
:105A100089100020381300200020704708B50E4977
:105A200009794A0903D052290FD0002008BD1E2948
:105A300004D80A4A89005158884708E00622002302
:105A400000921A4603F06FFA01E000F0C7FE00284A
:105A5000ECD0012008BD000089100020449C000803
:105A60000020704700207047F8B5114900240B79D9
:105A7000012706260F4902250A22132B12D8012BD3
:105A80000ED0132B0CD00E700F718D71CC710C7267
:105A90004C72084903F040FA002800D00120F8BDFC
:105AA0000020F8BD0E700F718D71CC710D72EFE793
:105AB00089100020881100200020704710B5074988
:105AC00009790B2907D8064A8900515888470028C8
:105AD00000D0012010BD002010BD00008910002062
